{
  "address": "0x3178aF7bD3ca0271e6C94B9e7734a5805ca17744",
  "abi": [
    {
      "inputs": [
        {
          "internalType": "address",
          "name": "_paymentToken",
          "type": "address"
        },
        {
          "internalType": "uint256",
          "name": "_rate",
          "type": "uint256"
        },
        {
          "internalType": "uint256",
          "name": "_start",
          "type": "uint256"
        },
        {
          "internalType": "uint256",
          "name": "_end",
          "type": "uint256"
        },
        {
          "internalType": "uint256",
          "name": "_totalTokensForSale",
          "type": "uint256"
        },
        {
          "internalType": "address",
          "name": "_registry",
          "type": "address"
        }
      ],
      "stateMutability": "nonpayable",
      "type": "constructor"
    },
    {
      "anonymous": false,
      "inputs": [
        {
          "indexed": true,
          "internalType": "address",
          "name": "from",
          "type": "address"
        },
        {
          "indexed": false,
          "internalType": "uint256",
          "name": "paymentTokenAmount",
          "type": "uint256"
        },
        {
          "indexed": false,
          "internalType": "uint256",
          "name": "tokenAmount",
          "type": "uint256"
        }
      ],
      "name": "Purchase",
      "type": "event"
    },
    {
      "anonymous": false,
      "inputs": [
        {
          "indexed": true,
          "internalType": "address",
          "name": "to",
          "type": "address"
        },
        {
          "indexed": false,
          "internalType": "uint256",
          "name": "paymentTokenAmount",
          "type": "uint256"
        }
      ],
      "name": "Refund",
      "type": "event"
    },
    {
      "anonymous": false,
      "inputs": [
        {
          "indexed": true,
          "internalType": "bytes32",
          "name": "role",
          "type": "bytes32"
        },
        {
          "indexed": true,
          "internalType": "bytes32",
          "name": "previousAdminRole",
          "type": "bytes32"
        },
        {
          "indexed": true,
          "internalType": "bytes32",
          "name": "newAdminRole",
          "type": "bytes32"
        }
      ],
      "name": "RoleAdminChanged",
      "type": "event"
    },
    {
      "anonymous": false,
      "inputs": [
        {
          "indexed": true,
          "internalType": "bytes32",
          "name": "role",
          "type": "bytes32"
        },
        {
          "indexed": true,
          "internalType": "address",
          "name": "account",
          "type": "address"
        },
        {
          "indexed": true,
          "internalType": "address",
          "name": "sender",
          "type": "address"
        }
      ],
      "name": "RoleGranted",
      "type": "event"
    },
    {
      "anonymous": false,
      "inputs": [
        {
          "indexed": true,
          "internalType": "bytes32",
          "name": "role",
          "type": "bytes32"
        },
        {
          "indexed": true,
          "internalType": "address",
          "name": "account",
          "type": "address"
        },
        {
          "indexed": true,
          "internalType": "address",
          "name": "sender",
          "type": "address"
        }
      ],
      "name": "RoleRevoked",
      "type": "event"
    },
    {
      "anonymous": false,
      "inputs": [
        {
          "indexed": true,
          "internalType": "address",
          "name": "to",
          "type": "address"
        },
        {
          "indexed": false,
          "internalType": "uint256",
          "name": "paymentTokenAmount",
          "type": "uint256"
        }
      ],
      "name": "Withdraw",
      "type": "event"
    },
    {
      "inputs": [],
      "name": "CAP_VALIDATION_GAS_LIMIT",
      "outputs": [
        {
          "internalType": "uint256",
          "name": "",
          "type": "uint256"
        }
      ],
      "stateMutability": "view",
      "type": "function"
    },
    {
      "inputs": [],
      "name": "CAP_VALIDATOR_ROLE",
      "outputs": [
        {
          "internalType": "bytes32",
          "name": "",
          "type": "bytes32"
        }
      ],
      "stateMutability": "view",
      "type": "function"
    },
    {
      "inputs": [],
      "name": "DEFAULT_ADMIN_ROLE",
      "outputs": [
        {
          "internalType": "bytes32",
          "name": "",
          "type": "bytes32"
        }
      ],
      "stateMutability": "view",
      "type": "function"
    },
    {
      "inputs": [],
      "name": "MUL",
      "outputs": [
        {
          "internalType": "uint256",
          "name": "",
          "type": "uint256"
        }
      ],
      "stateMutability": "view",
      "type": "function"
    },
    {
      "inputs": [],
      "name": "_investorCount",
      "outputs": [
        {
          "internalType": "uint256",
          "name": "",
          "type": "uint256"
        }
      ],
      "stateMutability": "view",
      "type": "function"
    },
    {
      "inputs": [],
      "name": "allocated",
      "outputs": [
        {
          "internalType": "uint256",
          "name": "",
          "type": "uint256"
        }
      ],
      "stateMutability": "view",
      "type": "function"
    },
    {
      "inputs": [
        {
          "internalType": "address",
          "name": "_to",
          "type": "address"
        }
      ],
      "name": "allocation",
      "outputs": [
        {
          "internalType": "uint256",
          "name": "",
          "type": "uint256"
        }
      ],
      "stateMutability": "view",
      "type": "function"
    },
    {
      "inputs": [
        {
          "internalType": "uint256",
          "name": "_amount",
          "type": "uint256"
        }
      ],
      "name": "buy",
      "outputs": [],
      "stateMutability": "nonpayable",
      "type": "function"
    },
    {
      "inputs": [],
      "name": "end",
      "outputs": [
        {
          "internalType": "uint256",
          "name": "",
          "type": "uint256"
        }
      ],
      "stateMutability": "view",
      "type": "function"
    },
    {
      "inputs": [
        {
          "internalType": "bytes32",
          "name": "",
          "type": "bytes32"
        }
      ],
      "name": "fractalIdToAddress",
      "outputs": [
        {
          "internalType": "address",
          "name": "",
          "type": "address"
        }
      ],
      "stateMutability": "view",
      "type": "function"
    },
    {
      "inputs": [
        {
          "internalType": "bytes32",
          "name": "role",
          "type": "bytes32"
        }
      ],
      "name": "getRoleAdmin",
      "outputs": [
        {
          "internalType": "bytes32",
          "name": "",
          "type": "bytes32"
        }
      ],
      "stateMutability": "view",
      "type": "function"
    },
    {
      "inputs": [
        {
          "internalType": "bytes32",
          "name": "role",
          "type": "bytes32"
        },
        {
          "internalType": "address",
          "name": "account",
          "type": "address"
        }
      ],
      "name": "grantRole",
      "outputs": [],
      "stateMutability": "nonpayable",
      "type": "function"
    },
    {
      "inputs": [
        {
          "internalType": "bytes32",
          "name": "role",
          "type": "bytes32"
        },
        {
          "internalType": "address",
          "name": "account",
          "type": "address"
        }
      ],
      "name": "hasRole",
      "outputs": [
        {
          "internalType": "bool",
          "name": "",
          "type": "bool"
        }
      ],
      "stateMutability": "view",
      "type": "function"
    },
    {
      "inputs": [],
      "name": "individualCap",
      "outputs": [
        {
          "internalType": "uint256",
          "name": "",
          "type": "uint256"
        }
      ],
      "stateMutability": "view",
      "type": "function"
    },
    {
      "inputs": [
        {
          "internalType": "uint256",
          "name": "i",
          "type": "uint256"
        }
      ],
      "name": "investorAmountAt",
      "outputs": [
        {
          "internalType": "uint256",
          "name": "",
          "type": "uint256"
        }
      ],
      "stateMutability": "view",
      "type": "function"
    },
    {
      "inputs": [],
      "name": "investorCount",
      "outputs": [
        {
          "internalType": "uint256",
          "name": "",
          "type": "uint256"
        }
      ],
      "stateMutability": "view",
      "type": "function"
    },
    {
      "inputs": [],
      "name": "paymentToken",
      "outputs": [
        {
          "internalType": "address",
          "name": "",
          "type": "address"
        }
      ],
      "stateMutability": "view",
      "type": "function"
    },
    {
      "inputs": [
        {
          "internalType": "uint256",
          "name": "_paymentAmount",
          "type": "uint256"
        }
      ],
      "name": "paymentTokenToToken",
      "outputs": [
        {
          "internalType": "uint256",
          "name": "",
          "type": "uint256"
        }
      ],
      "stateMutability": "view",
      "type": "function"
    },
    {
      "inputs": [],
      "name": "rate",
      "outputs": [
        {
          "internalType": "uint256",
          "name": "",
          "type": "uint256"
        }
      ],
      "stateMutability": "view",
      "type": "function"
    },
    {
      "inputs": [
        {
          "internalType": "address",
          "name": "to",
          "type": "address"
        }
      ],
      "name": "refund",
      "outputs": [],
      "stateMutability": "nonpayable",
      "type": "function"
    },
    {
      "inputs": [
        {
          "internalType": "address",
          "name": "to",
          "type": "address"
        }
      ],
      "name": "refundAmount",
      "outputs": [
        {
          "internalType": "uint256",
          "name": "",
          "type": "uint256"
        }
      ],
      "stateMutability": "view",
      "type": "function"
    },
    {
      "inputs": [],
      "name": "registry",
      "outputs": [
        {
          "internalType": "address",
          "name": "",
          "type": "address"
        }
      ],
      "stateMutability": "view",
      "type": "function"
    },
    {
      "inputs": [
        {
          "internalType": "bytes32",
          "name": "role",
          "type": "bytes32"
        },
        {
          "internalType": "address",
          "name": "account",
          "type": "address"
        }
      ],
      "name": "renounceRole",
      "outputs": [],
      "stateMutability": "nonpayable",
      "type": "function"
    },
    {
      "inputs": [
        {
          "internalType": "bytes32",
          "name": "role",
          "type": "bytes32"
        },
        {
          "internalType": "address",
          "name": "account",
          "type": "address"
        }
      ],
      "name": "revokeRole",
      "outputs": [],
      "stateMutability": "nonpayable",
      "type": "function"
    },
    {
      "inputs": [],
      "name": "risingTideCache",
      "outputs": [
        {
          "internalType": "uint256",
          "name": "index",
          "type": "uint256"
        },
        {
          "internalType": "uint256",
          "name": "sumForCap",
          "type": "uint256"
        },
        {
          "internalType": "uint256",
          "name": "sumForNextCap",
          "type": "uint256"
        },
        {
          "internalType": "uint256",
          "name": "largest",
          "type": "uint256"
        }
      ],
      "stateMutability": "view",
      "type": "function"
    },
    {
      "inputs": [],
      "name": "risingTideState",
      "outputs": [
        {
          "internalType": "enum RisingTide.RisingTideState",
          "name": "",
          "type": "uint8"
        }
      ],
      "stateMutability": "view",
      "type": "function"
    },
    {
      "inputs": [],
      "name": "risingTide_isValidCap",
      "outputs": [
        {
          "internalType": "bool",
          "name": "",
          "type": "bool"
        }
      ],
      "stateMutability": "view",
      "type": "function"
    },
    {
      "inputs": [],
      "name": "risingTide_totalAllocatedUncapped",
      "outputs": [
        {
          "internalType": "uint256",
          "name": "",
          "type": "uint256"
        }
      ],
      "stateMutability": "view",
      "type": "function"
    },
    {
      "inputs": [],
      "name": "risingTide_totalCap",
      "outputs": [
        {
          "internalType": "uint256",
          "name": "",
          "type": "uint256"
        }
      ],
      "stateMutability": "view",
      "type": "function"
    },
    {
      "inputs": [],
      "name": "risingTide_validate",
      "outputs": [],
      "stateMutability": "nonpayable",
      "type": "function"
    },
    {
      "inputs": [],
      "name": "risingTide_validating",
      "outputs": [
        {
          "internalType": "bool",
          "name": "",
          "type": "bool"
        }
      ],
      "stateMutability": "view",
      "type": "function"
    },
    {
      "inputs": [
        {
          "internalType": "uint256",
          "name": "_cap",
          "type": "uint256"
        }
      ],
      "name": "setIndividualCap",
      "outputs": [],
      "stateMutability": "nonpayable",
      "type": "function"
    },
    {
      "inputs": [],
      "name": "start",
      "outputs": [
        {
          "internalType": "uint256",
          "name": "",
          "type": "uint256"
        }
      ],
      "stateMutability": "view",
      "type": "function"
    },
    {
      "inputs": [
        {
          "internalType": "bytes4",
          "name": "interfaceId",
          "type": "bytes4"
        }
      ],
      "name": "supportsInterface",
      "outputs": [
        {
          "internalType": "bool",
          "name": "",
          "type": "bool"
        }
      ],
      "stateMutability": "view",
      "type": "function"
    },
    {
      "inputs": [
        {
          "internalType": "uint256",
          "name": "_tokenAmount",
          "type": "uint256"
        }
      ],
      "name": "tokenToPaymentToken",
      "outputs": [
        {
          "internalType": "uint256",
          "name": "",
          "type": "uint256"
        }
      ],
      "stateMutability": "view",
      "type": "function"
    },
    {
      "inputs": [],
      "name": "totalTokensForSale",
      "outputs": [
        {
          "internalType": "uint256",
          "name": "",
          "type": "uint256"
        }
      ],
      "stateMutability": "view",
      "type": "function"
    },
    {
      "inputs": [],
      "name": "totalUncappedAllocations",
      "outputs": [
        {
          "internalType": "uint256",
          "name": "",
          "type": "uint256"
        }
      ],
      "stateMutability": "view",
      "type": "function"
    },
    {
      "inputs": [
        {
          "internalType": "address",
          "name": "_to",
          "type": "address"
        }
      ],
      "name": "uncappedAllocation",
      "outputs": [
        {
          "internalType": "uint256",
          "name": "",
          "type": "uint256"
        }
      ],
      "stateMutability": "view",
      "type": "function"
    },
    {
      "inputs": [],
      "name": "withdraw",
      "outputs": [],
      "stateMutability": "nonpayable",
      "type": "function"
    },
    {
      "inputs": [],
      "name": "withdrawn",
      "outputs": [
        {
          "internalType": "bool",
          "name": "",
          "type": "bool"
        }
      ],
      "stateMutability": "view",
      "type": "function"
    }
  ],
  "transactionHash": "0x9f82a8ba65a34fe707cd3d7def3367bf1504bc6b62ff52b6e854e185687aeeca",
  "args": [
    "0x0000000000000000000100000000000000000001",
    "300000000000000000",
    1651647600,
    1651649400,
    "10000000000000000000",
    "0xbBF21E3A044b4c33EFA6A346cC346c207c123241"
  ],
  "numDeployments": 1,
  "solcInputHash": "decdec93551b6311883ac2259c1f6c65",
  "bytecode": "0x6101406040523480156200001257600080fd5b50604051620021a0380380620021a08339810160408190526200003591620002ce565b6001600755846200007d5760405162461bcd60e51b815260206004820152600d60248201526c63616e2774206265207a65726f60981b60448201526064015b60405180910390fd5b6001600160a01b038616620000c55760405162461bcd60e51b815260206004820152600d60248201526c63616e2774206265207a65726f60981b604482015260640162000074565b60008411620001075760405162461bcd60e51b815260206004820152600d60248201526c63616e2774206265207a65726f60981b604482015260640162000074565b838311620001585760405162461bcd60e51b815260206004820152601760248201527f656e64206d757374206265206166746572207374617274000000000000000000604482015260640162000074565b600082116200019e5760405162461bcd60e51b81526020600482015260116024820152700746f74616c2063616e6e6f74206265203607c1b604482015260640162000074565b6001600160a01b0380871660805260a086905260c085905260e0849052610100839052811661012052620001d46000336200020c565b620002007f33ccb9ed30bc572500993b7ca8e527619cf334431f74b8ecd1c841304ef9c603336200020c565b5050505050506200032b565b60008281526006602090815260408083206001600160a01b038516845290915290205460ff16620002ad5760008281526006602090815260408083206001600160a01b03851684529091529020805460ff191660011790556200026c3390565b6001600160a01b0316816001600160a01b0316837f2f8788117e7eff1d82e926ec794901d17c78024a50270940304540a733656f0d60405160405180910390a45b5050565b80516001600160a01b0381168114620002c957600080fd5b919050565b60008060008060008060c08789031215620002e857600080fd5b620002f387620002b1565b9550602087015194506040870151935060608701519250608087015191506200031f60a08801620002b1565b90509295509295509295565b60805160a05160c05160e0516101005161012051611dca620003d6600039600081816103fc0152610df70152600081816103880152818161042001528181610a2801526115660152600081816105d6015281816107cc01528181610c0c0152610d260152600081816104df0152610cfb0152600081816102df0152818161097101526110ae01526000818161031b015281816108ed0152818161106d015261126b0152611dca6000f3fe608060405234801561001057600080fd5b50600436106102485760003560e01c8063acde5d281161013b578063d0a24e47116100b8578063ed7196bc1161007c578063ed7196bc146105c9578063efbe1c1c146105d1578063f00a46f3146105f8578063fa89401a1461060b578063fca89df01461061e57600080fd5b8063d0a24e471461053c578063d547741f14610565578063d7e64c0014610578578063d96a094a14610580578063e8448f021461059357600080fd5b8063c0cd9ce2116100ff578063c0cd9ce214610501578063c487888314610509578063c80ec52214610512578063cbf2cc2b1461051f578063cd2b30261461052957600080fd5b8063acde5d2814610485578063b03aee4e14610498578063b304b2e1146104bf578063b81b8630146104c7578063be9a6555146104da57600080fd5b80633ccfd60b116101c9578063711a9f351161018d578063711a9f35146103ef5780637b103999146103f75780637b8db5861461041e57806391d1485414610444578063a217fddf1461047d57600080fd5b80633ccfd60b14610368578063533319331461037057806360219c7b1461038357806369d917c9146103aa5780636c4657f4146103e057600080fd5b8063248a9ca311610210578063248a9ca3146102b75780632c4e722e146102da5780632f2ff15d146103015780633013ce291461031657806336568abe1461035557600080fd5b806301ffc9a71461024d5780630276650b1461027557806318dfcf7b1461028c5780631a15c6d7146102955780631c120bc1146102af575b600080fd5b61026061025b366004611aa1565b610647565b60405190151581526020015b60405180910390f35b61027e60055481565b60405190815260200161026c565b61027e600a5481565b6000546102a29060ff1681565b60405161026c9190611ae1565b600b5461027e565b61027e6102c5366004611b09565b60009081526006602052604090206001015490565b61027e7f000000000000000000000000000000000000000000000000000000000000000081565b61031461030f366004611b3e565b610672565b005b61033d7f000000000000000000000000000000000000000000000000000000000000000081565b6040516001600160a01b03909116815260200161026c565b610314610363366004611b3e565b61069d565b610314610720565b61027e61037e366004611b09565b61096d565b61027e7f000000000000000000000000000000000000000000000000000000000000000081565b61027e6103b8366004611b09565b6000908152600960209081526040808320546001600160a01b03168352600890915290205490565b61027e670de0b6b3a764000081565b6102606109ac565b61033d7f000000000000000000000000000000000000000000000000000000000000000081565b7f000000000000000000000000000000000000000000000000000000000000000061027e565b610260610452366004611b3e565b60009182526006602090815260408084206001600160a01b0393909316845291905290205460ff1690565b61027e600081565b61027e610493366004611b6a565b6109ce565b61027e7f33ccb9ed30bc572500993b7ca8e527619cf334431f74b8ecd1c841304ef9c60381565b61027e610a1e565b61027e6104d5366004611b6a565b610a51565b61027e7f000000000000000000000000000000000000000000000000000000000000000081565b610314610a73565b61027e600b5481565b600c546102609060ff1681565b61027e620186a081565b610314610537366004611b09565b610bdf565b61027e61054a366004611b6a565b6001600160a01b031660009081526008602052604090205490565b610314610573366004611b3e565b610cd3565b600a5461027e565b61031461058e366004611b09565b610cf9565b6001546002546003546004546105a99392919084565b60408051948552602085019390935291830152606082015260800161026c565b610260611095565b61027e7f000000000000000000000000000000000000000000000000000000000000000081565b61027e610606366004611b09565b61109e565b610314610619366004611b6a565b6110d3565b61033d61062c366004611b09565b600d602052600090815260409020546001600160a01b031681565b60006001600160e01b0319821663854aabcb60e01b148061066c575061066c82611328565b92915050565b60008281526006602052604090206001015461068e813361135d565b61069883836113dd565b505050565b6001600160a01b03811633146107125760405162461bcd60e51b815260206004820152602f60248201527f416363657373436f6e74726f6c3a2063616e206f6e6c792072656e6f756e636560448201526e103937b632b9903337b91039b2b63360891b60648201526084015b60405180910390fd5b61071c828261147f565b5050565b600061072c813361135d565b6107346109ac565b6107725760405162461bcd60e51b815260206004820152600f60248201526e18d85c081b9bdd081e595d081cd95d608a1b6044820152606401610709565b600260075414156107c55760405162461bcd60e51b815260206004820152601f60248201527f5265656e7472616e637947756172643a207265656e7472616e742063616c6c006044820152606401610709565b60026007557f0000000000000000000000000000000000000000000000000000000000000000421161082e5760405162461bcd60e51b81526020600482015260126024820152711cd85b19481b9bdd08195b991959081e595d60721b6044820152606401610709565b600c5460ff16156108755760405162461bcd60e51b815260206004820152601160248201527030b63932b0b23c903bb4ba34323930bbb760791b6044820152606401610709565b600c805460ff19166001179055600061088c610a1e565b905060006108998261109e565b60405181815290915033907f884edad9ce6fa2440d8a54cc123490eb96d2768479d49ff9c7366125a94243649060200160405180910390a260405163a9059cbb60e01b8152336004820152602481018290527f00000000000000000000000000000000000000000000000000000000000000006001600160a01b03169063a9059cbb906044016020604051808303816000875af115801561093e573d6000803e3d6000fd5b505050506040513d601f19601f820116820180604052508101906109629190611b85565b505060016007555050565b60007f00000000000000000000000000000000000000000000000000000000000000006109a2670de0b6b3a764000084611bbd565b61066c9190611bdc565b600060025b60005460ff1660038111156109c8576109c8611acb565b14905090565b60006109d86109ac565b6109e457506000919050565b6001600160a01b03821660009081526008602052604081205490610a0784610a51565b9050610a166106068284611bfe565b949350505050565b6000610a4c600b547f0000000000000000000000000000000000000000000000000000000000000000611502565b905090565b6001600160a01b03811660009081526008602052604081205461066c9061151a565b600160005460ff166003811115610a8c57610a8c611acb565b14610a9657600080fd5b60408051608081018252600154815260025460208201526003549181019190915260045460608201526000610aca600a5490565b6005549091505b825182118015610ae35750620186a05a115b15610b7f5782516000908152600960209081526040808320546001600160a01b031683526008909152902054610b198183611502565b84602001818151610b2a9190611c15565b905250610b42610b3b836001611c15565b8290611502565b84604001818151610b539190611c15565b9052506060840151610b659082611545565b60608501525082518390610b7890611c2d565b9052610ad1565b82516001819055602084015160025560408401516003556060840151600455821415610698576000610bb18285611554565b90508015610bcb576000805460ff19166002179055610bd9565b6000805460ff191660031790555b50505050565b7f33ccb9ed30bc572500993b7ca8e527619cf334431f74b8ecd1c841304ef9c603610c0a813361135d565b7f00000000000000000000000000000000000000000000000000000000000000004211610c695760405162461bcd60e51b815260206004820152600d60248201526c39b0b632903737ba1037bb32b960991b6044820152606401610709565b60026007541415610cbc5760405162461bcd60e51b815260206004820152601f60248201527f5265656e7472616e637947756172643a207265656e7472616e742063616c6c006044820152606401610709565b6002600755610cca826115f0565b50506001600755565b600082815260066020526040902060010154610cef813361135d565b610698838361147f565b7f00000000000000000000000000000000000000000000000000000000000000004210158015610d4957507f00000000000000000000000000000000000000000000000000000000000000004211155b610d875760405162461bcd60e51b815260206004820152600f60248201526e73616c65206e6f742061637469766560881b6044820152606401610709565b60026007541415610dda5760405162461bcd60e51b815260206004820152601f60248201527f5265656e7472616e637947756172643a207265656e7472616e742063616c6c006044820152606401610709565b60026007556040516368c610b760e11b81523360048201526000907f00000000000000000000000000000000000000000000000000000000000000006001600160a01b03169063d18c216e90602401602060405180830381865afa158015610e46573d6000803e3d6000fd5b505050506040513d601f19601f82011682018060405250810190610e6a9190611c48565b905080610eaa5760405162461bcd60e51b815260206004820152600e60248201526d1b9bdd081c9959da5cdd195c995960921b6044820152606401610709565b6000818152600d60205260409020546001600160a01b03161580610ee457506000818152600d60205260409020546001600160a01b031633145b610f305760405162461bcd60e51b815260206004820181905260248201527f6964207265676973746572656420746f20616e6f7468657220616464726573736044820152606401610709565b6000610f3b8361109e565b905060008111610f7d5760405162461bcd60e51b815260206004820152600d60248201526c63616e2774206265207a65726f60981b6044820152606401610709565b3360009081526008602052604090205480610fc757600a8054600090815260096020526040812080546001600160a01b0319163317905581549190610fc183611c2d565b91905055505b3360009081526008602052604081208054869290610fe6908490611c15565b9250508190555083600b6000828254610fff9190611c15565b90915550506000838152600d602090815260409182902080546001600160a01b031916339081179091558251858152918201879052917f12cb4648cf3058b17ceeb33e579f8b0bc269fe0843f3900b8e24b6c54871703c910160405180910390a26109626001600160a01b037f0000000000000000000000000000000000000000000000000000000000000000163330856116c5565b600060016109b1565b6000670de0b6b3a76400006109a27f000000000000000000000000000000000000000000000000000000000000000084611bbd565b6110db6109ac565b6111195760405162461bcd60e51b815260206004820152600f60248201526e18d85c081b9bdd081e595d081cd95d608a1b6044820152606401610709565b6002600754141561116c5760405162461bcd60e51b815260206004820152601f60248201527f5265656e7472616e637947756172643a207265656e7472616e742063616c6c006044820152606401610709565b60026007556001600160a01b0381166000908152600860205260409020600181015460ff16156111d15760405162461bcd60e51b815260206004820152601060248201526f185b1c9958591e481c99599d5b99195960821b6044820152606401610709565b60006111dc836109ce565b9050600081116112245760405162461bcd60e51b8152602060048201526013602482015272139bc81d1bdad95b9cc81d1bc81c99599d5b99606a1b6044820152606401610709565b6001600160a01b03838116600081815260086020526040908190206001908101805460ff191690911790555163a9059cbb60e01b81526004810191909152602481018390527f00000000000000000000000000000000000000000000000000000000000000009091169063a9059cbb906044016020604051808303816000875af11580156112b6573d6000803e3d6000fd5b505050506040513d601f19601f820116820180604052508101906112da9190611b85565b50826001600160a01b03167fbb28353e4598c3b9199101a66e0989549b659a59a54d2c27fbb183f1932c8e6d8260405161131691815260200190565b60405180910390a25050600160075550565b60006001600160e01b03198216637965db0b60e01b148061066c57506301ffc9a760e01b6001600160e01b031983161461066c565b60008281526006602090815260408083206001600160a01b038516845290915290205460ff1661071c5761139b816001600160a01b0316601461171f565b6113a683602061171f565b6040516020016113b7929190611c8d565b60408051601f198184030181529082905262461bcd60e51b825261070991600401611d02565b60008281526006602090815260408083206001600160a01b038516845290915290205460ff1661071c5760008281526006602090815260408083206001600160a01b03851684529091529020805460ff1916600117905561143b3390565b6001600160a01b0316816001600160a01b0316837f2f8788117e7eff1d82e926ec794901d17c78024a50270940304540a733656f0d60405160405180910390a45050565b60008281526006602090815260408083206001600160a01b038516845290915290205460ff161561071c5760008281526006602090815260408083206001600160a01b0385168085529252808320805460ff1916905551339285917ff6391f5c32d9c69d2a47ea670b442974b53935d1edc7fd64eb21e047a839171b9190a45050565b60008183106115115781611513565b825b9392505050565b60006115246109ac565b61153057506000919050565b600554821061154157505060055490565b5090565b60008282106115115781611513565b600080611560600b5490565b905060007f00000000000000000000000000000000000000000000000000000000000000009050818460600151111561159857600080fd5b81846020015111156115a957600080fd5b81846040015111156115ba57600080fd5b8082116115d0575050506060810151821461066c565b8084604001511180156115e7575080846020015111155b9250505061066c565b6000805460ff16600381111561160857611608611acb565b148061162a5750600360005460ff16600381111561162857611628611acb565b145b6116765760405162461bcd60e51b815260206004820152601a60248201527f616c726561647920736574206f7220696e2070726f67726573730000000000006044820152606401610709565b60058190556000805460ff1916600190811782556040805160808101825283815260208101849052908101839052606001829052819055600281905560038190556004556116c2610a73565b50565b604080516001600160a01b0385811660248301528416604482015260648082018490528251808303909101815260849091019091526020810180516001600160e01b03166323b872dd60e01b179052610bd99085906118bb565b6060600061172e836002611bbd565b611739906002611c15565b67ffffffffffffffff81111561175157611751611d35565b6040519080825280601f01601f19166020018201604052801561177b576020820181803683370190505b509050600360fc1b8160008151811061179657611796611d4b565b60200101906001600160f81b031916908160001a905350600f60fb1b816001815181106117c5576117c5611d4b565b60200101906001600160f81b031916908160001a90535060006117e9846002611bbd565b6117f4906001611c15565b90505b600181111561186c576f181899199a1a9b1b9c1cb0b131b232b360811b85600f166010811061182857611828611d4b565b1a60f81b82828151811061183e5761183e611d4b565b60200101906001600160f81b031916908160001a90535060049490941c9361186581611d61565b90506117f7565b5083156115135760405162461bcd60e51b815260206004820181905260248201527f537472696e67733a20686578206c656e67746820696e73756666696369656e746044820152606401610709565b6000611910826040518060400160405280602081526020017f5361666545524332303a206c6f772d6c6576656c2063616c6c206661696c6564815250856001600160a01b031661198d9092919063ffffffff16565b805190915015610698578080602001905181019061192e9190611b85565b6106985760405162461bcd60e51b815260206004820152602a60248201527f5361666545524332303a204552433230206f7065726174696f6e20646964206e6044820152691bdd081cdd58d8d9595960b21b6064820152608401610709565b6060610a168484600085856001600160a01b0385163b6119ef5760405162461bcd60e51b815260206004820152601d60248201527f416464726573733a2063616c6c20746f206e6f6e2d636f6e74726163740000006044820152606401610709565b600080866001600160a01b03168587604051611a0b9190611d78565b60006040518083038185875af1925050503d8060008114611a48576040519150601f19603f3d011682016040523d82523d6000602084013e611a4d565b606091505b5091509150611a5d828286611a68565b979650505050505050565b60608315611a77575081611513565b825115611a875782518084602001fd5b8160405162461bcd60e51b81526004016107099190611d02565b600060208284031215611ab357600080fd5b81356001600160e01b03198116811461151357600080fd5b634e487b7160e01b600052602160045260246000fd5b6020810160048310611b0357634e487b7160e01b600052602160045260246000fd5b91905290565b600060208284031215611b1b57600080fd5b5035919050565b80356001600160a01b0381168114611b3957600080fd5b919050565b60008060408385031215611b5157600080fd5b82359150611b6160208401611b22565b90509250929050565b600060208284031215611b7c57600080fd5b61151382611b22565b600060208284031215611b9757600080fd5b8151801515811461151357600080fd5b634e487b7160e01b600052601160045260246000fd5b6000816000190483118215151615611bd757611bd7611ba7565b500290565b600082611bf957634e487b7160e01b600052601260045260246000fd5b500490565b600082821015611c1057611c10611ba7565b500390565b60008219821115611c2857611c28611ba7565b500190565b6000600019821415611c4157611c41611ba7565b5060010190565b600060208284031215611c5a57600080fd5b5051919050565b60005b83811015611c7c578181015183820152602001611c64565b83811115610bd95750506000910152565b7f416363657373436f6e74726f6c3a206163636f756e7420000000000000000000815260008351611cc5816017850160208801611c61565b7001034b99036b4b9b9b4b733903937b6329607d1b6017918401918201528351611cf6816028840160208801611c61565b01602801949350505050565b6020815260008251806020840152611d21816040850160208701611c61565b601f01601f19169190910160400192915050565b634e487b7160e01b600052604160045260246000fd5b634e487b7160e01b600052603260045260246000fd5b600081611d7057611d70611ba7565b506000190190565b60008251611d8a818460208701611c61565b919091019291505056fea2646970667358221220838ed9f4806525ea62309ab2bd4219b79e52b2cf5baabbdc237e6ae8fa03c39b64736f6c634300080c0033",
  "devdoc": {
    "kind": "dev",
    "methods": {
      "allocated()": {
        "returns": {
          "_0": "the amount of tokens already allocated"
        }
      },
      "allocation(address)": {
        "params": {
          "_who": "The address to query"
        }
      },
      "buy(uint256)": {
        "details": "aUSD allowance must be previously set by spenderActual $CTND allocation is only available once individual cap is setNeeds to be approved by Fractal via the Registry",
        "params": {
          "_paymentAmount": "amount in payment token to commit"
        }
      },
      "constructor": {
        "params": {
          "_end": "End timestamp",
          "_paymentToken": "Token accepted as payment",
          "_rate": "token:paymentToken exchange rate, multiplied by 10e18",
          "_start": "Start timestamp"
        }
      },
      "getRoleAdmin(bytes32)": {
        "details": "Returns the admin role that controls `role`. See {grantRole} and {revokeRole}. To change a role's admin, use {_setRoleAdmin}."
      },
      "grantRole(bytes32,address)": {
        "details": "Grants `role` to `account`. If `account` had not been already granted `role`, emits a {RoleGranted} event. Requirements: - the caller must have ``role``'s admin role."
      },
      "hasRole(bytes32,address)": {
        "details": "Returns `true` if `account` has been granted `role`."
      },
      "investorAmountAt(uint256)": {
        "returns": {
          "_0": "Amount of the nth investor"
        }
      },
      "investorCount()": {
        "returns": {
          "_0": "How many individual investors exist"
        }
      },
      "refund(address)": {
        "params": {
          "to": "Address to refund to"
        }
      },
      "refundAmount(address)": {
        "params": {
          "to": "The address to query"
        },
        "returns": {
          "_0": "The currently claimable amount"
        }
      },
      "renounceRole(bytes32,address)": {
        "details": "Revokes `role` from the calling account. Roles are often managed via {grantRole} and {revokeRole}: this function's purpose is to provide a mechanism for accounts to lose their privileges if they are compromised (such as when a trusted device is misplaced). If the calling account had been revoked `role`, emits a {RoleRevoked} event. Requirements: - the caller must be `account`."
      },
      "revokeRole(bytes32,address)": {
        "details": "Revokes `role` from `account`. If `account` had been granted `role`, emits a {RoleRevoked} event. Requirements: - the caller must have ``role``'s admin role."
      },
      "risingTide_isValidCap()": {
        "returns": {
          "_0": "true if current cap is already validated"
        }
      },
      "risingTide_totalAllocatedUncapped()": {
        "returns": {
          "_0": "Total amount invested"
        }
      },
      "risingTide_totalCap()": {
        "returns": {
          "_0": "amount corresponding to the total supply available for distribution"
        }
      },
      "risingTide_validating()": {
        "returns": {
          "_0": "true if validation of current cap is still ongoing"
        }
      },
      "setIndividualCap(uint256)": {
        "details": "Can only be called once",
        "params": {
          "_cap": "new individual cap"
        }
      },
      "supportsInterface(bytes4)": {
        "details": "See {IERC165-supportsInterface}."
      }
    },
    "version": 1
  },
  "userdoc": {
    "events": {
      "Purchase(address,uint256,uint256)": {
        "notice": "Emitted for every public purchase"
      },
      "Refund(address,uint256)": {
        "notice": "Emitted for every refund given"
      }
    },
    "kind": "user",
    "methods": {
      "CAP_VALIDATION_GAS_LIMIT()": {
        "notice": "Min gas required to run one more cap validation iteration"
      },
      "_investorCount()": {
        "notice": "total unique investors"
      },
      "allocation(address)": {
        "notice": "Returns the amount of tokens that have been allocated in this sale for a given address (applying the individual cap)"
      },
      "buy(uint256)": {
        "notice": "Commits an amount of $aUSD to buy $CTND"
      },
      "end()": {
        "notice": "Timestamp at which sale ends"
      },
      "fractalIdToAddress(bytes32)": {
        "notice": "Fractal Id associated with the address to be used in this sale"
      },
      "individualCap()": {
        "notice": "The currently set cap Maximum amount of tokens that each buyer can actually get"
      },
      "paymentToken()": {
        "notice": "See {ISale.paymentToken}"
      },
      "paymentTokenToToken(uint256)": {
        "notice": "How many $CTND will be received for the given payment amount"
      },
      "rate()": {
        "notice": "Fixed price of token, expressed in paymentToken amount"
      },
      "refund(address)": {
        "notice": "Refunds currently refundable amount for the given address"
      },
      "refundAmount(address)": {
        "notice": "Returns the amount of tokens that are meant for refund due to the rising tide mechanism"
      },
      "registry()": {
        "notice": "Fractal Registry address"
      },
      "risingTideCache()": {
        "notice": "Calculation cache"
      },
      "risingTideState()": {
        "notice": "Current state"
      },
      "risingTide_totalAllocatedUncapped()": {
        "notice": "How many allocations have been made, regardless of the future individual cap"
      },
      "risingTide_totalCap()": {
        "notice": "How many tokens are to be distributed in total"
      },
      "risingTide_validate()": {
        "notice": "Continues a pending validation of the individual cap"
      },
      "setIndividualCap(uint256)": {
        "notice": "Sets the individual cap"
      },
      "start()": {
        "notice": "Timestamp at which sale starts"
      },
      "tokenToPaymentToken(uint256)": {
        "notice": "How many $aUSD will be received for the given $CTND amount"
      },
      "totalUncappedAllocations()": {
        "notice": "How many tokens have been allocated, before cap calculation"
      },
      "withdraw()": {
        "notice": "Allows a privileged account to withdraw payment tokens once the sale is overDoes not allow withdrawing funds meant for refunds"
      },
      "withdrawn()": {
        "notice": "Did the admins already withdraw all aUSD from sales"
      }
    },
    "notice": "Citizend token sale contract Users interact with this contract to deposit $aUSD in exchange for $CTND. The contract should hold all $CTND tokens meant to be distributed in the public sale",
    "version": 1
  },
  "storageLayout": {
    "storage": [
      {
        "astId": 2297,
        "contract": "contracts/token/Sale.sol:Sale",
        "label": "risingTideState",
        "offset": 0,
        "slot": "0",
        "type": "t_enum(RisingTideState)2280"
      },
      {
        "astId": 2301,
        "contract": "contracts/token/Sale.sol:Sale",
        "label": "risingTideCache",
        "offset": 0,
        "slot": "1",
        "type": "t_struct(RisingTideCache)2289_storage"
      },
      {
        "astId": 2304,
        "contract": "contracts/token/Sale.sol:Sale",
        "label": "individualCap",
        "offset": 0,
        "slot": "5",
        "type": "t_uint256"
      },
      {
        "astId": 24,
        "contract": "contracts/token/Sale.sol:Sale",
        "label": "_roles",
        "offset": 0,
        "slot": "6",
        "type": "t_mapping(t_bytes32,t_struct(RoleData)19_storage)"
      },
      {
        "astId": 484,
        "contract": "contracts/token/Sale.sol:Sale",
        "label": "_status",
        "offset": 0,
        "slot": "7",
        "type": "t_uint256"
      },
      {
        "astId": 8307,
        "contract": "contracts/token/Sale.sol:Sale",
        "label": "accounts",
        "offset": 0,
        "slot": "8",
        "type": "t_mapping(t_address,t_struct(Account)8253_storage)"
      },
      {
        "astId": 8312,
        "contract": "contracts/token/Sale.sol:Sale",
        "label": "investorByIndex",
        "offset": 0,
        "slot": "9",
        "type": "t_mapping(t_uint256,t_address)"
      },
      {
        "astId": 8315,
        "contract": "contracts/token/Sale.sol:Sale",
        "label": "_investorCount",
        "offset": 0,
        "slot": "10",
        "type": "t_uint256"
      },
      {
        "astId": 8318,
        "contract": "contracts/token/Sale.sol:Sale",
        "label": "totalUncappedAllocations",
        "offset": 0,
        "slot": "11",
        "type": "t_uint256"
      },
      {
        "astId": 8324,
        "contract": "contracts/token/Sale.sol:Sale",
        "label": "withdrawn",
        "offset": 0,
        "slot": "12",
        "type": "t_bool"
      },
      {
        "astId": 8329,
        "contract": "contracts/token/Sale.sol:Sale",
        "label": "fractalIdToAddress",
        "offset": 0,
        "slot": "13",
        "type": "t_mapping(t_bytes32,t_address)"
      }
    ],
    "types": {
      "t_address": {
        "encoding": "inplace",
        "label": "address",
        "numberOfBytes": "20"
      },
      "t_bool": {
        "encoding": "inplace",
        "label": "bool",
        "numberOfBytes": "1"
      },
      "t_bytes32": {
        "encoding": "inplace",
        "label": "bytes32",
        "numberOfBytes": "32"
      },
      "t_enum(RisingTideState)2280": {
        "encoding": "inplace",
        "label": "enum RisingTide.RisingTideState",
        "numberOfBytes": "1"
      },
      "t_mapping(t_address,t_bool)": {
        "encoding": "mapping",
        "key": "t_address",
        "label": "mapping(address => bool)",
        "numberOfBytes": "32",
        "value": "t_bool"
      },
      "t_mapping(t_address,t_struct(Account)8253_storage)": {
        "encoding": "mapping",
        "key": "t_address",
        "label": "mapping(address => struct Sale.Account)",
        "numberOfBytes": "32",
        "value": "t_struct(Account)8253_storage"
      },
      "t_mapping(t_bytes32,t_address)": {
        "encoding": "mapping",
        "key": "t_bytes32",
        "label": "mapping(bytes32 => address)",
        "numberOfBytes": "32",
        "value": "t_address"
      },
      "t_mapping(t_bytes32,t_struct(RoleData)19_storage)": {
        "encoding": "mapping",
        "key": "t_bytes32",
        "label": "mapping(bytes32 => struct AccessControl.RoleData)",
        "numberOfBytes": "32",
        "value": "t_struct(RoleData)19_storage"
      },
      "t_mapping(t_uint256,t_address)": {
        "encoding": "mapping",
        "key": "t_uint256",
        "label": "mapping(uint256 => address)",
        "numberOfBytes": "32",
        "value": "t_address"
      },
      "t_struct(Account)8253_storage": {
        "encoding": "inplace",
        "label": "struct Sale.Account",
        "members": [
          {
            "astId": 8250,
            "contract": "contracts/token/Sale.sol:Sale",
            "label": "uncappedAllocation",
            "offset": 0,
            "slot": "0",
            "type": "t_uint256"
          },
          {
            "astId": 8252,
            "contract": "contracts/token/Sale.sol:Sale",
            "label": "refunded",
            "offset": 0,
            "slot": "1",
            "type": "t_bool"
          }
        ],
        "numberOfBytes": "64"
      },
      "t_struct(RisingTideCache)2289_storage": {
        "encoding": "inplace",
        "label": "struct RisingTide.RisingTideCache",
        "members": [
          {
            "astId": 2282,
            "contract": "contracts/token/Sale.sol:Sale",
            "label": "index",
            "offset": 0,
            "slot": "0",
            "type": "t_uint256"
          },
          {
            "astId": 2284,
            "contract": "contracts/token/Sale.sol:Sale",
            "label": "sumForCap",
            "offset": 0,
            "slot": "1",
            "type": "t_uint256"
          },
          {
            "astId": 2286,
            "contract": "contracts/token/Sale.sol:Sale",
            "label": "sumForNextCap",
            "offset": 0,
            "slot": "2",
            "type": "t_uint256"
          },
          {
            "astId": 2288,
            "contract": "contracts/token/Sale.sol:Sale",
            "label": "largest",
            "offset": 0,
            "slot": "3",
            "type": "t_uint256"
          }
        ],
        "numberOfBytes": "128"
      },
      "t_struct(RoleData)19_storage": {
        "encoding": "inplace",
        "label": "struct AccessControl.RoleData",
        "members": [
          {
            "astId": 16,
            "contract": "contracts/token/Sale.sol:Sale",
            "label": "members",
            "offset": 0,
            "slot": "0",
            "type": "t_mapping(t_address,t_bool)"
          },
          {
            "astId": 18,
            "contract": "contracts/token/Sale.sol:Sale",
            "label": "adminRole",
            "offset": 0,
            "slot": "1",
            "type": "t_bytes32"
          }
        ],
        "numberOfBytes": "64"
      },
      "t_uint256": {
        "encoding": "inplace",
        "label": "uint256",
        "numberOfBytes": "32"
      }
    }
  }
}