{
  "address": "0xcAA33467880DEA2e4851667dECad78c5BeF190fE",
  "abi": [
    {
      "inputs": [
        {
          "internalType": "address",
          "name": "_paymentToken",
          "type": "address"
        },
        {
          "internalType": "uint256",
          "name": "_rate",
          "type": "uint256"
        },
        {
          "internalType": "uint256",
          "name": "_start",
          "type": "uint256"
        },
        {
          "internalType": "uint256",
          "name": "_end",
          "type": "uint256"
        },
        {
          "internalType": "uint256",
          "name": "_totalTokensForSale",
          "type": "uint256"
        },
        {
          "internalType": "address",
          "name": "_registry",
          "type": "address"
        }
      ],
      "stateMutability": "nonpayable",
      "type": "constructor"
    },
    {
      "anonymous": false,
      "inputs": [
        {
          "indexed": true,
          "internalType": "address",
          "name": "from",
          "type": "address"
        },
        {
          "indexed": false,
          "internalType": "uint256",
          "name": "paymentTokenAmount",
          "type": "uint256"
        },
        {
          "indexed": false,
          "internalType": "uint256",
          "name": "tokenAmount",
          "type": "uint256"
        }
      ],
      "name": "Purchase",
      "type": "event"
    },
    {
      "anonymous": false,
      "inputs": [
        {
          "indexed": true,
          "internalType": "address",
          "name": "to",
          "type": "address"
        },
        {
          "indexed": false,
          "internalType": "uint256",
          "name": "paymentTokenAmount",
          "type": "uint256"
        }
      ],
      "name": "Refund",
      "type": "event"
    },
    {
      "anonymous": false,
      "inputs": [
        {
          "indexed": true,
          "internalType": "bytes32",
          "name": "role",
          "type": "bytes32"
        },
        {
          "indexed": true,
          "internalType": "bytes32",
          "name": "previousAdminRole",
          "type": "bytes32"
        },
        {
          "indexed": true,
          "internalType": "bytes32",
          "name": "newAdminRole",
          "type": "bytes32"
        }
      ],
      "name": "RoleAdminChanged",
      "type": "event"
    },
    {
      "anonymous": false,
      "inputs": [
        {
          "indexed": true,
          "internalType": "bytes32",
          "name": "role",
          "type": "bytes32"
        },
        {
          "indexed": true,
          "internalType": "address",
          "name": "account",
          "type": "address"
        },
        {
          "indexed": true,
          "internalType": "address",
          "name": "sender",
          "type": "address"
        }
      ],
      "name": "RoleGranted",
      "type": "event"
    },
    {
      "anonymous": false,
      "inputs": [
        {
          "indexed": true,
          "internalType": "bytes32",
          "name": "role",
          "type": "bytes32"
        },
        {
          "indexed": true,
          "internalType": "address",
          "name": "account",
          "type": "address"
        },
        {
          "indexed": true,
          "internalType": "address",
          "name": "sender",
          "type": "address"
        }
      ],
      "name": "RoleRevoked",
      "type": "event"
    },
    {
      "anonymous": false,
      "inputs": [
        {
          "indexed": true,
          "internalType": "address",
          "name": "to",
          "type": "address"
        },
        {
          "indexed": false,
          "internalType": "uint256",
          "name": "paymentTokenAmount",
          "type": "uint256"
        }
      ],
      "name": "Withdraw",
      "type": "event"
    },
    {
      "inputs": [],
      "name": "CAP_VALIDATION_GAS_LIMIT",
      "outputs": [
        {
          "internalType": "uint256",
          "name": "",
          "type": "uint256"
        }
      ],
      "stateMutability": "view",
      "type": "function"
    },
    {
      "inputs": [],
      "name": "CAP_VALIDATOR_ROLE",
      "outputs": [
        {
          "internalType": "bytes32",
          "name": "",
          "type": "bytes32"
        }
      ],
      "stateMutability": "view",
      "type": "function"
    },
    {
      "inputs": [],
      "name": "DEFAULT_ADMIN_ROLE",
      "outputs": [
        {
          "internalType": "bytes32",
          "name": "",
          "type": "bytes32"
        }
      ],
      "stateMutability": "view",
      "type": "function"
    },
    {
      "inputs": [],
      "name": "_investorCount",
      "outputs": [
        {
          "internalType": "uint256",
          "name": "",
          "type": "uint256"
        }
      ],
      "stateMutability": "view",
      "type": "function"
    },
    {
      "inputs": [],
      "name": "allocated",
      "outputs": [
        {
          "internalType": "uint256",
          "name": "",
          "type": "uint256"
        }
      ],
      "stateMutability": "view",
      "type": "function"
    },
    {
      "inputs": [
        {
          "internalType": "address",
          "name": "_to",
          "type": "address"
        }
      ],
      "name": "allocation",
      "outputs": [
        {
          "internalType": "uint256",
          "name": "",
          "type": "uint256"
        }
      ],
      "stateMutability": "view",
      "type": "function"
    },
    {
      "inputs": [
        {
          "internalType": "uint256",
          "name": "_amount",
          "type": "uint256"
        }
      ],
      "name": "buy",
      "outputs": [],
      "stateMutability": "nonpayable",
      "type": "function"
    },
    {
      "inputs": [],
      "name": "end",
      "outputs": [
        {
          "internalType": "uint256",
          "name": "",
          "type": "uint256"
        }
      ],
      "stateMutability": "view",
      "type": "function"
    },
    {
      "inputs": [
        {
          "internalType": "bytes32",
          "name": "",
          "type": "bytes32"
        }
      ],
      "name": "fractalIdToAddress",
      "outputs": [
        {
          "internalType": "address",
          "name": "",
          "type": "address"
        }
      ],
      "stateMutability": "view",
      "type": "function"
    },
    {
      "inputs": [
        {
          "internalType": "bytes32",
          "name": "role",
          "type": "bytes32"
        }
      ],
      "name": "getRoleAdmin",
      "outputs": [
        {
          "internalType": "bytes32",
          "name": "",
          "type": "bytes32"
        }
      ],
      "stateMutability": "view",
      "type": "function"
    },
    {
      "inputs": [
        {
          "internalType": "bytes32",
          "name": "role",
          "type": "bytes32"
        },
        {
          "internalType": "address",
          "name": "account",
          "type": "address"
        }
      ],
      "name": "grantRole",
      "outputs": [],
      "stateMutability": "nonpayable",
      "type": "function"
    },
    {
      "inputs": [
        {
          "internalType": "bytes32",
          "name": "role",
          "type": "bytes32"
        },
        {
          "internalType": "address",
          "name": "account",
          "type": "address"
        }
      ],
      "name": "hasRole",
      "outputs": [
        {
          "internalType": "bool",
          "name": "",
          "type": "bool"
        }
      ],
      "stateMutability": "view",
      "type": "function"
    },
    {
      "inputs": [],
      "name": "individualCap",
      "outputs": [
        {
          "internalType": "uint256",
          "name": "",
          "type": "uint256"
        }
      ],
      "stateMutability": "view",
      "type": "function"
    },
    {
      "inputs": [
        {
          "internalType": "uint256",
          "name": "i",
          "type": "uint256"
        }
      ],
      "name": "investorAmountAt",
      "outputs": [
        {
          "internalType": "uint256",
          "name": "",
          "type": "uint256"
        }
      ],
      "stateMutability": "view",
      "type": "function"
    },
    {
      "inputs": [],
      "name": "investorCount",
      "outputs": [
        {
          "internalType": "uint256",
          "name": "",
          "type": "uint256"
        }
      ],
      "stateMutability": "view",
      "type": "function"
    },
    {
      "inputs": [],
      "name": "paymentToken",
      "outputs": [
        {
          "internalType": "address",
          "name": "",
          "type": "address"
        }
      ],
      "stateMutability": "view",
      "type": "function"
    },
    {
      "inputs": [
        {
          "internalType": "uint256",
          "name": "_paymentAmount",
          "type": "uint256"
        }
      ],
      "name": "paymentTokenToToken",
      "outputs": [
        {
          "internalType": "uint256",
          "name": "",
          "type": "uint256"
        }
      ],
      "stateMutability": "view",
      "type": "function"
    },
    {
      "inputs": [],
      "name": "rate",
      "outputs": [
        {
          "internalType": "uint256",
          "name": "",
          "type": "uint256"
        }
      ],
      "stateMutability": "view",
      "type": "function"
    },
    {
      "inputs": [
        {
          "internalType": "address",
          "name": "to",
          "type": "address"
        }
      ],
      "name": "refund",
      "outputs": [],
      "stateMutability": "nonpayable",
      "type": "function"
    },
    {
      "inputs": [
        {
          "internalType": "address",
          "name": "to",
          "type": "address"
        }
      ],
      "name": "refundAmount",
      "outputs": [
        {
          "internalType": "uint256",
          "name": "",
          "type": "uint256"
        }
      ],
      "stateMutability": "view",
      "type": "function"
    },
    {
      "inputs": [],
      "name": "registry",
      "outputs": [
        {
          "internalType": "address",
          "name": "",
          "type": "address"
        }
      ],
      "stateMutability": "view",
      "type": "function"
    },
    {
      "inputs": [
        {
          "internalType": "bytes32",
          "name": "role",
          "type": "bytes32"
        },
        {
          "internalType": "address",
          "name": "account",
          "type": "address"
        }
      ],
      "name": "renounceRole",
      "outputs": [],
      "stateMutability": "nonpayable",
      "type": "function"
    },
    {
      "inputs": [
        {
          "internalType": "bytes32",
          "name": "role",
          "type": "bytes32"
        },
        {
          "internalType": "address",
          "name": "account",
          "type": "address"
        }
      ],
      "name": "revokeRole",
      "outputs": [],
      "stateMutability": "nonpayable",
      "type": "function"
    },
    {
      "inputs": [],
      "name": "risingTideCache",
      "outputs": [
        {
          "internalType": "uint256",
          "name": "index",
          "type": "uint256"
        },
        {
          "internalType": "uint256",
          "name": "sumForCap",
          "type": "uint256"
        },
        {
          "internalType": "uint256",
          "name": "sumForNextCap",
          "type": "uint256"
        },
        {
          "internalType": "uint256",
          "name": "largest",
          "type": "uint256"
        }
      ],
      "stateMutability": "view",
      "type": "function"
    },
    {
      "inputs": [],
      "name": "risingTideState",
      "outputs": [
        {
          "internalType": "enum RisingTide.RisingTideState",
          "name": "",
          "type": "uint8"
        }
      ],
      "stateMutability": "view",
      "type": "function"
    },
    {
      "inputs": [],
      "name": "risingTide_isValidCap",
      "outputs": [
        {
          "internalType": "bool",
          "name": "",
          "type": "bool"
        }
      ],
      "stateMutability": "view",
      "type": "function"
    },
    {
      "inputs": [],
      "name": "risingTide_totalAllocatedUncapped",
      "outputs": [
        {
          "internalType": "uint256",
          "name": "",
          "type": "uint256"
        }
      ],
      "stateMutability": "view",
      "type": "function"
    },
    {
      "inputs": [],
      "name": "risingTide_totalCap",
      "outputs": [
        {
          "internalType": "uint256",
          "name": "",
          "type": "uint256"
        }
      ],
      "stateMutability": "view",
      "type": "function"
    },
    {
      "inputs": [],
      "name": "risingTide_validate",
      "outputs": [],
      "stateMutability": "nonpayable",
      "type": "function"
    },
    {
      "inputs": [],
      "name": "risingTide_validating",
      "outputs": [
        {
          "internalType": "bool",
          "name": "",
          "type": "bool"
        }
      ],
      "stateMutability": "view",
      "type": "function"
    },
    {
      "inputs": [
        {
          "internalType": "uint256",
          "name": "_cap",
          "type": "uint256"
        }
      ],
      "name": "setIndividualCap",
      "outputs": [],
      "stateMutability": "nonpayable",
      "type": "function"
    },
    {
      "inputs": [],
      "name": "start",
      "outputs": [
        {
          "internalType": "uint256",
          "name": "",
          "type": "uint256"
        }
      ],
      "stateMutability": "view",
      "type": "function"
    },
    {
      "inputs": [
        {
          "internalType": "bytes4",
          "name": "interfaceId",
          "type": "bytes4"
        }
      ],
      "name": "supportsInterface",
      "outputs": [
        {
          "internalType": "bool",
          "name": "",
          "type": "bool"
        }
      ],
      "stateMutability": "view",
      "type": "function"
    },
    {
      "inputs": [
        {
          "internalType": "uint256",
          "name": "_tokenAmount",
          "type": "uint256"
        }
      ],
      "name": "tokenToPaymentToken",
      "outputs": [
        {
          "internalType": "uint256",
          "name": "",
          "type": "uint256"
        }
      ],
      "stateMutability": "view",
      "type": "function"
    },
    {
      "inputs": [],
      "name": "totalTokensForSale",
      "outputs": [
        {
          "internalType": "uint256",
          "name": "",
          "type": "uint256"
        }
      ],
      "stateMutability": "view",
      "type": "function"
    },
    {
      "inputs": [],
      "name": "totalUncappedAllocations",
      "outputs": [
        {
          "internalType": "uint256",
          "name": "",
          "type": "uint256"
        }
      ],
      "stateMutability": "view",
      "type": "function"
    },
    {
      "inputs": [
        {
          "internalType": "address",
          "name": "_to",
          "type": "address"
        }
      ],
      "name": "uncappedAllocation",
      "outputs": [
        {
          "internalType": "uint256",
          "name": "",
          "type": "uint256"
        }
      ],
      "stateMutability": "view",
      "type": "function"
    },
    {
      "inputs": [],
      "name": "withdraw",
      "outputs": [],
      "stateMutability": "nonpayable",
      "type": "function"
    },
    {
      "inputs": [],
      "name": "withdrawn",
      "outputs": [
        {
          "internalType": "bool",
          "name": "",
          "type": "bool"
        }
      ],
      "stateMutability": "view",
      "type": "function"
    }
  ],
  "transactionHash": "0xc466a4f3476b1c2929333df32c03593a7d0d59a6453e6faad070569f760af646",
  "args": [
    "0x0000000000000000000100000000000000000001",
    "300000000000",
    1651854600,
    1651856400,
    "10000000000000000000",
    "0xDd697D73Fc8dE870B7FDffbB1652795fD59A6Ec8"
  ],
  "numDeployments": 1,
  "solcInputHash": "1fde58679b23c62ec20958759afe35dc",
  "bytecode": "0x6101606040523480156200001257600080fd5b506040516200249038038062002490833981016040819052620000359162000357565b6001600755846200007d5760405162461bcd60e51b815260206004820152600d60248201526c63616e2774206265207a65726f60981b60448201526064015b60405180910390fd5b6001600160a01b038616620000c55760405162461bcd60e51b815260206004820152600d60248201526c63616e2774206265207a65726f60981b604482015260640162000074565b60008411620001075760405162461bcd60e51b815260206004820152600d60248201526c63616e2774206265207a65726f60981b604482015260640162000074565b838311620001585760405162461bcd60e51b815260206004820152601760248201527f656e64206d757374206265206166746572207374617274000000000000000000604482015260640162000074565b600082116200019e5760405162461bcd60e51b81526020600482015260116024820152700746f74616c2063616e6e6f74206265203607c1b604482015260640162000074565b6001600160a01b03808716608081905260a087905260e0869052610100859052610120849052908216610140526040805163313ce56760e01b8152905163313ce567916004808201926020929091908290030181865afa15801562000207573d6000803e3d6000fd5b505050506040513d601f19601f820116820180604052508101906200022d9190620003b4565b6200023a90600a620004f3565b60c0526200024a60003362000282565b620002767f33ccb9ed30bc572500993b7ca8e527619cf334431f74b8ecd1c841304ef9c6033362000282565b50505050505062000504565b6200028e82826200030d565b620003095760008281526006602090815260408083206001600160a01b03851684529091529020805460ff19166001179055620002c83390565b6001600160a01b0316816001600160a01b0316837f2f8788117e7eff1d82e926ec794901d17c78024a50270940304540a733656f0d60405160405180910390a45b5050565b60008281526006602090815260408083206001600160a01b038516845290915290205460ff165b92915050565b80516001600160a01b03811681146200035257600080fd5b919050565b60008060008060008060c087890312156200037157600080fd5b6200037c876200033a565b955060208701519450604087015193506060870151925060808701519150620003a860a088016200033a565b90509295509295509295565b600060208284031215620003c757600080fd5b815160ff81168114620003d957600080fd5b9392505050565b634e487b7160e01b600052601160045260246000fd5b600181815b80851115620004375781600019048211156200041b576200041b620003e0565b808516156200042957918102915b93841c9390800290620003fb565b509250929050565b600082620004505750600162000334565b816200045f5750600062000334565b81600181146200047857600281146200048357620004a3565b600191505062000334565b60ff841115620004975762000497620003e0565b50506001821b62000334565b5060208310610133831016604e8410600b8410161715620004c8575081810a62000334565b620004d48383620003f6565b8060001904821115620004eb57620004eb620003e0565b029392505050565b6000620003d960ff8416836200043f565b60805160a05160c05160e051610100516101205161014051611ec8620005c8600039600081816103e201528181610df50152610f4501526000818161037d0152818161040601528181610a2601526116640152600081816105bc015281816107b201528181610c0a0152610d240152600081816104c50152610cf901526000818161097b01526111880152600081816102d40152818161095701526111ac015260008181610310015281816108d30152818161115301526113690152611ec86000f3fe608060405234801561001057600080fd5b506004361061023d5760003560e01c8063acde5d281161013b578063d0a24e47116100b8578063ed7196bc1161007c578063ed7196bc146105af578063efbe1c1c146105b7578063f00a46f3146105de578063fa89401a146105f1578063fca89df01461060457600080fd5b8063d0a24e4714610522578063d547741f1461054b578063d7e64c001461055e578063d96a094a14610566578063e8448f021461057957600080fd5b8063c0cd9ce2116100ff578063c0cd9ce2146104e7578063c4878883146104ef578063c80ec522146104f8578063cbf2cc2b14610505578063cd2b30261461050f57600080fd5b8063acde5d281461046b578063b03aee4e1461047e578063b304b2e1146104a5578063b81b8630146104ad578063be9a6555146104c057600080fd5b806336568abe116101c9578063711a9f351161018d578063711a9f35146103d55780637b103999146103dd5780637b8db5861461040457806391d148541461042a578063a217fddf1461046357600080fd5b806336568abe1461034a5780633ccfd60b1461035d578063533319331461036557806360219c7b1461037857806369d917c91461039f57600080fd5b80631c120bc1116102105780631c120bc1146102a4578063248a9ca3146102ac5780632c4e722e146102cf5780632f2ff15d146102f65780633013ce291461030b57600080fd5b806301ffc9a7146102425780630276650b1461026a57806318dfcf7b146102815780631a15c6d71461028a575b600080fd5b610255610250366004611b9f565b61062d565b60405190151581526020015b60405180910390f35b61027360055481565b604051908152602001610261565b610273600a5481565b6000546102979060ff1681565b6040516102619190611bdf565b600b54610273565b6102736102ba366004611c07565b60009081526006602052604090206001015490565b6102737f000000000000000000000000000000000000000000000000000000000000000081565b610309610304366004611c3c565b610658565b005b6103327f000000000000000000000000000000000000000000000000000000000000000081565b6040516001600160a01b039091168152602001610261565b610309610358366004611c3c565b610683565b610309610706565b610273610373366004611c07565b610953565b6102737f000000000000000000000000000000000000000000000000000000000000000081565b6102736103ad366004611c07565b6000908152600960209081526040808320546001600160a01b03168352600890915290205490565b6102556109aa565b6103327f000000000000000000000000000000000000000000000000000000000000000081565b7f0000000000000000000000000000000000000000000000000000000000000000610273565b610255610438366004611c3c565b60009182526006602090815260408084206001600160a01b0393909316845291905290205460ff1690565b610273600081565b610273610479366004611c68565b6109cc565b6102737f33ccb9ed30bc572500993b7ca8e527619cf334431f74b8ecd1c841304ef9c60381565b610273610a1c565b6102736104bb366004611c68565b610a4f565b6102737f000000000000000000000000000000000000000000000000000000000000000081565b610309610a71565b610273600b5481565b600c546102559060ff1681565b610273620186a081565b61030961051d366004611c07565b610bdd565b610273610530366004611c68565b6001600160a01b031660009081526008602052604090205490565b610309610559366004611c3c565b610cd1565b600a54610273565b610309610574366004611c07565b610cf7565b60015460025460035460045461058f9392919084565b604080519485526020850193909352918301526060820152608001610261565b61025561117b565b6102737f000000000000000000000000000000000000000000000000000000000000000081565b6102736105ec366004611c07565b611184565b6103096105ff366004611c68565b6111d1565b610332610612366004611c07565b600d602052600090815260409020546001600160a01b031681565b60006001600160e01b0319821663854aabcb60e01b1480610652575061065282611426565b92915050565b600082815260066020526040902060010154610674813361145b565b61067e83836114db565b505050565b6001600160a01b03811633146106f85760405162461bcd60e51b815260206004820152602f60248201527f416363657373436f6e74726f6c3a2063616e206f6e6c792072656e6f756e636560448201526e103937b632b9903337b91039b2b63360891b60648201526084015b60405180910390fd5b610702828261157d565b5050565b6000610712813361145b565b61071a6109aa565b6107585760405162461bcd60e51b815260206004820152600f60248201526e18d85c081b9bdd081e595d081cd95d608a1b60448201526064016106ef565b600260075414156107ab5760405162461bcd60e51b815260206004820152601f60248201527f5265656e7472616e637947756172643a207265656e7472616e742063616c6c0060448201526064016106ef565b60026007557f000000000000000000000000000000000000000000000000000000000000000042116108145760405162461bcd60e51b81526020600482015260126024820152711cd85b19481b9bdd08195b991959081e595d60721b60448201526064016106ef565b600c5460ff161561085b5760405162461bcd60e51b815260206004820152601160248201527030b63932b0b23c903bb4ba34323930bbb760791b60448201526064016106ef565b600c805460ff191660011790556000610872610a1c565b9050600061087f82611184565b60405181815290915033907f884edad9ce6fa2440d8a54cc123490eb96d2768479d49ff9c7366125a94243649060200160405180910390a260405163a9059cbb60e01b8152336004820152602481018290527f00000000000000000000000000000000000000000000000000000000000000006001600160a01b03169063a9059cbb906044016020604051808303816000875af1158015610924573d6000803e3d6000fd5b505050506040513d601f19601f820116820180604052508101906109489190611c83565b505060016007555050565b60007f00000000000000000000000000000000000000000000000000000000000000006109a07f000000000000000000000000000000000000000000000000000000000000000084611cbb565b6106529190611cda565b600060025b60005460ff1660038111156109c6576109c6611bc9565b14905090565b60006109d66109aa565b6109e257506000919050565b6001600160a01b03821660009081526008602052604081205490610a0584610a4f565b9050610a146105ec8284611cfc565b949350505050565b6000610a4a600b547f0000000000000000000000000000000000000000000000000000000000000000611600565b905090565b6001600160a01b03811660009081526008602052604081205461065290611618565b600160005460ff166003811115610a8a57610a8a611bc9565b14610a9457600080fd5b60408051608081018252600154815260025460208201526003549181019190915260045460608201526000610ac8600a5490565b6005549091505b825182118015610ae15750620186a05a115b15610b7d5782516000908152600960209081526040808320546001600160a01b031683526008909152902054610b178183611600565b84602001818151610b289190611d13565b905250610b40610b39836001611d13565b8290611600565b84604001818151610b519190611d13565b9052506060840151610b639082611643565b60608501525082518390610b7690611d2b565b9052610acf565b8251600181905560208401516002556040840151600355606084015160045582141561067e576000610baf8285611652565b90508015610bc9576000805460ff19166002179055610bd7565b6000805460ff191660031790555b50505050565b7f33ccb9ed30bc572500993b7ca8e527619cf334431f74b8ecd1c841304ef9c603610c08813361145b565b7f00000000000000000000000000000000000000000000000000000000000000004211610c675760405162461bcd60e51b815260206004820152600d60248201526c39b0b632903737ba1037bb32b960991b60448201526064016106ef565b60026007541415610cba5760405162461bcd60e51b815260206004820152601f60248201527f5265656e7472616e637947756172643a207265656e7472616e742063616c6c0060448201526064016106ef565b6002600755610cc8826116ee565b50506001600755565b600082815260066020526040902060010154610ced813361145b565b61067e838361157d565b7f00000000000000000000000000000000000000000000000000000000000000004210158015610d4757507f00000000000000000000000000000000000000000000000000000000000000004211155b610d855760405162461bcd60e51b815260206004820152600f60248201526e73616c65206e6f742061637469766560881b60448201526064016106ef565b60026007541415610dd85760405162461bcd60e51b815260206004820152601f60248201527f5265656e7472616e637947756172643a207265656e7472616e742063616c6c0060448201526064016106ef565b60026007556040516368c610b760e11b81523360048201526000907f00000000000000000000000000000000000000000000000000000000000000006001600160a01b03169063d18c216e90602401602060405180830381865afa158015610e44573d6000803e3d6000fd5b505050506040513d601f19601f82011682018060405250810190610e689190611d46565b905080610ea85760405162461bcd60e51b815260206004820152600e60248201526d1b9bdd081c9959da5cdd195c995960921b60448201526064016106ef565b6000818152600d60205260409020546001600160a01b03161580610ee257506000818152600d60205260409020546001600160a01b031633145b610f2e5760405162461bcd60e51b815260206004820181905260248201527f6964207265676973746572656420746f20616e6f74686572206164647265737360448201526064016106ef565b60405163a535f5e960e01b81526001600160a01b037f0000000000000000000000000000000000000000000000000000000000000000169063a535f5e990610f9a90849060040190815260406020820181905260049082015263706c757360e01b606082015260800190565b602060405180830381865afa158015610fb7573d6000803e3d6000fd5b505050506040513d601f19601f82011682018060405250810190610fdb9190611c83565b6110165760405162461bcd60e51b815260206004820152600c60248201526b6e6f742066756c6c206b796360a01b60448201526064016106ef565b600061102183611184565b9050600081116110635760405162461bcd60e51b815260206004820152600d60248201526c63616e2774206265207a65726f60981b60448201526064016106ef565b33600090815260086020526040902054806110ad57600a8054600090815260096020526040812080546001600160a01b03191633179055815491906110a783611d2b565b91905055505b33600090815260086020526040812080548692906110cc908490611d13565b9250508190555083600b60008282546110e59190611d13565b90915550506000838152600d602090815260409182902080546001600160a01b031916339081179091558251858152918201879052917f12cb4648cf3058b17ceeb33e579f8b0bc269fe0843f3900b8e24b6c54871703c910160405180910390a26109486001600160a01b037f0000000000000000000000000000000000000000000000000000000000000000163330856117c3565b600060016109af565b60007f00000000000000000000000000000000000000000000000000000000000000006109a07f000000000000000000000000000000000000000000000000000000000000000084611cbb565b6111d96109aa565b6112175760405162461bcd60e51b815260206004820152600f60248201526e18d85c081b9bdd081e595d081cd95d608a1b60448201526064016106ef565b6002600754141561126a5760405162461bcd60e51b815260206004820152601f60248201527f5265656e7472616e637947756172643a207265656e7472616e742063616c6c0060448201526064016106ef565b60026007556001600160a01b0381166000908152600860205260409020600181015460ff16156112cf5760405162461bcd60e51b815260206004820152601060248201526f185b1c9958591e481c99599d5b99195960821b60448201526064016106ef565b60006112da836109cc565b9050600081116113225760405162461bcd60e51b8152602060048201526013602482015272139bc81d1bdad95b9cc81d1bc81c99599d5b99606a1b60448201526064016106ef565b6001600160a01b03838116600081815260086020526040908190206001908101805460ff191690911790555163a9059cbb60e01b81526004810191909152602481018390527f00000000000000000000000000000000000000000000000000000000000000009091169063a9059cbb906044016020604051808303816000875af11580156113b4573d6000803e3d6000fd5b505050506040513d601f19601f820116820180604052508101906113d89190611c83565b50826001600160a01b03167fbb28353e4598c3b9199101a66e0989549b659a59a54d2c27fbb183f1932c8e6d8260405161141491815260200190565b60405180910390a25050600160075550565b60006001600160e01b03198216637965db0b60e01b148061065257506301ffc9a760e01b6001600160e01b0319831614610652565b60008281526006602090815260408083206001600160a01b038516845290915290205460ff1661070257611499816001600160a01b0316601461181d565b6114a483602061181d565b6040516020016114b5929190611d8b565b60408051601f198184030181529082905262461bcd60e51b82526106ef91600401611e00565b60008281526006602090815260408083206001600160a01b038516845290915290205460ff166107025760008281526006602090815260408083206001600160a01b03851684529091529020805460ff191660011790556115393390565b6001600160a01b0316816001600160a01b0316837f2f8788117e7eff1d82e926ec794901d17c78024a50270940304540a733656f0d60405160405180910390a45050565b60008281526006602090815260408083206001600160a01b038516845290915290205460ff16156107025760008281526006602090815260408083206001600160a01b0385168085529252808320805460ff1916905551339285917ff6391f5c32d9c69d2a47ea670b442974b53935d1edc7fd64eb21e047a839171b9190a45050565b600081831061160f5781611611565b825b9392505050565b60006116226109aa565b61162e57506000919050565b600554821061163f57505060055490565b5090565b600082821061160f5781611611565b60008061165e600b5490565b905060007f00000000000000000000000000000000000000000000000000000000000000009050818460600151111561169657600080fd5b81846020015111156116a757600080fd5b81846040015111156116b857600080fd5b8082116116ce5750505060608101518214610652565b8084604001511180156116e5575080846020015111155b92505050610652565b6000805460ff16600381111561170657611706611bc9565b14806117285750600360005460ff16600381111561172657611726611bc9565b145b6117745760405162461bcd60e51b815260206004820152601a60248201527f616c726561647920736574206f7220696e2070726f677265737300000000000060448201526064016106ef565b60058190556000805460ff1916600190811782556040805160808101825283815260208101849052908101839052606001829052819055600281905560038190556004556117c0610a71565b50565b604080516001600160a01b0385811660248301528416604482015260648082018490528251808303909101815260849091019091526020810180516001600160e01b03166323b872dd60e01b179052610bd79085906119b9565b6060600061182c836002611cbb565b611837906002611d13565b67ffffffffffffffff81111561184f5761184f611e33565b6040519080825280601f01601f191660200182016040528015611879576020820181803683370190505b509050600360fc1b8160008151811061189457611894611e49565b60200101906001600160f81b031916908160001a905350600f60fb1b816001815181106118c3576118c3611e49565b60200101906001600160f81b031916908160001a90535060006118e7846002611cbb565b6118f2906001611d13565b90505b600181111561196a576f181899199a1a9b1b9c1cb0b131b232b360811b85600f166010811061192657611926611e49565b1a60f81b82828151811061193c5761193c611e49565b60200101906001600160f81b031916908160001a90535060049490941c9361196381611e5f565b90506118f5565b5083156116115760405162461bcd60e51b815260206004820181905260248201527f537472696e67733a20686578206c656e67746820696e73756666696369656e7460448201526064016106ef565b6000611a0e826040518060400160405280602081526020017f5361666545524332303a206c6f772d6c6576656c2063616c6c206661696c6564815250856001600160a01b0316611a8b9092919063ffffffff16565b80519091501561067e5780806020019051810190611a2c9190611c83565b61067e5760405162461bcd60e51b815260206004820152602a60248201527f5361666545524332303a204552433230206f7065726174696f6e20646964206e6044820152691bdd081cdd58d8d9595960b21b60648201526084016106ef565b6060610a148484600085856001600160a01b0385163b611aed5760405162461bcd60e51b815260206004820152601d60248201527f416464726573733a2063616c6c20746f206e6f6e2d636f6e747261637400000060448201526064016106ef565b600080866001600160a01b03168587604051611b099190611e76565b60006040518083038185875af1925050503d8060008114611b46576040519150601f19603f3d011682016040523d82523d6000602084013e611b4b565b606091505b5091509150611b5b828286611b66565b979650505050505050565b60608315611b75575081611611565b825115611b855782518084602001fd5b8160405162461bcd60e51b81526004016106ef9190611e00565b600060208284031215611bb157600080fd5b81356001600160e01b03198116811461161157600080fd5b634e487b7160e01b600052602160045260246000fd5b6020810160048310611c0157634e487b7160e01b600052602160045260246000fd5b91905290565b600060208284031215611c1957600080fd5b5035919050565b80356001600160a01b0381168114611c3757600080fd5b919050565b60008060408385031215611c4f57600080fd5b82359150611c5f60208401611c20565b90509250929050565b600060208284031215611c7a57600080fd5b61161182611c20565b600060208284031215611c9557600080fd5b8151801515811461161157600080fd5b634e487b7160e01b600052601160045260246000fd5b6000816000190483118215151615611cd557611cd5611ca5565b500290565b600082611cf757634e487b7160e01b600052601260045260246000fd5b500490565b600082821015611d0e57611d0e611ca5565b500390565b60008219821115611d2657611d26611ca5565b500190565b6000600019821415611d3f57611d3f611ca5565b5060010190565b600060208284031215611d5857600080fd5b5051919050565b60005b83811015611d7a578181015183820152602001611d62565b83811115610bd75750506000910152565b7f416363657373436f6e74726f6c3a206163636f756e7420000000000000000000815260008351611dc3816017850160208801611d5f565b7001034b99036b4b9b9b4b733903937b6329607d1b6017918401918201528351611df4816028840160208801611d5f565b01602801949350505050565b6020815260008251806020840152611e1f816040850160208701611d5f565b601f01601f19169190910160400192915050565b634e487b7160e01b600052604160045260246000fd5b634e487b7160e01b600052603260045260246000fd5b600081611e6e57611e6e611ca5565b506000190190565b60008251611e88818460208701611d5f565b919091019291505056fea2646970667358221220c28111b3410659fe4342a26c6a38fee22fd84454a1412dd4f3e2ab6601c495f064736f6c634300080c0033",
  "devdoc": {
    "kind": "dev",
    "methods": {
      "allocated()": {
        "returns": {
          "_0": "the amount of tokens already allocated"
        }
      },
      "allocation(address)": {
        "params": {
          "_who": "The address to query"
        }
      },
      "buy(uint256)": {
        "details": "aUSD allowance must be previously set by spenderActual $CTND allocation is only available once individual cap is setNeeds to be approved by Fractal via the Registry",
        "params": {
          "_paymentAmount": "amount in payment token to commit"
        }
      },
      "constructor": {
        "params": {
          "_end": "End timestamp",
          "_paymentToken": "Token accepted as payment",
          "_rate": "token:paymentToken exchange rate, multiplied by 10e18",
          "_start": "Start timestamp"
        }
      },
      "getRoleAdmin(bytes32)": {
        "details": "Returns the admin role that controls `role`. See {grantRole} and {revokeRole}. To change a role's admin, use {_setRoleAdmin}."
      },
      "grantRole(bytes32,address)": {
        "details": "Grants `role` to `account`. If `account` had not been already granted `role`, emits a {RoleGranted} event. Requirements: - the caller must have ``role``'s admin role."
      },
      "hasRole(bytes32,address)": {
        "details": "Returns `true` if `account` has been granted `role`."
      },
      "investorAmountAt(uint256)": {
        "returns": {
          "_0": "Amount of the nth investor"
        }
      },
      "investorCount()": {
        "returns": {
          "_0": "How many individual investors exist"
        }
      },
      "refund(address)": {
        "params": {
          "to": "Address to refund to"
        }
      },
      "refundAmount(address)": {
        "params": {
          "to": "The address to query"
        },
        "returns": {
          "_0": "The currently claimable amount"
        }
      },
      "renounceRole(bytes32,address)": {
        "details": "Revokes `role` from the calling account. Roles are often managed via {grantRole} and {revokeRole}: this function's purpose is to provide a mechanism for accounts to lose their privileges if they are compromised (such as when a trusted device is misplaced). If the calling account had been revoked `role`, emits a {RoleRevoked} event. Requirements: - the caller must be `account`."
      },
      "revokeRole(bytes32,address)": {
        "details": "Revokes `role` from `account`. If `account` had been granted `role`, emits a {RoleRevoked} event. Requirements: - the caller must have ``role``'s admin role."
      },
      "risingTide_isValidCap()": {
        "returns": {
          "_0": "true if current cap is already validated"
        }
      },
      "risingTide_totalAllocatedUncapped()": {
        "returns": {
          "_0": "Total amount invested"
        }
      },
      "risingTide_totalCap()": {
        "returns": {
          "_0": "amount corresponding to the total supply available for distribution"
        }
      },
      "risingTide_validating()": {
        "returns": {
          "_0": "true if validation of current cap is still ongoing"
        }
      },
      "setIndividualCap(uint256)": {
        "details": "Can only be called once",
        "params": {
          "_cap": "new individual cap"
        }
      },
      "supportsInterface(bytes4)": {
        "details": "See {IERC165-supportsInterface}."
      }
    },
    "version": 1
  },
  "userdoc": {
    "events": {
      "Purchase(address,uint256,uint256)": {
        "notice": "Emitted for every public purchase"
      },
      "Refund(address,uint256)": {
        "notice": "Emitted for every refund given"
      }
    },
    "kind": "user",
    "methods": {
      "CAP_VALIDATION_GAS_LIMIT()": {
        "notice": "Min gas required to run one more cap validation iteration"
      },
      "_investorCount()": {
        "notice": "total unique investors"
      },
      "allocation(address)": {
        "notice": "Returns the amount of tokens that have been allocated in this sale for a given address (applying the individual cap)"
      },
      "buy(uint256)": {
        "notice": "Commits an amount of $aUSD to buy $CTND"
      },
      "end()": {
        "notice": "Timestamp at which sale ends"
      },
      "fractalIdToAddress(bytes32)": {
        "notice": "Fractal Id associated with the address to be used in this sale"
      },
      "individualCap()": {
        "notice": "The currently set cap Maximum amount of tokens that each buyer can actually get"
      },
      "paymentToken()": {
        "notice": "See {ISale.paymentToken}"
      },
      "paymentTokenToToken(uint256)": {
        "notice": "How many $CTND will be received for the given payment amount"
      },
      "rate()": {
        "notice": "Fixed price of token, expressed in paymentToken amount"
      },
      "refund(address)": {
        "notice": "Refunds currently refundable amount for the given address"
      },
      "refundAmount(address)": {
        "notice": "Returns the amount of tokens that are meant for refund due to the rising tide mechanism"
      },
      "registry()": {
        "notice": "Fractal Registry address"
      },
      "risingTideCache()": {
        "notice": "Calculation cache"
      },
      "risingTideState()": {
        "notice": "Current state"
      },
      "risingTide_totalAllocatedUncapped()": {
        "notice": "How many allocations have been made, regardless of the future individual cap"
      },
      "risingTide_totalCap()": {
        "notice": "How many tokens are to be distributed in total"
      },
      "risingTide_validate()": {
        "notice": "Continues a pending validation of the individual cap"
      },
      "setIndividualCap(uint256)": {
        "notice": "Sets the individual cap"
      },
      "start()": {
        "notice": "Timestamp at which sale starts"
      },
      "tokenToPaymentToken(uint256)": {
        "notice": "How many $aUSD will be received for the given $CTND amount"
      },
      "totalUncappedAllocations()": {
        "notice": "How many tokens have been allocated, before cap calculation"
      },
      "withdraw()": {
        "notice": "Allows a privileged account to withdraw payment tokens once the sale is overDoes not allow withdrawing funds meant for refunds"
      },
      "withdrawn()": {
        "notice": "Did the admins already withdraw all aUSD from sales"
      }
    },
    "notice": "Citizend token sale contract Users interact with this contract to deposit $aUSD in exchange for $CTND. The contract should hold all $CTND tokens meant to be distributed in the public sale",
    "version": 1
  },
  "storageLayout": {
    "storage": [
      {
        "astId": 2297,
        "contract": "contracts/token/Sale.sol:Sale",
        "label": "risingTideState",
        "offset": 0,
        "slot": "0",
        "type": "t_enum(RisingTideState)2280"
      },
      {
        "astId": 2301,
        "contract": "contracts/token/Sale.sol:Sale",
        "label": "risingTideCache",
        "offset": 0,
        "slot": "1",
        "type": "t_struct(RisingTideCache)2289_storage"
      },
      {
        "astId": 2304,
        "contract": "contracts/token/Sale.sol:Sale",
        "label": "individualCap",
        "offset": 0,
        "slot": "5",
        "type": "t_uint256"
      },
      {
        "astId": 24,
        "contract": "contracts/token/Sale.sol:Sale",
        "label": "_roles",
        "offset": 0,
        "slot": "6",
        "type": "t_mapping(t_bytes32,t_struct(RoleData)19_storage)"
      },
      {
        "astId": 484,
        "contract": "contracts/token/Sale.sol:Sale",
        "label": "_status",
        "offset": 0,
        "slot": "7",
        "type": "t_uint256"
      },
      {
        "astId": 8325,
        "contract": "contracts/token/Sale.sol:Sale",
        "label": "accounts",
        "offset": 0,
        "slot": "8",
        "type": "t_mapping(t_address,t_struct(Account)8274_storage)"
      },
      {
        "astId": 8330,
        "contract": "contracts/token/Sale.sol:Sale",
        "label": "investorByIndex",
        "offset": 0,
        "slot": "9",
        "type": "t_mapping(t_uint256,t_address)"
      },
      {
        "astId": 8333,
        "contract": "contracts/token/Sale.sol:Sale",
        "label": "_investorCount",
        "offset": 0,
        "slot": "10",
        "type": "t_uint256"
      },
      {
        "astId": 8336,
        "contract": "contracts/token/Sale.sol:Sale",
        "label": "totalUncappedAllocations",
        "offset": 0,
        "slot": "11",
        "type": "t_uint256"
      },
      {
        "astId": 8342,
        "contract": "contracts/token/Sale.sol:Sale",
        "label": "withdrawn",
        "offset": 0,
        "slot": "12",
        "type": "t_bool"
      },
      {
        "astId": 8347,
        "contract": "contracts/token/Sale.sol:Sale",
        "label": "fractalIdToAddress",
        "offset": 0,
        "slot": "13",
        "type": "t_mapping(t_bytes32,t_address)"
      }
    ],
    "types": {
      "t_address": {
        "encoding": "inplace",
        "label": "address",
        "numberOfBytes": "20"
      },
      "t_bool": {
        "encoding": "inplace",
        "label": "bool",
        "numberOfBytes": "1"
      },
      "t_bytes32": {
        "encoding": "inplace",
        "label": "bytes32",
        "numberOfBytes": "32"
      },
      "t_enum(RisingTideState)2280": {
        "encoding": "inplace",
        "label": "enum RisingTide.RisingTideState",
        "numberOfBytes": "1"
      },
      "t_mapping(t_address,t_bool)": {
        "encoding": "mapping",
        "key": "t_address",
        "label": "mapping(address => bool)",
        "numberOfBytes": "32",
        "value": "t_bool"
      },
      "t_mapping(t_address,t_struct(Account)8274_storage)": {
        "encoding": "mapping",
        "key": "t_address",
        "label": "mapping(address => struct Sale.Account)",
        "numberOfBytes": "32",
        "value": "t_struct(Account)8274_storage"
      },
      "t_mapping(t_bytes32,t_address)": {
        "encoding": "mapping",
        "key": "t_bytes32",
        "label": "mapping(bytes32 => address)",
        "numberOfBytes": "32",
        "value": "t_address"
      },
      "t_mapping(t_bytes32,t_struct(RoleData)19_storage)": {
        "encoding": "mapping",
        "key": "t_bytes32",
        "label": "mapping(bytes32 => struct AccessControl.RoleData)",
        "numberOfBytes": "32",
        "value": "t_struct(RoleData)19_storage"
      },
      "t_mapping(t_uint256,t_address)": {
        "encoding": "mapping",
        "key": "t_uint256",
        "label": "mapping(uint256 => address)",
        "numberOfBytes": "32",
        "value": "t_address"
      },
      "t_struct(Account)8274_storage": {
        "encoding": "inplace",
        "label": "struct Sale.Account",
        "members": [
          {
            "astId": 8271,
            "contract": "contracts/token/Sale.sol:Sale",
            "label": "uncappedAllocation",
            "offset": 0,
            "slot": "0",
            "type": "t_uint256"
          },
          {
            "astId": 8273,
            "contract": "contracts/token/Sale.sol:Sale",
            "label": "refunded",
            "offset": 0,
            "slot": "1",
            "type": "t_bool"
          }
        ],
        "numberOfBytes": "64"
      },
      "t_struct(RisingTideCache)2289_storage": {
        "encoding": "inplace",
        "label": "struct RisingTide.RisingTideCache",
        "members": [
          {
            "astId": 2282,
            "contract": "contracts/token/Sale.sol:Sale",
            "label": "index",
            "offset": 0,
            "slot": "0",
            "type": "t_uint256"
          },
          {
            "astId": 2284,
            "contract": "contracts/token/Sale.sol:Sale",
            "label": "sumForCap",
            "offset": 0,
            "slot": "1",
            "type": "t_uint256"
          },
          {
            "astId": 2286,
            "contract": "contracts/token/Sale.sol:Sale",
            "label": "sumForNextCap",
            "offset": 0,
            "slot": "2",
            "type": "t_uint256"
          },
          {
            "astId": 2288,
            "contract": "contracts/token/Sale.sol:Sale",
            "label": "largest",
            "offset": 0,
            "slot": "3",
            "type": "t_uint256"
          }
        ],
        "numberOfBytes": "128"
      },
      "t_struct(RoleData)19_storage": {
        "encoding": "inplace",
        "label": "struct AccessControl.RoleData",
        "members": [
          {
            "astId": 16,
            "contract": "contracts/token/Sale.sol:Sale",
            "label": "members",
            "offset": 0,
            "slot": "0",
            "type": "t_mapping(t_address,t_bool)"
          },
          {
            "astId": 18,
            "contract": "contracts/token/Sale.sol:Sale",
            "label": "adminRole",
            "offset": 0,
            "slot": "1",
            "type": "t_bytes32"
          }
        ],
        "numberOfBytes": "64"
      },
      "t_uint256": {
        "encoding": "inplace",
        "label": "uint256",
        "numberOfBytes": "32"
      }
    }
  }
}