{
  "address": "0xbE659Ca495E7e8D5Cf541A462607e8F77df7d555",
  "abi": [
    {
      "inputs": [
        {
          "internalType": "uint256",
          "name": "_publicSaleVestingMonths",
          "type": "uint256"
        },
        {
          "internalType": "address",
          "name": "_token",
          "type": "address"
        },
        {
          "internalType": "address[]",
          "name": "_sales",
          "type": "address[]"
        },
        {
          "internalType": "uint256",
          "name": "_startTime",
          "type": "uint256"
        },
        {
          "internalType": "uint256",
          "name": "_privateSaleCap",
          "type": "uint256"
        }
      ],
      "stateMutability": "nonpayable",
      "type": "constructor"
    },
    {
      "anonymous": false,
      "inputs": [
        {
          "indexed": true,
          "internalType": "address",
          "name": "saleContract",
          "type": "address"
        }
      ],
      "name": "AddSale",
      "type": "event"
    },
    {
      "anonymous": false,
      "inputs": [
        {
          "indexed": true,
          "internalType": "address",
          "name": "to",
          "type": "address"
        },
        {
          "indexed": false,
          "internalType": "uint256",
          "name": "amount",
          "type": "uint256"
        }
      ],
      "name": "ClaimVesting",
      "type": "event"
    },
    {
      "anonymous": false,
      "inputs": [
        {
          "indexed": true,
          "internalType": "bytes32",
          "name": "role",
          "type": "bytes32"
        },
        {
          "indexed": true,
          "internalType": "bytes32",
          "name": "previousAdminRole",
          "type": "bytes32"
        },
        {
          "indexed": true,
          "internalType": "bytes32",
          "name": "newAdminRole",
          "type": "bytes32"
        }
      ],
      "name": "RoleAdminChanged",
      "type": "event"
    },
    {
      "anonymous": false,
      "inputs": [
        {
          "indexed": true,
          "internalType": "bytes32",
          "name": "role",
          "type": "bytes32"
        },
        {
          "indexed": true,
          "internalType": "address",
          "name": "account",
          "type": "address"
        },
        {
          "indexed": true,
          "internalType": "address",
          "name": "sender",
          "type": "address"
        }
      ],
      "name": "RoleGranted",
      "type": "event"
    },
    {
      "anonymous": false,
      "inputs": [
        {
          "indexed": true,
          "internalType": "bytes32",
          "name": "role",
          "type": "bytes32"
        },
        {
          "indexed": true,
          "internalType": "address",
          "name": "account",
          "type": "address"
        },
        {
          "indexed": true,
          "internalType": "address",
          "name": "sender",
          "type": "address"
        }
      ],
      "name": "RoleRevoked",
      "type": "event"
    },
    {
      "inputs": [],
      "name": "DEFAULT_ADMIN_ROLE",
      "outputs": [
        {
          "internalType": "bytes32",
          "name": "",
          "type": "bytes32"
        }
      ],
      "stateMutability": "view",
      "type": "function"
    },
    {
      "inputs": [],
      "name": "PRIVATE_SALE_MAX_CLIFF_MONTHS",
      "outputs": [
        {
          "internalType": "uint256",
          "name": "",
          "type": "uint256"
        }
      ],
      "stateMutability": "view",
      "type": "function"
    },
    {
      "inputs": [],
      "name": "PRIVATE_SALE_VESTING_MONTHS",
      "outputs": [
        {
          "internalType": "uint256",
          "name": "",
          "type": "uint256"
        }
      ],
      "stateMutability": "view",
      "type": "function"
    },
    {
      "inputs": [],
      "name": "PRIVATE_SELLER_ROLE",
      "outputs": [
        {
          "internalType": "bytes32",
          "name": "",
          "type": "bytes32"
        }
      ],
      "stateMutability": "view",
      "type": "function"
    },
    {
      "inputs": [
        {
          "internalType": "address",
          "name": "_sale",
          "type": "address"
        }
      ],
      "name": "addSale",
      "outputs": [],
      "stateMutability": "nonpayable",
      "type": "function"
    },
    {
      "inputs": [
        {
          "internalType": "address",
          "name": "to",
          "type": "address"
        }
      ],
      "name": "claim",
      "outputs": [],
      "stateMutability": "nonpayable",
      "type": "function"
    },
    {
      "inputs": [
        {
          "internalType": "address",
          "name": "to",
          "type": "address"
        }
      ],
      "name": "claimable",
      "outputs": [
        {
          "internalType": "uint256",
          "name": "",
          "type": "uint256"
        }
      ],
      "stateMutability": "view",
      "type": "function"
    },
    {
      "inputs": [
        {
          "internalType": "address",
          "name": "to",
          "type": "address"
        }
      ],
      "name": "claimablePrivate",
      "outputs": [
        {
          "internalType": "uint256",
          "name": "",
          "type": "uint256"
        }
      ],
      "stateMutability": "view",
      "type": "function"
    },
    {
      "inputs": [
        {
          "internalType": "address",
          "name": "to",
          "type": "address"
        }
      ],
      "name": "claimablePublic",
      "outputs": [
        {
          "internalType": "uint256",
          "name": "",
          "type": "uint256"
        }
      ],
      "stateMutability": "view",
      "type": "function"
    },
    {
      "inputs": [
        {
          "internalType": "address",
          "name": "",
          "type": "address"
        }
      ],
      "name": "claimed",
      "outputs": [
        {
          "internalType": "uint256",
          "name": "",
          "type": "uint256"
        }
      ],
      "stateMutability": "view",
      "type": "function"
    },
    {
      "inputs": [
        {
          "internalType": "address",
          "name": "to",
          "type": "address"
        },
        {
          "internalType": "uint256",
          "name": "amount",
          "type": "uint256"
        },
        {
          "internalType": "uint16",
          "name": "cliffMonths",
          "type": "uint16"
        },
        {
          "internalType": "uint64",
          "name": "nonce",
          "type": "uint64"
        }
      ],
      "name": "createPrivateSaleVest",
      "outputs": [],
      "stateMutability": "nonpayable",
      "type": "function"
    },
    {
      "inputs": [
        {
          "internalType": "bytes32",
          "name": "role",
          "type": "bytes32"
        }
      ],
      "name": "getRoleAdmin",
      "outputs": [
        {
          "internalType": "bytes32",
          "name": "",
          "type": "bytes32"
        }
      ],
      "stateMutability": "view",
      "type": "function"
    },
    {
      "inputs": [
        {
          "internalType": "bytes32",
          "name": "role",
          "type": "bytes32"
        },
        {
          "internalType": "address",
          "name": "account",
          "type": "address"
        }
      ],
      "name": "grantRole",
      "outputs": [],
      "stateMutability": "nonpayable",
      "type": "function"
    },
    {
      "inputs": [
        {
          "internalType": "bytes32",
          "name": "role",
          "type": "bytes32"
        },
        {
          "internalType": "address",
          "name": "account",
          "type": "address"
        }
      ],
      "name": "hasRole",
      "outputs": [
        {
          "internalType": "bool",
          "name": "",
          "type": "bool"
        }
      ],
      "stateMutability": "view",
      "type": "function"
    },
    {
      "inputs": [
        {
          "internalType": "address",
          "name": "",
          "type": "address"
        }
      ],
      "name": "privateAllocations",
      "outputs": [
        {
          "internalType": "uint256",
          "name": "amount",
          "type": "uint256"
        },
        {
          "internalType": "uint256",
          "name": "claimedAmount",
          "type": "uint256"
        },
        {
          "internalType": "uint256",
          "name": "cliffMonths",
          "type": "uint256"
        },
        {
          "internalType": "uint256",
          "name": "vestingMonths",
          "type": "uint256"
        }
      ],
      "stateMutability": "view",
      "type": "function"
    },
    {
      "inputs": [],
      "name": "privateSaleCap",
      "outputs": [
        {
          "internalType": "uint256",
          "name": "",
          "type": "uint256"
        }
      ],
      "stateMutability": "view",
      "type": "function"
    },
    {
      "inputs": [],
      "name": "publicSaleCliffMonths",
      "outputs": [
        {
          "internalType": "uint256",
          "name": "",
          "type": "uint256"
        }
      ],
      "stateMutability": "view",
      "type": "function"
    },
    {
      "inputs": [],
      "name": "publicSaleVestingMonths",
      "outputs": [
        {
          "internalType": "uint256",
          "name": "",
          "type": "uint256"
        }
      ],
      "stateMutability": "view",
      "type": "function"
    },
    {
      "inputs": [
        {
          "internalType": "address",
          "name": "to",
          "type": "address"
        }
      ],
      "name": "refund",
      "outputs": [],
      "stateMutability": "nonpayable",
      "type": "function"
    },
    {
      "inputs": [
        {
          "internalType": "bytes32",
          "name": "role",
          "type": "bytes32"
        },
        {
          "internalType": "address",
          "name": "account",
          "type": "address"
        }
      ],
      "name": "renounceRole",
      "outputs": [],
      "stateMutability": "nonpayable",
      "type": "function"
    },
    {
      "inputs": [
        {
          "internalType": "bytes32",
          "name": "role",
          "type": "bytes32"
        },
        {
          "internalType": "address",
          "name": "account",
          "type": "address"
        }
      ],
      "name": "revokeRole",
      "outputs": [],
      "stateMutability": "nonpayable",
      "type": "function"
    },
    {
      "inputs": [
        {
          "internalType": "uint256",
          "name": "",
          "type": "uint256"
        }
      ],
      "name": "sales",
      "outputs": [
        {
          "internalType": "address",
          "name": "",
          "type": "address"
        }
      ],
      "stateMutability": "view",
      "type": "function"
    },
    {
      "inputs": [],
      "name": "startTime",
      "outputs": [
        {
          "internalType": "uint256",
          "name": "",
          "type": "uint256"
        }
      ],
      "stateMutability": "view",
      "type": "function"
    },
    {
      "inputs": [
        {
          "internalType": "bytes4",
          "name": "interfaceId",
          "type": "bytes4"
        }
      ],
      "name": "supportsInterface",
      "outputs": [
        {
          "internalType": "bool",
          "name": "",
          "type": "bool"
        }
      ],
      "stateMutability": "view",
      "type": "function"
    },
    {
      "inputs": [],
      "name": "token",
      "outputs": [
        {
          "internalType": "address",
          "name": "",
          "type": "address"
        }
      ],
      "stateMutability": "view",
      "type": "function"
    },
    {
      "inputs": [
        {
          "internalType": "address",
          "name": "to",
          "type": "address"
        }
      ],
      "name": "totalAllocated",
      "outputs": [
        {
          "internalType": "uint256",
          "name": "",
          "type": "uint256"
        }
      ],
      "stateMutability": "view",
      "type": "function"
    },
    {
      "inputs": [
        {
          "internalType": "address",
          "name": "to",
          "type": "address"
        }
      ],
      "name": "totalAllocatedPrivate",
      "outputs": [
        {
          "internalType": "uint256",
          "name": "",
          "type": "uint256"
        }
      ],
      "stateMutability": "view",
      "type": "function"
    },
    {
      "inputs": [
        {
          "internalType": "address",
          "name": "to",
          "type": "address"
        }
      ],
      "name": "totalAllocatedPublic",
      "outputs": [
        {
          "internalType": "uint256",
          "name": "",
          "type": "uint256"
        }
      ],
      "stateMutability": "view",
      "type": "function"
    },
    {
      "inputs": [],
      "name": "totalPrivateSales",
      "outputs": [
        {
          "internalType": "uint256",
          "name": "",
          "type": "uint256"
        }
      ],
      "stateMutability": "view",
      "type": "function"
    },
    {
      "inputs": [
        {
          "internalType": "uint64",
          "name": "",
          "type": "uint64"
        }
      ],
      "name": "usedNonces",
      "outputs": [
        {
          "internalType": "bool",
          "name": "",
          "type": "bool"
        }
      ],
      "stateMutability": "view",
      "type": "function"
    }
  ],
  "transactionHash": "0x7d66a95548472d233ecfa7c8eeaee944158a164bec5f9e40e02f7e5577a639b0",
  "args": [
    3,
    "0x1987495696777904F35a9F7e498F889522eEd98e",
    [],
    1651659600,
    10000
  ],
  "numDeployments": 1,
  "solcInputHash": "dfb224aae55ceb1d52b02ce7efbb10f7",
  "bytecode": "0x6101206040523480156200001257600080fd5b5060405162002733380380620027338339810160408190526200003591620006b0565b6001805562000046600033620000ed565b620000727fd0de816a1a8e5ff14e67929176955ab95fac2ee76955cd54d33fac6e55aee23433620000ed565b60c0859052600060e08190526001600160a01b03851660805260a08390526101008290525b8351811015620000e157620000ce848281518110620000ba57620000ba620007b2565b60200260200101516200017660201b60201c565b620000d981620007de565b905062000097565b50505050505062000976565b620000f98282620002c4565b62000172576000828152602081815260408083206001600160a01b03851684529091529020805460ff19166001179055620001313390565b6001600160a01b0316816001600160a01b0316837f2f8788117e7eff1d82e926ec794901d17c78024a50270940304540a733656f0d60405160405180910390a45b5050565b6000620001848133620002ef565b60026001541415620001dd5760405162461bcd60e51b815260206004820152601f60248201527f5265656e7472616e637947756172643a207265656e7472616e742063616c6c0060448201526064015b60405180910390fd5b60026001556200020a6001600160a01b03831663854aabcb60e01b62000372602090811b62000fe917901c565b620002475760405162461bcd60e51b815260206004820152600c60248201526b6e6f7420616e204953616c6560a01b6044820152606401620001d4565b6006805460018101825560009182527ff652222313e28459528d920b65115c16c04f3efc82aaedc97be59f3f377c0d3f0180546001600160a01b0319166001600160a01b03851690811790915560405190917f39247aa74f6659c541ff9e31504cea62a44522768b57339d97fddca6efa99b1b91a2505060018055565b6000828152602081815260408083206001600160a01b038516845290915290205460ff165b92915050565b620002fb8282620002c4565b620001725762000321816001600160a01b031660146200039a60201b6200100c1760201c565b620003378360206200100c6200039a821b17811c565b6040516020016200034a9291906200082f565b60408051601f198184030181529082905262461bcd60e51b8252620001d491600401620008a8565b60006200037f8362000553565b80156200039357506200039383836200058b565b9392505050565b60606000620003ab836002620008dd565b620003b8906002620008ff565b6001600160401b03811115620003d257620003d26200069a565b6040519080825280601f01601f191660200182016040528015620003fd576020820181803683370190505b509050600360fc1b816000815181106200041b576200041b620007b2565b60200101906001600160f81b031916908160001a905350600f60fb1b816001815181106200044d576200044d620007b2565b60200101906001600160f81b031916908160001a905350600062000473846002620008dd565b62000480906001620008ff565b90505b600181111562000502576f181899199a1a9b1b9c1cb0b131b232b360811b85600f1660108110620004b857620004b8620007b2565b1a60f81b828281518110620004d157620004d1620007b2565b60200101906001600160f81b031916908160001a90535060049490941c93620004fa816200091a565b905062000483565b508315620003935760405162461bcd60e51b815260206004820181905260248201527f537472696e67733a20686578206c656e67746820696e73756666696369656e746044820152606401620001d4565b600062000568826301ffc9a760e01b6200058b565b8015620002e9575062000584826001600160e01b03196200058b565b1592915050565b604080516001600160e01b0319831660248083019190915282518083039091018152604490910182526020810180516001600160e01b03166301ffc9a760e01b179052905160009190829081906001600160a01b0387169061753090620005f490869062000934565b6000604051808303818686fa925050503d806000811462000632576040519150601f19603f3d011682016040523d82523d6000602084013e62000637565b606091505b5091509150602081511015620006545760009350505050620002e9565b8180156200067357508080602001905181019062000673919062000952565b9695505050505050565b80516001600160a01b03811681146200069557600080fd5b919050565b634e487b7160e01b600052604160045260246000fd5b600080600080600060a08688031215620006c957600080fd5b855194506020620006dc8188016200067d565b60408801519095506001600160401b0380821115620006fa57600080fd5b818901915089601f8301126200070f57600080fd5b8151818111156200072457620007246200069a565b8060051b604051601f19603f830116810181811085821117156200074c576200074c6200069a565b60405291825284820192508381018501918c8311156200076b57600080fd5b938501935b82851015620007945762000784856200067d565b8452938501939285019262000770565b60608c01516080909c01519a9d999c509a9998975050505050505050565b634e487b7160e01b600052603260045260246000fd5b634e487b7160e01b600052601160045260246000fd5b6000600019821415620007f557620007f5620007c8565b5060010190565b60005b8381101562000819578181015183820152602001620007ff565b8381111562000829576000848401525b50505050565b7f416363657373436f6e74726f6c3a206163636f756e742000000000000000000081526000835162000869816017850160208801620007fc565b7001034b99036b4b9b9b4b733903937b6329607d1b60179184019182015283516200089c816028840160208801620007fc565b01602801949350505050565b6020815260008251806020840152620008c9816040850160208701620007fc565b601f01601f19169190910160400192915050565b6000816000190483118215151615620008fa57620008fa620007c8565b500290565b60008219821115620009155762000915620007c8565b500190565b6000816200092c576200092c620007c8565b506000190190565b6000825162000948818460208701620007fc565b9190910192915050565b6000602082840312156200096557600080fd5b815180151581146200039357600080fd5b60805160a05160c05160e05161010051611d47620009ec600039600081816104df0152610c6401526000818161020c01526108e00152600081816103160152610901015260008181610364015281816113470152818161139d01526113c601526000818161052c015261074b0152611d476000f3fe608060405234801561001057600080fd5b50600436106101da5760003560e01c8063847f429211610104578063b5f522f7116100a2578063d8bce30111610071578063d8bce301146104da578063ed361b3514610501578063fa89401a14610514578063fc0c546a1461052757600080fd5b8063b5f522f714610474578063c78c08fe1461049f578063c884ef83146104a7578063d547741f146104c757600080fd5b806390deadaa116100de57806390deadaa1461040f57806391d1485414610422578063a217fddf14610459578063a918acfc1461046157600080fd5b8063847f4292146103865780638719f630146103dd57806387d389e71461040657600080fd5b80632f2ff15d1161017c5780634a6d02921161014b5780634a6d0292146102fe57806361649953146103115780636e95a2f41461033857806378e979251461035f57600080fd5b80632f2ff15d146102b257806336568abe146102c55780633cf05ddb146102d8578063402914f5146102eb57600080fd5b80631ce8678b116101b85780631ce8678b146102445780631e83409a14610257578063248a9ca31461026c57806325e44ffe1461028f57600080fd5b806301ffc9a7146101df57806305182886146102075780630a77e4011461023c575b600080fd5b6101f26101ed366004611894565b61054e565b60405190151581526020015b60405180910390f35b61022e7f000000000000000000000000000000000000000000000000000000000000000081565b6040519081526020016101fe565b61022e600681565b61022e6102523660046118da565b610585565b61026a6102653660046118da565b610648565b005b61022e61027a3660046118f5565b60009081526020819052604090206001015490565b6101f261029d366004611926565b60046020526000908152604090205460ff1681565b61026a6102c0366004611941565b610804565b61026a6102d3366004611941565b61082f565b61022e6102e63660046118da565b6108ad565b61022e6102f93660046118da565b6109a4565b61026a61030c3660046118da565b6109c2565b61022e7f000000000000000000000000000000000000000000000000000000000000000081565b61022e7fd0de816a1a8e5ff14e67929176955ab95fac2ee76955cd54d33fac6e55aee23481565b61022e7f000000000000000000000000000000000000000000000000000000000000000081565b6103bd6103943660046118da565b600360208190526000918252604090912080546001820154600283015492909301549092919084565b6040805194855260208501939093529183015260608201526080016101fe565b61022e6103eb3660046118da565b6001600160a01b031660009081526003602052604090205490565b61022e60055481565b61026a61041d36600461196d565b610b05565b6101f2610430366004611941565b6000918252602082815260408084206001600160a01b0393909316845291905290205460ff1690565b61022e600081565b61022e61046f3660046118da565b610dbc565b6104876104823660046118f5565b610e74565b6040516001600160a01b0390911681526020016101fe565b61022e602481565b61022e6104b53660046118da565b60026020526000908152604090205481565b61026a6104d5366004611941565b610e9e565b61022e7f000000000000000000000000000000000000000000000000000000000000000081565b61022e61050f3660046118da565b610ec4565b61026a6105223660046118da565b610ee6565b6104877f000000000000000000000000000000000000000000000000000000000000000081565b60006001600160e01b03198216637965db0b60e01b148061057f57506301ffc9a760e01b6001600160e01b03198316145b92915050565b6006546000908190815b8181101561063f57600681815481106105aa576105aa6119c3565b600091825260209091200154604051630b81b86360e41b81526001600160a01b0387811660048301529091169063b81b863090602401602060405180830381865afa1580156105fd573d6000803e3d6000fd5b505050506040513d601f19601f8201168201806040525081019061062191906119d9565b61062b9084611a08565b92508061063781611a20565b91505061058f565b50909392505050565b600260015414156106a05760405162461bcd60e51b815260206004820152601f60248201527f5265656e7472616e637947756172643a207265656e7472616e742063616c6c0060448201526064015b60405180910390fd5b600260015560006106b0826109a4565b9050600081116106f85760405162461bcd60e51b8152602060048201526013602482015272139bc818db185a5b58589b1948185b5bdd5b9d606a1b6044820152606401610697565b6001600160a01b03821660009081526002602052604081208054839290610720908490611a08565b909155505060405163a9059cbb60e01b81526001600160a01b038381166004830152602482018390527f0000000000000000000000000000000000000000000000000000000000000000169063a9059cbb906044016020604051808303816000875af1158015610794573d6000803e3d6000fd5b505050506040513d601f19601f820116820180604052508101906107b89190611a3b565b50816001600160a01b03167ffbed6a2445b2fb12101a9cd62317dad46e867f7cc92f27c85f5427ad972491d2826040516107f491815260200190565b60405180910390a2505060018055565b60008281526020819052604090206001015461082081336111a8565b61082a8383611226565b505050565b6001600160a01b038116331461089f5760405162461bcd60e51b815260206004820152602f60248201527f416363657373436f6e74726f6c3a2063616e206f6e6c792072656e6f756e636560448201526e103937b632b9903337b91039b2b63360891b6064820152608401610697565b6108a982826112c4565b5050565b6001600160a01b038116600090815260026020526040812054816108d084610585565b905060006108dc611343565b90507f00000000000000000000000000000000000000000000000000000000000000007f000000000000000000000000000000000000000000000000000000000000000083610932575060009695505050505050565b828210610946575060009695505050505050565b6109508282611a08565b831061096b576109608585611a5d565b979650505050505050565b60006109778286611a8a565b9050856109848486611a5d565b61098e9083611a9e565b6109989190611a5d565b98975050505050505050565b60006109af82610dbc565b6109b8836108ad565b61057f9190611a08565b60006109ce81336111a8565b60026001541415610a215760405162461bcd60e51b815260206004820152601f60248201527f5265656e7472616e637947756172643a207265656e7472616e742063616c6c006044820152606401610697565b6002600155610a406001600160a01b03831663854aabcb60e01b610fe9565b610a7b5760405162461bcd60e51b815260206004820152600c60248201526b6e6f7420616e204953616c6560a01b6044820152606401610697565b6006805460018101825560009182527ff652222313e28459528d920b65115c16c04f3efc82aaedc97be59f3f377c0d3f01805473ffffffffffffffffffffffffffffffffffffffff19166001600160a01b03851690811790915560405190917f39247aa74f6659c541ff9e31504cea62a44522768b57339d97fddca6efa99b1b91a2505060018055565b7fd0de816a1a8e5ff14e67929176955ab95fac2ee76955cd54d33fac6e55aee234610b3081336111a8565b60026001541415610b835760405162461bcd60e51b815260206004820152601f60248201527f5265656e7472616e637947756172643a207265656e7472616e742063616c6c006044820152606401610697565b600260015567ffffffffffffffff8216600090815260046020526040902054829060ff1615610be95760405162461bcd60e51b81526020600482015260126024820152711b9bdb98d948185b1c9958591e481d5cd95960721b6044820152606401610697565b67ffffffffffffffff81166000908152600460205260409020805460ff19166001179055600661ffff85161115610c625760405162461bcd60e51b815260206004820152601460248201527f436c696666206d6f6e74687320746f6f206269670000000000000000000000006044820152606401610697565b7f000000000000000000000000000000000000000000000000000000000000000085600554610c919190611a08565b1115610cdf5760405162461bcd60e51b815260206004820152601860248201527f507269766174652073616c6520636170207265616368656400000000000000006044820152606401610697565b6001600160a01b038616600090815260036020526040902080541580610d0c57508461ffff168160020154145b610d6c5760405162461bcd60e51b815260206004820152602b60248201527f76657374696e6720616c7265616479206578697374732077697468206469666660448201526a32b932b73a1031b634b33360a91b6064820152608401610697565b61ffff8516600282015560246003820155805486908290600090610d91908490611a08565b925050819055508560056000828254610daa9190611a08565b90915550506001805550505050505050565b6001600160a01b03811660009081526003602090815260408083206002909252822054815483610dea611343565b600285015460038601549192509083610e0b57506000979650505050505050565b828210610e2057506000979650505050505050565b610e2a8282611a08565b8310610e3a576109988585611a5d565b6000610e468286611a8a565b905085610e538486611a5d565b610e5d9083611a9e565b610e679190611a5d565b9998505050505050505050565b60068181548110610e8457600080fd5b6000918252602090912001546001600160a01b0316905081565b600082815260208190526040902060010154610eba81336111a8565b61082a83836112c4565b6001600160a01b0381166000908152600360205260408120546109b883610585565b60026001541415610f395760405162461bcd60e51b815260206004820152601f60248201527f5265656e7472616e637947756172643a207265656e7472616e742063616c6c006044820152606401610697565b600260015560065460005b81811015610fe057600060068281548110610f6157610f616119c3565b600091825260209091200154604051637d44a00d60e11b81526001600160a01b0386811660048301529091169150819063fa89401a90602401600060405180830381600087803b158015610fb457600080fd5b505af1158015610fc8573d6000803e3d6000fd5b50505050508080610fd890611a20565b915050610f44565b50506001805550565b6000610ff483611408565b80156110055750611005838361143b565b9392505050565b6060600061101b836002611a9e565b611026906002611a08565b67ffffffffffffffff81111561103e5761103e611abd565b6040519080825280601f01601f191660200182016040528015611068576020820181803683370190505b509050600360fc1b81600081518110611083576110836119c3565b60200101906001600160f81b031916908160001a905350600f60fb1b816001815181106110b2576110b26119c3565b60200101906001600160f81b031916908160001a90535060006110d6846002611a9e565b6110e1906001611a08565b90505b6001811115611159576f181899199a1a9b1b9c1cb0b131b232b360811b85600f1660108110611115576111156119c3565b1a60f81b82828151811061112b5761112b6119c3565b60200101906001600160f81b031916908160001a90535060049490941c9361115281611ad3565b90506110e4565b5083156110055760405162461bcd60e51b815260206004820181905260248201527f537472696e67733a20686578206c656e67746820696e73756666696369656e746044820152606401610697565b6000828152602081815260408083206001600160a01b038516845290915290205460ff166108a9576111e4816001600160a01b0316601461100c565b6111ef83602061100c565b604051602001611200929190611b1a565b60408051601f198184030181529082905262461bcd60e51b825261069791600401611b8f565b6000828152602081815260408083206001600160a01b038516845290915290205460ff166108a9576000828152602081815260408083206001600160a01b03851684529091529020805460ff191660011790556112803390565b6001600160a01b0316816001600160a01b0316837f2f8788117e7eff1d82e926ec794901d17c78024a50270940304540a733656f0d60405160405180910390a45050565b6000828152602081815260408083206001600160a01b038516845290915290205460ff16156108a9576000828152602081815260408083206001600160a01b0385168085529252808320805460ff1916905551339285917ff6391f5c32d9c69d2a47ea670b442974b53935d1edc7fd64eb21e047a839171b9190a45050565b60007f00000000000000000000000000000000000000000000000000000000000000004210156113735750600090565b600061139161138142611524565b61138a4261153b565b6001611555565b905060006113ea6113c17f0000000000000000000000000000000000000000000000000000000000000000611524565b61138a7f000000000000000000000000000000000000000000000000000000000000000061153b565b90506113f68183611578565b611401906001611a08565b9250505090565b600061141b826301ffc9a760e01b61143b565b801561057f5750611434826001600160e01b031961143b565b1592915050565b604080516001600160e01b0319831660248083019190915282518083039091018152604490910182526020810180516001600160e01b03166301ffc9a760e01b179052905160009190829081906001600160a01b03871690617530906114a2908690611bc2565b6000604051808303818686fa925050503d80600081146114de576040519150601f19603f3d011682016040523d82523d6000602084013e6114e3565b606091505b50915091506020815110156114fe576000935050505061057f565b81801561151a57508080602001905181019061151a9190611a3b565b9695505050505050565b600061063f6115366201518084611a8a565b6115ef565b600061154d6115366201518084611a8a565b509392505050565b600062015180611566858585611763565b6115709190611a9e565b949350505050565b60008183111561158757600080fd5b60008061159a6115366201518087611a8a565b5090925090506000806115b36115366201518088611a8a565b509092509050826115c585600c611a9e565b826115d185600c611a9e565b6115db9190611a08565b6115e59190611a5d565b6109609190611a5d565b60008080838162253d8c6116068362010bd9611bde565b6116109190611bde565b9050600062023ab1611623836004611c1f565b61162d9190611ca4565b9050600461163e8262023ab1611c1f565b611649906003611bde565b6116539190611ca4565b61165d9083611cd2565b9150600062164b09611670846001611bde565b61167c90610fa0611c1f565b6116869190611ca4565b90506004611696826105b5611c1f565b6116a09190611ca4565b6116aa9084611cd2565b6116b590601f611bde565b9250600061098f6116c7856050611c1f565b6116d19190611ca4565b9050600060506116e38361098f611c1f565b6116ed9190611ca4565b6116f79086611cd2565b9050611704600b83611ca4565b945061171185600c611c1f565b61171c836002611bde565b6117269190611cd2565b91508483611735603187611cd2565b611740906064611c1f565b61174a9190611bde565b6117549190611bde565b9a919950975095505050505050565b60006107b284101561177457600080fd5b838383600062253d8c60046064600c61178e600e88611cd2565b6117989190611ca4565b6117a488611324611bde565b6117ae9190611bde565b6117b89190611ca4565b6117c3906003611c1f565b6117cd9190611ca4565b600c806117db600e88611cd2565b6117e59190611ca4565b6117f090600c611c1f565b6117fb600288611cd2565b6118059190611cd2565b6118119061016f611c1f565b61181b9190611ca4565b6004600c61182a600e89611cd2565b6118349190611ca4565b611840896112c0611bde565b61184a9190611bde565b611856906105b5611c1f565b6118609190611ca4565b61186c617d4b87611cd2565b6118769190611bde565b6118809190611bde565b61188a9190611cd2565b6109989190611cd2565b6000602082840312156118a657600080fd5b81356001600160e01b03198116811461100557600080fd5b80356001600160a01b03811681146118d557600080fd5b919050565b6000602082840312156118ec57600080fd5b611005826118be565b60006020828403121561190757600080fd5b5035919050565b803567ffffffffffffffff811681146118d557600080fd5b60006020828403121561193857600080fd5b6110058261190e565b6000806040838503121561195457600080fd5b82359150611964602084016118be565b90509250929050565b6000806000806080858703121561198357600080fd5b61198c856118be565b935060208501359250604085013561ffff811681146119aa57600080fd5b91506119b86060860161190e565b905092959194509250565b634e487b7160e01b600052603260045260246000fd5b6000602082840312156119eb57600080fd5b5051919050565b634e487b7160e01b600052601160045260246000fd5b60008219821115611a1b57611a1b6119f2565b500190565b6000600019821415611a3457611a346119f2565b5060010190565b600060208284031215611a4d57600080fd5b8151801515811461100557600080fd5b600082821015611a6f57611a6f6119f2565b500390565b634e487b7160e01b600052601260045260246000fd5b600082611a9957611a99611a74565b500490565b6000816000190483118215151615611ab857611ab86119f2565b500290565b634e487b7160e01b600052604160045260246000fd5b600081611ae257611ae26119f2565b506000190190565b60005b83811015611b05578181015183820152602001611aed565b83811115611b14576000848401525b50505050565b7f416363657373436f6e74726f6c3a206163636f756e7420000000000000000000815260008351611b52816017850160208801611aea565b7001034b99036b4b9b9b4b733903937b6329607d1b6017918401918201528351611b83816028840160208801611aea565b01602801949350505050565b6020815260008251806020840152611bae816040850160208701611aea565b601f01601f19169190910160400192915050565b60008251611bd4818460208701611aea565b9190910192915050565b600080821280156001600160ff1b0384900385131615611c0057611c006119f2565b600160ff1b8390038412811615611c1957611c196119f2565b50500190565b60006001600160ff1b0381841382841380821686840486111615611c4557611c456119f2565b600160ff1b6000871282811687830589121615611c6457611c646119f2565b60008712925087820587128484161615611c8057611c806119f2565b87850587128184161615611c9657611c966119f2565b505050929093029392505050565b600082611cb357611cb3611a74565b600160ff1b821460001984141615611ccd57611ccd6119f2565b500590565b60008083128015600160ff1b850184121615611cf057611cf06119f2565b6001600160ff1b0384018313811615611d0b57611d0b6119f2565b5050039056fea2646970667358221220d075e64a0ef1df07efc6f7a9ae87643bb2b8a47537bdaae1b69372dd0cc8c0d464736f6c634300080c0033",
  "devdoc": {
    "kind": "dev",
    "methods": {
      "addSale(address)": {
        "params": {
          "_sale": "The address of the sale contract"
        }
      },
      "claim(address)": {
        "params": {
          "to": "Address to claim from"
        }
      },
      "claimable(address)": {
        "params": {
          "to": "The address to query"
        },
        "returns": {
          "_0": "The currently claimable amount"
        }
      },
      "constructor": {
        "params": {
          "_privateSaleCap": "Total cap for the private sale",
          "_publicSaleVestingMonths": "Number of months of vesting for the public sale",
          "_sales": "Addresses for the initial sales contracts",
          "_startTime": "Start time of the vesting",
          "_token": "Address for the CTND token contract"
        }
      },
      "createPrivateSaleVest(address,uint256,uint16,uint64)": {
        "params": {
          "amount": "Amount of tokens to vest",
          "cliffMonths": "Number of months to wait before the vesting starts",
          "nonce": "Nonce used to prevent the same sale from being registered twice*",
          "to": "Beneficiary"
        }
      },
      "getRoleAdmin(bytes32)": {
        "details": "Returns the admin role that controls `role`. See {grantRole} and {revokeRole}. To change a role's admin, use {_setRoleAdmin}."
      },
      "grantRole(bytes32,address)": {
        "details": "Grants `role` to `account`. If `account` had not been already granted `role`, emits a {RoleGranted} event. Requirements: - the caller must have ``role``'s admin role."
      },
      "hasRole(bytes32,address)": {
        "details": "Returns `true` if `account` has been granted `role`."
      },
      "refund(address)": {
        "details": "It will trigger a number of transactions equal to the number of sales (assuming all of them have something to refund)It uses the low level `call` function to ensure that even if for some reason an address that does not belong to a sale contract makes its way to the sales list, we can recover from it.",
        "params": {
          "to": "Beneficiary*"
        }
      },
      "renounceRole(bytes32,address)": {
        "details": "Revokes `role` from the calling account. Roles are often managed via {grantRole} and {revokeRole}: this function's purpose is to provide a mechanism for accounts to lose their privileges if they are compromised (such as when a trusted device is misplaced). If the calling account had been revoked `role`, emits a {RoleRevoked} event. Requirements: - the caller must be `account`."
      },
      "revokeRole(bytes32,address)": {
        "details": "Revokes `role` from `account`. If `account` had been granted `role`, emits a {RoleRevoked} event. Requirements: - the caller must have ``role``'s admin role."
      },
      "supportsInterface(bytes4)": {
        "details": "See {IERC165-supportsInterface}."
      },
      "totalAllocated(address)": {
        "returns": {
          "_0": "How many tokens allocated in total for a given address, for private and public sales, including already claimed amount*"
        }
      }
    },
    "stateVariables": {
      "claimed": {
        "return": "Amount already claimed by a given address",
        "returns": {
          "_0": "Amount already claimed by a given address"
        }
      },
      "privateSaleCap": {
        "return": "The total cap for the private sale",
        "returns": {
          "_0": "The total cap for the private sale"
        }
      },
      "publicSaleCliffMonths": {
        "return": "The cliff period, in months, for public sale vesting",
        "returns": {
          "_0": "The cliff period, in months, for public sale vesting"
        }
      },
      "publicSaleVestingMonths": {
        "return": "The vesting duration, in months",
        "returns": {
          "_0": "The vesting duration, in months"
        }
      },
      "startTime": {
        "return": "The start time for the vesting",
        "returns": {
          "_0": "The start time for the vesting"
        }
      },
      "token": {
        "return": "The token being vested",
        "returns": {
          "_0": "The token being vested"
        }
      }
    },
    "version": 1
  },
  "userdoc": {
    "kind": "user",
    "methods": {
      "addSale(address)": {
        "notice": "Adds an address to the list of sale contracts. Can only be called by the admin. The sale contract must implement ISale and ERC165"
      },
      "claim(address)": {
        "notice": "Claims currently claimable amount for the given address"
      },
      "claimable(address)": {
        "notice": "Calculates claimable amount of tokens for an address. This should take into account:   - total vested amount   - already claimed amount   - number of months elapsed since the end of the account's cliff period   - total number of months this account is vesting for Vesting should be lienear once cliff ends, but in monthly ticks, instead of a continuous release"
      },
      "createPrivateSaleVest(address,uint256,uint16,uint64)": {
        "notice": "Creates a new vesting with private sale parameters If the address is already registered, it does nothing. If the address has been registered in a public sale, it reverts the transaction Also checks if the private sale cap has been reached, and if so, reverts."
      },
      "refund(address)": {
        "notice": "Triggers the refund of a given address on all sales"
      }
    },
    "version": 1
  },
  "storageLayout": {
    "storage": [
      {
        "astId": 24,
        "contract": "contracts/token/Vesting.sol:Vesting",
        "label": "_roles",
        "offset": 0,
        "slot": "0",
        "type": "t_mapping(t_bytes32,t_struct(RoleData)19_storage)"
      },
      {
        "astId": 484,
        "contract": "contracts/token/Vesting.sol:Vesting",
        "label": "_status",
        "offset": 0,
        "slot": "1",
        "type": "t_uint256"
      },
      {
        "astId": 9023,
        "contract": "contracts/token/Vesting.sol:Vesting",
        "label": "claimed",
        "offset": 0,
        "slot": "2",
        "type": "t_mapping(t_address,t_uint256)"
      },
      {
        "astId": 9028,
        "contract": "contracts/token/Vesting.sol:Vesting",
        "label": "privateAllocations",
        "offset": 0,
        "slot": "3",
        "type": "t_mapping(t_address,t_struct(PrivateAllocation)9016_storage)"
      },
      {
        "astId": 9032,
        "contract": "contracts/token/Vesting.sol:Vesting",
        "label": "usedNonces",
        "offset": 0,
        "slot": "4",
        "type": "t_mapping(t_uint64,t_bool)"
      },
      {
        "astId": 9044,
        "contract": "contracts/token/Vesting.sol:Vesting",
        "label": "totalPrivateSales",
        "offset": 0,
        "slot": "5",
        "type": "t_uint256"
      },
      {
        "astId": 9047,
        "contract": "contracts/token/Vesting.sol:Vesting",
        "label": "sales",
        "offset": 0,
        "slot": "6",
        "type": "t_array(t_address)dyn_storage"
      }
    ],
    "types": {
      "t_address": {
        "encoding": "inplace",
        "label": "address",
        "numberOfBytes": "20"
      },
      "t_array(t_address)dyn_storage": {
        "base": "t_address",
        "encoding": "dynamic_array",
        "label": "address[]",
        "numberOfBytes": "32"
      },
      "t_bool": {
        "encoding": "inplace",
        "label": "bool",
        "numberOfBytes": "1"
      },
      "t_bytes32": {
        "encoding": "inplace",
        "label": "bytes32",
        "numberOfBytes": "32"
      },
      "t_mapping(t_address,t_bool)": {
        "encoding": "mapping",
        "key": "t_address",
        "label": "mapping(address => bool)",
        "numberOfBytes": "32",
        "value": "t_bool"
      },
      "t_mapping(t_address,t_struct(PrivateAllocation)9016_storage)": {
        "encoding": "mapping",
        "key": "t_address",
        "label": "mapping(address => struct Vesting.PrivateAllocation)",
        "numberOfBytes": "32",
        "value": "t_struct(PrivateAllocation)9016_storage"
      },
      "t_mapping(t_address,t_uint256)": {
        "encoding": "mapping",
        "key": "t_address",
        "label": "mapping(address => uint256)",
        "numberOfBytes": "32",
        "value": "t_uint256"
      },
      "t_mapping(t_bytes32,t_struct(RoleData)19_storage)": {
        "encoding": "mapping",
        "key": "t_bytes32",
        "label": "mapping(bytes32 => struct AccessControl.RoleData)",
        "numberOfBytes": "32",
        "value": "t_struct(RoleData)19_storage"
      },
      "t_mapping(t_uint64,t_bool)": {
        "encoding": "mapping",
        "key": "t_uint64",
        "label": "mapping(uint64 => bool)",
        "numberOfBytes": "32",
        "value": "t_bool"
      },
      "t_struct(PrivateAllocation)9016_storage": {
        "encoding": "inplace",
        "label": "struct Vesting.PrivateAllocation",
        "members": [
          {
            "astId": 9009,
            "contract": "contracts/token/Vesting.sol:Vesting",
            "label": "amount",
            "offset": 0,
            "slot": "0",
            "type": "t_uint256"
          },
          {
            "astId": 9011,
            "contract": "contracts/token/Vesting.sol:Vesting",
            "label": "claimedAmount",
            "offset": 0,
            "slot": "1",
            "type": "t_uint256"
          },
          {
            "astId": 9013,
            "contract": "contracts/token/Vesting.sol:Vesting",
            "label": "cliffMonths",
            "offset": 0,
            "slot": "2",
            "type": "t_uint256"
          },
          {
            "astId": 9015,
            "contract": "contracts/token/Vesting.sol:Vesting",
            "label": "vestingMonths",
            "offset": 0,
            "slot": "3",
            "type": "t_uint256"
          }
        ],
        "numberOfBytes": "128"
      },
      "t_struct(RoleData)19_storage": {
        "encoding": "inplace",
        "label": "struct AccessControl.RoleData",
        "members": [
          {
            "astId": 16,
            "contract": "contracts/token/Vesting.sol:Vesting",
            "label": "members",
            "offset": 0,
            "slot": "0",
            "type": "t_mapping(t_address,t_bool)"
          },
          {
            "astId": 18,
            "contract": "contracts/token/Vesting.sol:Vesting",
            "label": "adminRole",
            "offset": 0,
            "slot": "1",
            "type": "t_bytes32"
          }
        ],
        "numberOfBytes": "64"
      },
      "t_uint256": {
        "encoding": "inplace",
        "label": "uint256",
        "numberOfBytes": "32"
      },
      "t_uint64": {
        "encoding": "inplace",
        "label": "uint64",
        "numberOfBytes": "8"
      }
    }
  }
}