{
  "address": "0x831E5f6B6d8F042Ac58D774EbeAa57Fa49D0881e",
  "abi": [
    {
      "inputs": [
        {
          "internalType": "address",
          "name": "_root",
          "type": "address"
        }
      ],
      "stateMutability": "nonpayable",
      "type": "constructor"
    },
    {
      "inputs": [
        {
          "internalType": "address",
          "name": "addr",
          "type": "address"
        }
      ],
      "name": "addDelegate",
      "outputs": [],
      "stateMutability": "nonpayable",
      "type": "function"
    },
    {
      "inputs": [
        {
          "internalType": "address",
          "name": "addr",
          "type": "address"
        },
        {
          "internalType": "bytes32",
          "name": "fractalId",
          "type": "bytes32"
        }
      ],
      "name": "addUserAddress",
      "outputs": [],
      "stateMutability": "nonpayable",
      "type": "function"
    },
    {
      "inputs": [
        {
          "internalType": "bytes32",
          "name": "userId",
          "type": "bytes32"
        },
        {
          "internalType": "string",
          "name": "listId",
          "type": "string"
        }
      ],
      "name": "addUserToList",
      "outputs": [],
      "stateMutability": "nonpayable",
      "type": "function"
    },
    {
      "inputs": [
        {
          "internalType": "address",
          "name": "",
          "type": "address"
        }
      ],
      "name": "delegates",
      "outputs": [
        {
          "internalType": "bool",
          "name": "",
          "type": "bool"
        }
      ],
      "stateMutability": "view",
      "type": "function"
    },
    {
      "inputs": [
        {
          "internalType": "address",
          "name": "addr",
          "type": "address"
        }
      ],
      "name": "getFractalId",
      "outputs": [
        {
          "internalType": "bytes32",
          "name": "",
          "type": "bytes32"
        }
      ],
      "stateMutability": "view",
      "type": "function"
    },
    {
      "inputs": [
        {
          "internalType": "bytes32",
          "name": "userId",
          "type": "bytes32"
        },
        {
          "internalType": "string",
          "name": "listId",
          "type": "string"
        }
      ],
      "name": "isUserInList",
      "outputs": [
        {
          "internalType": "bool",
          "name": "",
          "type": "bool"
        }
      ],
      "stateMutability": "view",
      "type": "function"
    },
    {
      "inputs": [
        {
          "internalType": "address",
          "name": "addr",
          "type": "address"
        }
      ],
      "name": "removeDelegate",
      "outputs": [],
      "stateMutability": "nonpayable",
      "type": "function"
    },
    {
      "inputs": [
        {
          "internalType": "address",
          "name": "addr",
          "type": "address"
        }
      ],
      "name": "removeUserAddress",
      "outputs": [],
      "stateMutability": "nonpayable",
      "type": "function"
    },
    {
      "inputs": [
        {
          "internalType": "bytes32",
          "name": "userId",
          "type": "bytes32"
        },
        {
          "internalType": "string",
          "name": "listId",
          "type": "string"
        }
      ],
      "name": "removeUserFromList",
      "outputs": [],
      "stateMutability": "nonpayable",
      "type": "function"
    }
  ],
  "transactionHash": "0x54a01d81eac1ce955a130447ef4ae25787deb1d5f96f9b6f4e934c94fc9bef52",
  "args": [
    "0xC3e923e0CE5125088cDa62935056d6B5F14F234c"
  ],
  "numDeployments": 1,
  "solcInputHash": "58e06b1a81dfbe314e479b136b5097c8",
  "bytecode": "0x608060405234801561001057600080fd5b5060405161064a38038061064a83398101604081905261002f91610054565b600080546001600160a01b0319166001600160a01b0392909216919091179055610084565b60006020828403121561006657600080fd5b81516001600160a01b038116811461007d57600080fd5b9392505050565b6105b7806100936000396000f3fe608060405234801561001057600080fd5b50600436106100935760003560e01c8063a535f5e911610066578063a535f5e91461010b578063ce8767b21461011e578063d18c216e14610131578063e71bdf4114610168578063ef8b57731461017b57600080fd5b8063587cde1e1461009857806367e7646f146100d057806370491d7e146100e5578063a2af447a146100f8575b600080fd5b6100bb6100a6366004610429565b60016020526000908152604090205460ff1681565b60405190151581526020015b60405180910390f35b6100e36100de366004610429565b61018e565b005b6100e36100f3366004610461565b610221565b6100e3610106366004610429565b61026a565b6100bb610119366004610461565b61028c565b6100e361012c366004610461565b6102c4565b61015a61013f366004610429565b6001600160a01b031660009081526002602052604090205490565b6040519081526020016100c7565b6100e3610176366004610429565b610303565b6100e361018936600461051c565b610373565b6000546001600160a01b03163314806101af5750336001600160a01b038216145b6102005760405162461bcd60e51b815260206004820152601d60248201527f4e6f7420616c6c6f77656420746f2072656d6f7665206164647265737300000060448201526064015b60405180910390fd5b6001600160a01b03166000908152600160205260409020805460ff19169055565b610229610397565b600160038260405161023b9190610546565b90815260408051602092819003830190206000958652909152909220805460ff19169215159290921790915550565b610272610397565b6001600160a01b0316600090815260026020526040812055565b600060038260405161029e9190610546565b908152604080516020928190038301902060009586529091529092205460ff1692915050565b6102cc610397565b6003816040516102dc9190610546565b90815260408051602092819003830190206000948552909152909120805460ff1916905550565b6000546001600160a01b0316331461034c5760405162461bcd60e51b815260206004820152600c60248201526b135d5cdd081899481c9bdbdd60a21b60448201526064016101f7565b6001600160a01b03166000908152600160208190526040909120805460ff19169091179055565b61037b610397565b6001600160a01b03909116600090815260026020526040902055565b6000546001600160a01b03163314806103bf57503360009081526001602052604090205460ff165b61040b5760405162461bcd60e51b815260206004820152601560248201527f4e6f7420616c6c6f77656420746f206d7574617465000000000000000000000060448201526064016101f7565b565b80356001600160a01b038116811461042457600080fd5b919050565b60006020828403121561043b57600080fd5b6104448261040d565b9392505050565b634e487b7160e01b600052604160045260246000fd5b6000806040838503121561047457600080fd5b82359150602083013567ffffffffffffffff8082111561049357600080fd5b818501915085601f8301126104a757600080fd5b8135818111156104b9576104b961044b565b604051601f8201601f19908116603f011681019083821181831017156104e1576104e161044b565b816040528281528860208487010111156104fa57600080fd5b8260208601602083013760006020848301015280955050505050509250929050565b6000806040838503121561052f57600080fd5b6105388361040d565b946020939093013593505050565b6000825160005b81811015610567576020818601810151858301520161054d565b81811115610576576000828501525b50919091019291505056fea26469706673582212209bdf5790338b6fef9d0d52efd1c55317343d8ea796ae8910f9c1470803f6bf0a64736f6c634300080c0033",
  "devdoc": {
    "author": "Antoni Dikov and Shelby Doolittle",
    "kind": "dev",
    "methods": {
      "addDelegate(address)": {
        "params": {
          "addr": "is Eth address"
        }
      },
      "addUserAddress(address,bytes32)": {
        "params": {
          "addr": "is Eth address.",
          "fractalId": "is FractalId in bytes32."
        }
      },
      "addUserToList(bytes32,string)": {
        "params": {
          "listId": "is the list id.",
          "userId": "is FractalId in bytes32."
        }
      },
      "getFractalId(address)": {
        "params": {
          "addr": "is Eth address"
        },
        "returns": {
          "_0": "FractalId as bytes32"
        }
      },
      "isUserInList(bytes32,string)": {
        "params": {
          "listId": "is the list id.",
          "userId": "is FractalId in bytes32."
        },
        "returns": {
          "_0": "bool if the user is the specified list."
        }
      },
      "removeDelegate(address)": {
        "params": {
          "addr": "is Eth address"
        }
      },
      "removeUserAddress(address)": {
        "params": {
          "addr": "is Eth address."
        }
      },
      "removeUserFromList(bytes32,string)": {
        "params": {
          "listId": "is the list id.",
          "userId": "is FractalId in bytes32."
        }
      }
    },
    "title": "Fractal registry v0",
    "version": 1
  },
  "userdoc": {
    "kind": "user",
    "methods": {
      "addDelegate(address)": {
        "notice": "Only root can add delegates. Delegates have mutate permissions."
      },
      "addUserAddress(address,bytes32)": {
        "notice": "Adds a user to the mapping of Eth address to FractalId."
      },
      "addUserToList(bytes32,string)": {
        "notice": "Add user by FractalId to a specific list."
      },
      "isUserInList(bytes32,string)": {
        "notice": "Checks if a user by FractalId exists in a specific list."
      },
      "removeDelegate(address)": {
        "notice": "Removing delegates is only posible from root or by himself."
      },
      "removeUserAddress(address)": {
        "notice": "Removes an address from the mapping of Eth address to FractalId."
      },
      "removeUserFromList(bytes32,string)": {
        "notice": "Remove user by FractalId from a specific list."
      }
    },
    "version": 1
  },
  "storageLayout": {
    "storage": [
      {
        "astId": 6298,
        "contract": "contracts/fractal_registry/FractalRegistry.sol:FractalRegistry",
        "label": "root",
        "offset": 0,
        "slot": "0",
        "type": "t_address"
      },
      {
        "astId": 6302,
        "contract": "contracts/fractal_registry/FractalRegistry.sol:FractalRegistry",
        "label": "delegates",
        "offset": 0,
        "slot": "1",
        "type": "t_mapping(t_address,t_bool)"
      },
      {
        "astId": 6306,
        "contract": "contracts/fractal_registry/FractalRegistry.sol:FractalRegistry",
        "label": "fractalIdForAddress",
        "offset": 0,
        "slot": "2",
        "type": "t_mapping(t_address,t_bytes32)"
      },
      {
        "astId": 6312,
        "contract": "contracts/fractal_registry/FractalRegistry.sol:FractalRegistry",
        "label": "userLists",
        "offset": 0,
        "slot": "3",
        "type": "t_mapping(t_string_memory_ptr,t_mapping(t_bytes32,t_bool))"
      }
    ],
    "types": {
      "t_address": {
        "encoding": "inplace",
        "label": "address",
        "numberOfBytes": "20"
      },
      "t_bool": {
        "encoding": "inplace",
        "label": "bool",
        "numberOfBytes": "1"
      },
      "t_bytes32": {
        "encoding": "inplace",
        "label": "bytes32",
        "numberOfBytes": "32"
      },
      "t_mapping(t_address,t_bool)": {
        "encoding": "mapping",
        "key": "t_address",
        "label": "mapping(address => bool)",
        "numberOfBytes": "32",
        "value": "t_bool"
      },
      "t_mapping(t_address,t_bytes32)": {
        "encoding": "mapping",
        "key": "t_address",
        "label": "mapping(address => bytes32)",
        "numberOfBytes": "32",
        "value": "t_bytes32"
      },
      "t_mapping(t_bytes32,t_bool)": {
        "encoding": "mapping",
        "key": "t_bytes32",
        "label": "mapping(bytes32 => bool)",
        "numberOfBytes": "32",
        "value": "t_bool"
      },
      "t_mapping(t_string_memory_ptr,t_mapping(t_bytes32,t_bool))": {
        "encoding": "mapping",
        "key": "t_string_memory_ptr",
        "label": "mapping(string => mapping(bytes32 => bool))",
        "numberOfBytes": "32",
        "value": "t_mapping(t_bytes32,t_bool)"
      },
      "t_string_memory_ptr": {
        "encoding": "bytes",
        "label": "string",
        "numberOfBytes": "32"
      }
    }
  }
}