{
  "address": "0x34C66aD7d23AC276CcBaE5403FC7d39FE98F6C44",
  "abi": [
    {
      "inputs": [
        {
          "internalType": "address",
          "name": "_registry",
          "type": "address"
        },
        {
          "internalType": "address",
          "name": "_staking",
          "type": "address"
        },
        {
          "internalType": "address",
          "name": "_token",
          "type": "address"
        }
      ],
      "stateMutability": "nonpayable",
      "type": "constructor"
    },
    {
      "anonymous": false,
      "inputs": [
        {
          "indexed": false,
          "internalType": "address",
          "name": "batch",
          "type": "address"
        }
      ],
      "name": "BatchCreated",
      "type": "event"
    },
    {
      "anonymous": false,
      "inputs": [
        {
          "indexed": false,
          "internalType": "address",
          "name": "project",
          "type": "address"
        }
      ],
      "name": "ProjectRegistered",
      "type": "event"
    },
    {
      "anonymous": false,
      "inputs": [
        {
          "indexed": true,
          "internalType": "bytes32",
          "name": "role",
          "type": "bytes32"
        },
        {
          "indexed": true,
          "internalType": "bytes32",
          "name": "previousAdminRole",
          "type": "bytes32"
        },
        {
          "indexed": true,
          "internalType": "bytes32",
          "name": "newAdminRole",
          "type": "bytes32"
        }
      ],
      "name": "RoleAdminChanged",
      "type": "event"
    },
    {
      "anonymous": false,
      "inputs": [
        {
          "indexed": true,
          "internalType": "bytes32",
          "name": "role",
          "type": "bytes32"
        },
        {
          "indexed": true,
          "internalType": "address",
          "name": "account",
          "type": "address"
        },
        {
          "indexed": true,
          "internalType": "address",
          "name": "sender",
          "type": "address"
        }
      ],
      "name": "RoleGranted",
      "type": "event"
    },
    {
      "anonymous": false,
      "inputs": [
        {
          "indexed": true,
          "internalType": "bytes32",
          "name": "role",
          "type": "bytes32"
        },
        {
          "indexed": true,
          "internalType": "address",
          "name": "account",
          "type": "address"
        },
        {
          "indexed": true,
          "internalType": "address",
          "name": "sender",
          "type": "address"
        }
      ],
      "name": "RoleRevoked",
      "type": "event"
    },
    {
      "inputs": [],
      "name": "BATCH_MANAGER_ROLE",
      "outputs": [
        {
          "internalType": "bytes32",
          "name": "",
          "type": "bytes32"
        }
      ],
      "stateMutability": "view",
      "type": "function"
    },
    {
      "inputs": [],
      "name": "DEFAULT_ADMIN_ROLE",
      "outputs": [
        {
          "internalType": "bytes32",
          "name": "",
          "type": "bytes32"
        }
      ],
      "stateMutability": "view",
      "type": "function"
    },
    {
      "inputs": [],
      "name": "LEGAL_MANAGER_ROLE",
      "outputs": [
        {
          "internalType": "bytes32",
          "name": "",
          "type": "bytes32"
        }
      ],
      "stateMutability": "view",
      "type": "function"
    },
    {
      "inputs": [],
      "name": "PROJECT_MANAGER_ROLE",
      "outputs": [
        {
          "internalType": "bytes32",
          "name": "",
          "type": "bytes32"
        }
      ],
      "stateMutability": "view",
      "type": "function"
    },
    {
      "inputs": [
        {
          "internalType": "address",
          "name": "_project",
          "type": "address"
        },
        {
          "internalType": "address",
          "name": "_user",
          "type": "address"
        }
      ],
      "name": "canInvestInPeoplesPool",
      "outputs": [
        {
          "internalType": "bool",
          "name": "",
          "type": "bool"
        }
      ],
      "stateMutability": "view",
      "type": "function"
    },
    {
      "inputs": [
        {
          "internalType": "address",
          "name": "_user",
          "type": "address"
        }
      ],
      "name": "canInvestInStakersPool",
      "outputs": [
        {
          "internalType": "bool",
          "name": "",
          "type": "bool"
        }
      ],
      "stateMutability": "view",
      "type": "function"
    },
    {
      "inputs": [
        {
          "internalType": "address",
          "name": "_user",
          "type": "address"
        }
      ],
      "name": "canVote",
      "outputs": [
        {
          "internalType": "bool",
          "name": "",
          "type": "bool"
        }
      ],
      "stateMutability": "view",
      "type": "function"
    },
    {
      "inputs": [
        {
          "internalType": "address[]",
          "name": "_projects",
          "type": "address[]"
        },
        {
          "internalType": "uint256",
          "name": "_slotCount",
          "type": "uint256"
        }
      ],
      "name": "createBatch",
      "outputs": [],
      "stateMutability": "nonpayable",
      "type": "function"
    },
    {
      "inputs": [
        {
          "internalType": "address",
          "name": "_project",
          "type": "address"
        }
      ],
      "name": "getBatchForProject",
      "outputs": [
        {
          "internalType": "address",
          "name": "",
          "type": "address"
        }
      ],
      "stateMutability": "view",
      "type": "function"
    },
    {
      "inputs": [
        {
          "internalType": "bytes32",
          "name": "role",
          "type": "bytes32"
        }
      ],
      "name": "getRoleAdmin",
      "outputs": [
        {
          "internalType": "bytes32",
          "name": "",
          "type": "bytes32"
        }
      ],
      "stateMutability": "view",
      "type": "function"
    },
    {
      "inputs": [
        {
          "internalType": "bytes32",
          "name": "role",
          "type": "bytes32"
        },
        {
          "internalType": "address",
          "name": "account",
          "type": "address"
        }
      ],
      "name": "grantRole",
      "outputs": [],
      "stateMutability": "nonpayable",
      "type": "function"
    },
    {
      "inputs": [
        {
          "internalType": "address",
          "name": "_account",
          "type": "address"
        }
      ],
      "name": "hasBatchManagerRole",
      "outputs": [
        {
          "internalType": "bool",
          "name": "",
          "type": "bool"
        }
      ],
      "stateMutability": "view",
      "type": "function"
    },
    {
      "inputs": [
        {
          "internalType": "address",
          "name": "_account",
          "type": "address"
        }
      ],
      "name": "hasLegalManagerRole",
      "outputs": [
        {
          "internalType": "bool",
          "name": "",
          "type": "bool"
        }
      ],
      "stateMutability": "view",
      "type": "function"
    },
    {
      "inputs": [
        {
          "internalType": "address",
          "name": "_account",
          "type": "address"
        }
      ],
      "name": "hasProjectManagerRole",
      "outputs": [
        {
          "internalType": "bool",
          "name": "",
          "type": "bool"
        }
      ],
      "stateMutability": "view",
      "type": "function"
    },
    {
      "inputs": [
        {
          "internalType": "bytes32",
          "name": "role",
          "type": "bytes32"
        },
        {
          "internalType": "address",
          "name": "account",
          "type": "address"
        }
      ],
      "name": "hasRole",
      "outputs": [
        {
          "internalType": "bool",
          "name": "",
          "type": "bool"
        }
      ],
      "stateMutability": "view",
      "type": "function"
    },
    {
      "inputs": [
        {
          "internalType": "address",
          "name": "_project",
          "type": "address"
        },
        {
          "internalType": "address",
          "name": "_batch",
          "type": "address"
        }
      ],
      "name": "isProjectInBatch",
      "outputs": [
        {
          "internalType": "bool",
          "name": "",
          "type": "bool"
        }
      ],
      "stateMutability": "view",
      "type": "function"
    },
    {
      "inputs": [
        {
          "internalType": "address",
          "name": "",
          "type": "address"
        }
      ],
      "name": "projects",
      "outputs": [
        {
          "internalType": "bool",
          "name": "",
          "type": "bool"
        }
      ],
      "stateMutability": "view",
      "type": "function"
    },
    {
      "inputs": [
        {
          "internalType": "address",
          "name": "",
          "type": "address"
        }
      ],
      "name": "projectsToBatches",
      "outputs": [
        {
          "internalType": "address",
          "name": "",
          "type": "address"
        }
      ],
      "stateMutability": "view",
      "type": "function"
    },
    {
      "inputs": [
        {
          "internalType": "string",
          "name": "_description",
          "type": "string"
        },
        {
          "internalType": "address",
          "name": "_token",
          "type": "address"
        },
        {
          "internalType": "uint256",
          "name": "_saleSupply",
          "type": "uint256"
        },
        {
          "internalType": "uint256",
          "name": "_rate",
          "type": "uint256"
        }
      ],
      "name": "registerProject",
      "outputs": [],
      "stateMutability": "nonpayable",
      "type": "function"
    },
    {
      "inputs": [],
      "name": "registry",
      "outputs": [
        {
          "internalType": "address",
          "name": "",
          "type": "address"
        }
      ],
      "stateMutability": "view",
      "type": "function"
    },
    {
      "inputs": [
        {
          "internalType": "bytes32",
          "name": "role",
          "type": "bytes32"
        },
        {
          "internalType": "address",
          "name": "account",
          "type": "address"
        }
      ],
      "name": "renounceRole",
      "outputs": [],
      "stateMutability": "nonpayable",
      "type": "function"
    },
    {
      "inputs": [
        {
          "internalType": "bytes32",
          "name": "role",
          "type": "bytes32"
        },
        {
          "internalType": "address",
          "name": "account",
          "type": "address"
        }
      ],
      "name": "revokeRole",
      "outputs": [],
      "stateMutability": "nonpayable",
      "type": "function"
    },
    {
      "inputs": [
        {
          "internalType": "address",
          "name": "batch",
          "type": "address"
        },
        {
          "internalType": "uint256",
          "name": "start",
          "type": "uint256"
        },
        {
          "internalType": "uint256",
          "name": "end",
          "type": "uint256"
        },
        {
          "internalType": "uint256",
          "name": "extraInvestmentDuration",
          "type": "uint256"
        }
      ],
      "name": "setBatchVotingPeriod",
      "outputs": [],
      "stateMutability": "nonpayable",
      "type": "function"
    },
    {
      "inputs": [],
      "name": "staking",
      "outputs": [
        {
          "internalType": "address",
          "name": "",
          "type": "address"
        }
      ],
      "stateMutability": "view",
      "type": "function"
    },
    {
      "inputs": [
        {
          "internalType": "bytes4",
          "name": "interfaceId",
          "type": "bytes4"
        }
      ],
      "name": "supportsInterface",
      "outputs": [
        {
          "internalType": "bool",
          "name": "",
          "type": "bool"
        }
      ],
      "stateMutability": "view",
      "type": "function"
    },
    {
      "inputs": [],
      "name": "token",
      "outputs": [
        {
          "internalType": "address",
          "name": "",
          "type": "address"
        }
      ],
      "stateMutability": "view",
      "type": "function"
    }
  ],
  "transactionHash": "0x5a97e297e2aa1939a11b5ec8acbc8c17d39946eeede34bfe4b4ab92d19252a8c",
  "args": [
    "0x6830cF073502ae892f335B2E8c4555BfC2287BD9",
    "0xA73292e0CeD7F1150e9E7d0f09e82a3640C87aCc",
    "0x84879D9635B3f64fB4fc170A130524d708762808"
  ],
  "numDeployments": 1,
  "solcInputHash": "dfb224aae55ceb1d52b02ce7efbb10f7",
  "bytecode": "0x60806040523480156200001157600080fd5b5060405162005bbb38038062005bbb8339810160408190526200003491620001c9565b600480546001600160a01b038086166001600160a01b0319928316179092556003805485841690831617905560058054928416929091169190911790556200007e6000336200010b565b620000aa7fa88d484f5aeb539ab60f9bd084e23511bc356a4f715a255e909643bb69ddcb41336200010b565b620000d67f28eb28c26cbbd48a6bfad016505ccf4a189452995f59d16217af8920961ed25c336200010b565b620001027ffbe1c1e064e33268dfb07e8ec24bb5d882bde92a088196f7cbea3ea66117a7a7336200010b565b50505062000213565b6000828152602081815260408083206001600160a01b038516845290915290205460ff16620001a8576000828152602081815260408083206001600160a01b03851684529091529020805460ff19166001179055620001673390565b6001600160a01b0316816001600160a01b0316837f2f8788117e7eff1d82e926ec794901d17c78024a50270940304540a733656f0d60405160405180910390a45b5050565b80516001600160a01b0381168114620001c457600080fd5b919050565b600080600060608486031215620001df57600080fd5b620001ea84620001ac565b9250620001fa60208501620001ac565b91506200020a60408501620001ac565b90509250925092565b61599880620002236000396000f3fe60806040523480156200001157600080fd5b5060043610620001d15760003560e01c80637b1039991162000101578063a217fddf11620000a3578063d547741f116200007a578063d547741f14620004b8578063d7fd21761462000402578063e9719c8714620004cf578063fc0c546a14620004e657600080fd5b8063a217fddf1462000481578063adfaa72e146200048a578063c73bcb9414620004a157600080fd5b80638b6e57b211620000d85780638b6e57b214620004195780638de07d9f146200043057806391d14854146200044757600080fd5b80637b10399914620003c8578063840e78fd14620003dc5780638705130b146200040257600080fd5b806329c76a73116200017757806342958a81116200014e57806342958a811462000342578063490e221614620003755780634cf088d9146200039d578063512d3fff14620003b157600080fd5b806329c76a7314620002ec5780632f2ff15d146200031457806336568abe146200032b57600080fd5b806316b27e0411620001ac57806316b27e0414620002815780632101b71a146200029a578063248a9ca314620002c657600080fd5b806301ffc9a714620001d65780630978dc8b14620002025780630f50d813146200024a575b600080fd5b620001ed620001e7366004620010e1565b620004fa565b60405190151581526020015b60405180910390f35b62000231620002133660046200112a565b6001600160a01b039081166000908152600260205260409020541690565b6040516001600160a01b039091168152602001620001f9565b620002727f28eb28c26cbbd48a6bfad016505ccf4a189452995f59d16217af8920961ed25c81565b604051908152602001620001f9565b620002986200029236600462001148565b62000528565b005b62000231620002ab3660046200112a565b6002602052600090815260409020546001600160a01b031681565b62000272620002d736600462001184565b60009081526020819052604090206001015490565b620002727fa88d484f5aeb539ab60f9bd084e23511bc356a4f715a255e909643bb69ddcb4181565b62000298620003253660046200119e565b620005c6565b620002986200033c3660046200119e565b620005f5565b620001ed62000353366004620011cd565b6001600160a01b03918216600090815260026020526040902054821691161490565b620002727ffbe1c1e064e33268dfb07e8ec24bb5d882bde92a088196f7cbea3ea66117a7a781565b60035462000231906001600160a01b031681565b62000298620003c2366004620011fc565b6200067b565b60045462000231906001600160a01b031681565b620001ed620003ed3660046200112a565b60016020526000908152604090205460ff1681565b620001ed620004133660046200112a565b62000922565b620001ed6200042a3660046200112a565b62000963565b620001ed620004413660046200112a565b620009a4565b620001ed620004583660046200119e565b6000918252602082815260408084206001600160a01b0393909316845291905290205460ff1690565b62000272600081565b620001ed6200049b3660046200112a565b62000a3e565b620001ed620004b2366004620011cd565b62000a5e565b62000298620004c93660046200119e565b62000b1e565b62000298620004e03660046200127c565b62000b48565b60055462000231906001600160a01b031681565b60006001600160e01b03198216635eb1ec9760e01b1480620005225750620005228262000bf6565b92915050565b7f28eb28c26cbbd48a6bfad016505ccf4a189452995f59d16217af8920961ed25c62000555813362000c2d565b60405163b85cf17760e01b81526004810185905260248101849052604481018390526001600160a01b0386169063b85cf17790606401600060405180830381600087803b158015620005a657600080fd5b505af1158015620005bb573d6000803e3d6000fd5b505050505050505050565b600082815260208190526040902060010154620005e4813362000c2d565b620005f0838362000cb4565b505050565b6001600160a01b03811633146200066b5760405162461bcd60e51b815260206004820152602f60248201527f416363657373436f6e74726f6c3a2063616e206f6e6c792072656e6f756e636560448201526e103937b632b9903337b91039b2b63360891b60648201526084015b60405180910390fd5b62000677828262000d54565b5050565b7f28eb28c26cbbd48a6bfad016505ccf4a189452995f59d16217af8920961ed25c620006a8813362000c2d565b6000848484604051620006bb90620010c5565b620006c99392919062001316565b604051809103906000f080158015620006e6573d6000803e3d6000fd5b5090508360005b81811015620008dd5760008787838181106200070d576200070d6200136e565b90506020020160208101906200072491906200112a565b6001600160a01b03811660009081526001602052604090205490915060ff16620007875760405162461bcd60e51b81526020600482015260136024820152721b9bdd0818481adb9bdddb881c1c9bda9958dd606a1b604482015260640162000662565b806001600160a01b031663d21705156040518163ffffffff1660e01b8152600401602060405180830381865afa158015620007c6573d6000803e3d6000fd5b505050506040513d601f19601f82011682018060405250810190620007ec919062001384565b6200082e5760405162461bcd60e51b815260206004820152601160248201527070726f6a656374206e6f7420726561647960781b604482015260640162000662565b6001600160a01b0381811660009081526002602052604090205416156200088d5760405162461bcd60e51b81526020600482015260126024820152710c2d8e4cac2c8f240d2dc40c240c4c2e8c6d60731b604482015260640162000662565b6001600160a01b039081166000908152600260205260409020805473ffffffffffffffffffffffffffffffffffffffff191691851691909117905580620008d481620013be565b915050620006ed565b506040516001600160a01b03831681527fcc2b0054ce052d2e9c62f1c7e4b5e160ca2d5debd20c7f43ddd1d1c210252f689060200160405180910390a1505050505050565b6001600160a01b03811660009081527f0eca2fdc6ecf34558d66be619b512eb8aeceae095ef0d035077dd168378bea5f602052604081205460ff1662000522565b6001600160a01b03811660009081527f0beaf284d6500f9045213f3d900c4b07f5b63bfcb6036ce1569f5385ec1728fc602052604081205460ff1662000522565b6000620009b18262000dd4565b8015620009c45750620009c48262000e54565b801562000522575060035460405163324f23cd60e21b81526001600160a01b0384811660048301529091169063c93c8f34906024015b602060405180830381865afa15801562000a18573d6000803e3d6000fd5b505050506040513d601f19601f8201168201806040525081019062000522919062001384565b600062000a4b8262000dd4565b8015620005225750620005228262000e54565b6001600160a01b0380831660009081526002602052604081205490911662000a868362000dd4565b801562000a99575062000a998362000e54565b801562000b165750604051634fc93c3760e11b81526001600160a01b0385811660048301528481166024830152821690639f92786e90604401602060405180830381865afa15801562000af0573d6000803e3d6000fd5b505050506040513d601f19601f8201168201806040525081019062000b16919062001384565b949350505050565b60008281526020819052604090206001015462000b3c813362000c2d565b620005f0838362000d54565b6000858585858560405162000b5d90620010d3565b62000b6d959493929190620013dc565b604051809103906000f08015801562000b8a573d6000803e3d6000fd5b506040516001600160a01b03821681529091507fe6c3ff59790315a93d7da11ca1914b7c858abab4205874f40cfecaf8b9c292e99060200160405180910390a16001600160a01b03166000908152600160208190526040909120805460ff191690911790555050505050565b60006001600160e01b03198216637965db0b60e01b14806200052257506301ffc9a760e01b6001600160e01b031983161462000522565b6000828152602081815260408083206001600160a01b038516845290915290205460ff16620006775762000c6c816001600160a01b0316601462000f04565b62000c7983602062000f04565b60405160200162000c8c9291906200145f565b60408051601f198184030181529082905262461bcd60e51b82526200066291600401620014d8565b6000828152602081815260408083206001600160a01b038516845290915290205460ff1662000677576000828152602081815260408083206001600160a01b03851684529091529020805460ff1916600117905562000d103390565b6001600160a01b0316816001600160a01b0316837f2f8788117e7eff1d82e926ec794901d17c78024a50270940304540a733656f0d60405160405180910390a45050565b6000828152602081815260408083206001600160a01b038516845290915290205460ff161562000677576000828152602081815260408083206001600160a01b0385168085529252808320805460ff1916905551339285917ff6391f5c32d9c69d2a47ea670b442974b53935d1edc7fd64eb21e047a839171b9190a45050565b600480546040516368c610b760e11b81526001600160a01b03848116938201939093526000928392169063d18c216e90602401602060405180830381865afa15801562000e25573d6000803e3d6000fd5b505050506040513d601f19601f8201168201806040525081019062000e4b91906200150d565b15159392505050565b6005546040516370a0823160e01b81526001600160a01b03838116600483015260009283929116906370a0823190602401602060405180830381865afa15801562000ea3573d6000803e3d6000fd5b505050506040513d601f19601f8201168201806040525081019062000ec991906200150d565b118062000522575060035460405163324f23cd60e21b81526001600160a01b0384811660048301529091169063c93c8f3490602401620009fa565b6060600062000f1583600262001527565b62000f2290600262001549565b67ffffffffffffffff81111562000f3d5762000f3d62001564565b6040519080825280601f01601f19166020018201604052801562000f68576020820181803683370190505b509050600360fc1b8160008151811062000f865762000f866200136e565b60200101906001600160f81b031916908160001a905350600f60fb1b8160018151811062000fb85762000fb86200136e565b60200101906001600160f81b031916908160001a905350600062000fde84600262001527565b62000feb90600162001549565b90505b60018111156200106d576f181899199a1a9b1b9c1cb0b131b232b360811b85600f16601081106200102357620010236200136e565b1a60f81b8282815181106200103c576200103c6200136e565b60200101906001600160f81b031916908160001a90535060049490941c9362001065816200157a565b905062000fee565b508315620010be5760405162461bcd60e51b815260206004820181905260248201527f537472696e67733a20686578206c656e67746820696e73756666696369656e74604482015260640162000662565b9392505050565b61251d806200159583390190565b611eb18062003ab283390190565b600060208284031215620010f457600080fd5b81356001600160e01b031981168114620010be57600080fd5b80356001600160a01b03811681146200112557600080fd5b919050565b6000602082840312156200113d57600080fd5b620010be826200110d565b600080600080608085870312156200115f57600080fd5b6200116a856200110d565b966020860135965060408601359560600135945092505050565b6000602082840312156200119757600080fd5b5035919050565b60008060408385031215620011b257600080fd5b82359150620011c4602084016200110d565b90509250929050565b60008060408385031215620011e157600080fd5b620011ec836200110d565b9150620011c4602084016200110d565b6000806000604084860312156200121257600080fd5b833567ffffffffffffffff808211156200122b57600080fd5b818601915086601f8301126200124057600080fd5b8135818111156200125057600080fd5b8760208260051b85010111156200126657600080fd5b6020928301989097509590910135949350505050565b6000806000806000608086880312156200129557600080fd5b853567ffffffffffffffff80821115620012ae57600080fd5b818801915088601f830112620012c357600080fd5b813581811115620012d357600080fd5b896020828501011115620012e657600080fd5b602092830197509550620012fe91880190506200110d565b94979396509394604081013594506060013592915050565b6040808252810183905260008460608301825b868110156200135b576001600160a01b0362001345846200110d565b1682526020928301929091019060010162001329565b5060209390930193909352509392505050565b634e487b7160e01b600052603260045260246000fd5b6000602082840312156200139757600080fd5b81518015158114620010be57600080fd5b634e487b7160e01b600052601160045260246000fd5b6000600019821415620013d557620013d5620013a8565b5060010190565b60808152846080820152848660a0830137600060a08683010152600060a0601f19601f88011683010190506001600160a01b03851660208301528360408301528260608301529695505050505050565b60005b83811015620014495781810151838201526020016200142f565b8381111562001459576000848401525b50505050565b7f416363657373436f6e74726f6c3a206163636f756e7420000000000000000000815260008351620014998160178501602088016200142c565b7001034b99036b4b9b9b4b733903937b6329607d1b6017918401918201528351620014cc8160288401602088016200142c565b01602801949350505050565b6020815260008251806020840152620014f98160408501602087016200142c565b601f01601f19169190910160400192915050565b6000602082840312156200152057600080fd5b5051919050565b6000816000190483118215151615620015445762001544620013a8565b500290565b600082198211156200155f576200155f620013a8565b500190565b634e487b7160e01b600052604160045260246000fd5b6000816200158c576200158c620013a8565b50600019019056fe60c06040523480156200001157600080fd5b506040516200251d3803806200251d8339810160408190526200003491620005a3565b8160005b81518110156200014157600080546001810182559080527f290decd9548b62a8d60345a988386fc84ba6bc95484008f6362f93160ef3e5636008820401805460079092166004026101000a63ffffffff021990911690558151829082908110620000a657620000a66200067d565b60200260200101516002600083815260200190815260200160002060006101000a8154816001600160a01b0302191690836001600160a01b031602179055508060036000848481518110620000ff57620000ff6200067d565b60200260200101516001600160a01b03166001600160a01b03168152602001908152602001600020819055508080620001389062000693565b91505062000038565b5050815180620001985760405162461bcd60e51b815260206004820152601a60248201527f70726f6a65637473206d757374206e6f7420626520656d70747900000000000060448201526064015b60405180910390fd5b60008211620001ea5760405162461bcd60e51b815260206004820181905260248201527f736c6f74436f756e74206d7573742062652067726561746572207468616e203060448201526064016200018f565b80821115620002485760405162461bcd60e51b8152602060048201526024808201527f63616e6e6f742068617665206d6f726520736c6f7473207468616e2070726f6a6044820152636563747360e01b60648201526084016200018f565b60005b81811015620002fd576200029a63154777d960e11b8583815181106200027557620002756200067d565b60200260200101516001600160a01b03166200039b60201b62000a1f1790919060201c565b620002e85760405162461bcd60e51b815260206004820152601b60248201527f70726f6a656374206d75737420626520616e204950726f6a656374000000000060448201526064016200018f565b80620002f48162000693565b9150506200024b565b5062000328635eb1ec9760e01b336001600160a01b03166200039b60201b62000a1f1790919060201c565b620003765760405162461bcd60e51b815260206004820152601d60248201527f73656e646572206d75737420626520616e2049436f6e74726f6c6c657200000060448201526064016200018f565b3360a05282516200038f90600a906020860190620004ef565b50506080525062000726565b6000620003a883620003c5565b8015620003bc5750620003bc8383620003fd565b90505b92915050565b6000620003da826301ffc9a760e01b620003fd565b8015620003bf5750620003f6826001600160e01b0319620003fd565b1592915050565b604080516001600160e01b0319831660248083019190915282518083039091018152604490910182526020810180516001600160e01b03166301ffc9a760e01b179052905160009190829081906001600160a01b038716906175309062000466908690620006bd565b6000604051808303818686fa925050503d8060008114620004a4576040519150601f19603f3d011682016040523d82523d6000602084013e620004a9565b606091505b5091509150602081511015620004c65760009350505050620003bf565b818015620004e5575080806020019051810190620004e59190620006fb565b9695505050505050565b82805482825590600052602060002090810192821562000547579160200282015b828111156200054757825182546001600160a01b0319166001600160a01b0390911617825560209092019160019091019062000510565b506200055592915062000559565b5090565b5b808211156200055557600081556001016200055a565b634e487b7160e01b600052604160045260246000fd5b80516001600160a01b03811681146200059e57600080fd5b919050565b60008060408385031215620005b757600080fd5b82516001600160401b0380821115620005cf57600080fd5b818501915085601f830112620005e457600080fd5b8151602082821115620005fb57620005fb62000570565b8160051b604051601f19603f8301168101818110868211171562000623576200062362000570565b6040529283528183019350848101820192898411156200064257600080fd5b948201945b838610156200066b576200065b8662000586565b8552948201949382019362000647565b97909101519698969750505050505050565b634e487b7160e01b600052603260045260246000fd5b6000600019821415620006b657634e487b7160e01b600052601160045260246000fd5b5060010190565b6000825160005b81811015620006e05760208186018101518583015201620006c4565b81811115620006f0576000828501525b509190910192915050565b6000602082840312156200070e57600080fd5b815180151581146200071f57600080fd5b9392505050565b60805160a051611dbc62000761600039600081816103d7015281816106d301526108d70152600081816103a701526109710152611dbc6000f3fe608060405234801561001057600080fd5b506004361061017d5760003560e01c80638b6aef15116100e3578063dddc40471161008c578063f3d0748011610066578063f3d07480146103c9578063f77c4791146103d2578063fe9bfe2c146103f957600080fd5b8063dddc404714610393578063e555df8d1461039a578063ed08fa80146103a257600080fd5b8063a3bc9336116100bd578063a3bc933614610362578063b75bf79614610377578063b85cf1771461038057600080fd5b80638b6aef15146102e95780638f3a4342146102f65780639f92786e1461033457600080fd5b8063548d77121161014557806368a57a021161011f57806368a57a021461029c5780636dd7d8ea146102b4578063713cdaa8146102c957600080fd5b8063548d77121461024c5780635df813301461025457806361eb38361461027c57600080fd5b806302a251a314610182578063107046bd146101aa5780631337abdd146101d557806317d65d171461020357806351700f4c1461022c575b600080fd5b600b54600c54610190919082565b604080519283526020830191909152015b60405180910390f35b6101bd6101b83660046119a9565b610419565b6040516001600160a01b0390911681526020016101a1565b6101f56101e33660046119d9565b60056020526000908152604090205481565b6040519081526020016101a1565b6101bd6102113660046119a9565b6002602052600090815260409020546001600160a01b031681565b6101f561023a3660046119d9565b60066020526000908152604090205481565b600e546101f5565b6102676102623660046119a9565b610443565b60405163ffffffff90911681526020016101a1565b61028f61028a3660046119d9565b61047d565b6040516101a19190611a0a565b6102a46105b2565b60405190151581526020016101a1565b6102c76102c23660046119d9565b6105d0565b005b6101f56102d73660046119d9565b60046020526000908152604090205481565b66b1a2bc2ec500006101f5565b604080518082018252600080825260209182015281518083018352600b54808252600c549183019182528351908152905191810191909152016101a1565b6102a4610342366004611a32565b600760209081526000928352604080842090915290825290205460ff1681565b61036a610794565b6040516101a19190611a65565b6101f5600e5481565b6102c761038e366004611ab2565b61082d565b60006101f5565b61036a6109bd565b6101f57f000000000000000000000000000000000000000000000000000000000000000081565b6101f5600d5481565b6101bd7f000000000000000000000000000000000000000000000000000000000000000081565b6101f56104073660046119d9565b60036020526000908152604090205481565b600a818154811061042957600080fd5b6000918252602090912001546001600160a01b0316905081565b6000818154811061045357600080fd5b9060005260206000209060089182820401919006600402915054906101000a900463ffffffff1681565b600b546000906104cc5760405162461bcd60e51b81526020600482015260156024820152741d9bdd1a5b99c81c195c9a5bd9081b9bdd081cd95d605a1b60448201526064015b60405180910390fd5b600c546105135760405162461bcd60e51b81526020600482015260156024820152741d9bdd1a5b99c81c195c9a5bd9081b9bdd081cd95d605a1b60448201526064016104c3565b600061051d610a44565b905060005b815181101561057a57836001600160a01b031682828151811061054757610547611ade565b60200260200101516001600160a01b03161415610568575060019392505050565b8061057281611b0a565b915050610522565b50600c5442111561058e5750600292915050565b50506001600160a01b03811660009081526008602052604090205460ff165b919050565b600042600b60000154101580156105cb575042600d5411155b905090565b600b546106175760405162461bcd60e51b81526020600482015260156024820152741d9bdd1a5b99c81c195c9a5bd9081b9bdd081cd95d605a1b60448201526064016104c3565b600c5461065e5760405162461bcd60e51b81526020600482015260156024820152741d9bdd1a5b99c81c195c9a5bd9081b9bdd081cd95d605a1b60448201526064016104c3565b600c5442118015906106725750600b544210155b6106be5760405162461bcd60e51b815260206004820152601860248201527f6f757473696465206f6620766f74696e6720706572696f64000000000000000060448201526064016104c3565b6040516356fd539760e11b81523360048201527f00000000000000000000000000000000000000000000000000000000000000006001600160a01b03169063adfaa72e90602401602060405180830381865afa158015610722573d6000803e3d6000fd5b505050506040513d601f19601f820116820180604052508101906107469190611b25565b6107885760405162461bcd60e51b81526020600482015260136024820152726e6f7420616c6c6f77656420746f20766f746560681b60448201526064016104c3565b61079181610e43565b50565b600b546060906107de5760405162461bcd60e51b81526020600482015260156024820152741d9bdd1a5b99c81c195c9a5bd9081b9bdd081cd95d605a1b60448201526064016104c3565b600c546108255760405162461bcd60e51b81526020600482015260156024820152741d9bdd1a5b99c81c195c9a5bd9081b9bdd081cd95d605a1b60448201526064016104c3565b6105cb610a44565b4283101561087d5760405162461bcd60e51b815260206004820152601b60248201527f7374617274206d75737420626520696e2074686520667574757265000000000060448201526064016104c3565b8183106108cc5760405162461bcd60e51b815260206004820152601860248201527f7374617274206d757374206265206265666f726520656e64000000000000000060448201526064016104c3565b336001600160a01b037f000000000000000000000000000000000000000000000000000000000000000016146109525760405162461bcd60e51b815260206004820152602560248201527f6f6e6c7920636f6e74726f6c6c65722063616e2073657420766f74696e672070604482015264195c9a5bd960da1b60648201526084016104c3565b60408051808201909152838152602001829052600b839055600c8290557f000000000000000000000000000000000000000000000000000000000000000061099a8484611b4e565b6109a49190611b7b565b600e55600c546109b5908290611b8f565b600d55505050565b6060600a805480602002602001604051908101604052809291908181526020018280548015610a1557602002820191906000526020600020905b81546001600160a01b031681526001909101906020018083116109f7575b5050505050905090565b6000610a2a836110c5565b8015610a3b5750610a3b83836110f8565b90505b92915050565b6060610a7460408051808201825260008082526020918201528151808301909252600b548252600c549082015290565b51421015610ada576001805480602002602001604051908101604052809291908181526020018280548015610a15576020028201919060005260206000209081546001600160a01b031681526001909101906020018083116109f7575050505050905090565b6001546000610ae76111e1565b90506000610af76009548361126d565b60005490915083821415610b69576001805480602002602001604051908101604052809291908181526020018280548015610b5b57602002820191906000526020600020905b81546001600160a01b03168152600190910190602001808311610b3d575b505050505094505050505090565b60008167ffffffffffffffff811115610b8457610b84611ba7565b604051908082528060200260200182016040528015610bc957816020015b6040805180820190915260008082526020820152815260200190600190039081610ba25790505b50905060008367ffffffffffffffff811115610be757610be7611ba7565b604051908082528060200260200182016040528015610c10578160200160208202803683370190505b50905060005b83811015610c8657604080518082018252828152600083815260026020908152838220546001600160a01b031682526006815292902054918101919091528351849083908110610c6857610c68611ade565b60200260200101819052508080610c7e90611b0a565b915050610c16565b5060005b86811015610d205760006003600060018481548110610cab57610cab611ade565b60009182526020808320909101546001600160a01b031683528201929092526040019020548451909150849082908110610ce757610ce7611ade565b60200260200101610d0b604051806040016040528060008152602001600081525090565b90525080610d1881611b0a565b915050610c8a565b50610d2a82611283565b915060005b86811015610da45760018181548110610d4a57610d4a611ade565b9060005260206000200160009054906101000a90046001600160a01b0316828281518110610d7a57610d7a611ade565b6001600160a01b039092166020928302919091019091015280610d9c81611b0a565b915050610d2f565b50855b84811015610e38576002600084610dbe8a85611b4e565b81518110610dce57610dce611ade565b602002602001015160000151815260200190815260200160002060009054906101000a90046001600160a01b0316828281518110610e0e57610e0e611ade565b6001600160a01b039092166020928302919091019091015280610e3081611b0a565b915050610da7565b509695505050505050565b6001600160a01b038116600090815260076020908152604080832033845290915290205460ff1615610eb75760405162461bcd60e51b815260206004820152601d60248201527f616c726561647920766f74656420696e20746869732070726f6a65637400000060448201526064016104c3565b610ebf6112a2565b6001600160a01b03811660009081526008602052604081205460ff166002811115610eec57610eec6119f4565b14610f395760405162461bcd60e51b815260206004820152601a60248201527f70726f6a656374206973206e6f7420696e2070726f677265737300000000000060448201526064016104c3565b6001600160a01b03811660009081526007602090815260408083203384528252808320805460ff1916600117905560049091528120805491610f7a83611b0a565b90915550506001600160a01b0381166000908152600560205260408120805491610fa383611b0a565b9190505550610fb1426114ae565b6001600160a01b03821660009081526006602052604081208054909190610fd9908490611b8f565b90915550506001600160a01b0381166000908152600360205260408120548154811061100757611007611ade565b6000918252602090912060088204015460079091166004026101000a900463ffffffff16611045576009805490600061103f83611b0a565b91905055505b6001600160a01b0381166000908152600360205260408120548154811061106e5761106e611ade565b906000526020600020906008918282040191900660040281819054906101000a900463ffffffff16809291906110a390611bbd565b91906101000a81548163ffffffff021916908363ffffffff1602179055505050565b60006110d8826301ffc9a760e01b6110f8565b8015610a3e57506110f1826001600160e01b03196110f8565b1592915050565b604080516001600160e01b0319831660248083019190915282518083039091018152604490910182526020810180516001600160e01b03166301ffc9a760e01b179052905160009190829081906001600160a01b038716906175309061115f908690611be1565b6000604051808303818686fa925050503d806000811461119b576040519150601f19603f3d011682016040523d82523d6000602084013e6111a0565b606091505b50915091506020815110156111bb5760009350505050610a3e565b8180156111d75750808060200190518101906111d79190611b25565b9695505050505050565b60008061121f61121560408051808201825260008082526020918201528151808301909252600b548252600c549082015290565b602001514261126d565b905061122a600e5490565b60408051808201825260008082526020918201528151808301909252600b548252600c54908201525161125d9083611b4e565b6112679190611b7b565b91505090565b600081831061127c5781610a3b565b5090919050565b606061129e826000600185516112999190611b4e565b61158f565b5090565b60006112ac61171d565b90508051600014156112bb5750565b60005b81518110156113905760018282815181106112db576112db611ade565b602090810291909101810151825460018082018555600094855292842001805473ffffffffffffffffffffffffffffffffffffffff19166001600160a01b039092169190911790558351909160089185908590811061133c5761133c611ade565b6020908102919091018101516001600160a01b03168252810191909152604001600020805460ff19166001836002811115611379576113796119f4565b02179055508061138881611b0a565b9150506112be565b5060408051808201825260008082526020918201528151808301909252600b548252600c54910181905242106107915760006113ca6109bd565b51905060005b818110156114a9576000600860006113e66109bd565b84815181106113f7576113f7611ade565b6020908102919091018101516001600160a01b031682528101919091526040016000205460ff16600281111561142f5761142f6119f4565b1415611497576002600860006114436109bd565b848151811061145457611454611ade565b6020908102919091018101516001600160a01b03168252810191909152604001600020805460ff19166001836002811115611491576114916119f4565b02179055505b806114a181611b0a565b9150506113d0565b505050565b6000806114c266b1a2bc2ec5000082611c1c565b905060006114f460408051808201825260008082526020918201528151808301909252600b548252600c549082015290565b5160408051808201825260008082526020918201528151808301909252600b548252600c5491018190526115289190611b4e565b905060006115368284611c5b565b9050600066b1a2bc2ec5000061157060408051808201825260008082526020918201528151808301909252600b548252600c549082015290565b5161157b9088611b4e565b6115859084611c89565b6111d79190611d0e565b8181808214156115a0575050505050565b60008560026115af8787611c1c565b6115b99190611c5b565b6115c39087611d0e565b815181106115d3576115d3611ade565b60200260200101516020015190505b8183136116ef575b808684815181106115fd576115fd611ade565b6020026020010151602001511115611621578261161981611d4f565b9350506115ea565b85828151811061163357611633611ade565b602002602001015160200151811115611658578161165081611d68565b925050611621565b8183136116ea5785828151811061167157611671611ade565b602002602001015186848151811061168b5761168b611ade565b60200260200101518785815181106116a5576116a5611ade565b602002602001018885815181106116be576116be611ade565b60200260200101829052829052505082806116d890611d4f565b93505081806116e690611d68565b9250505b6115e2565b818512156117025761170286868461158f565b838312156117155761171586848661158f565b505050505050565b600154606090600061172d6111e1565b9050600061173d6009548361126d565b6000805491925061174e8584611b4e565b905060008167ffffffffffffffff81111561176b5761176b611ba7565b604051908082528060200260200182016040528015611794578160200160208202803683370190505b5090506117c560408051808201825260008082526020918201528151808301909252600b548252600c549082015290565b514210156117d7579695505050505050565b816117e6579695505050505050565b60008367ffffffffffffffff81111561180157611801611ba7565b60405190808252806020026020018201604052801561184657816020015b604080518082019091526000808252602082015281526020019060019003908161181f5790505b50905060005b84811015611905576000818152600260209081526040808320546001600160a01b03168352600890915290205460ff166001816002811115611890576118906119f4565b141561189c57506118f3565b604080518082018252838152600084815260026020908152838220546001600160a01b0316825260068152929020549181019190915283518490849081106118e6576118e6611ade565b6020026020010181905250505b806118fd81611b0a565b91505061184c565b5061190f81611283565b905060005b8381101561199c576002600083838151811061193257611932611ade565b602002602001015160000151815260200190815260200160002060009054906101000a90046001600160a01b031683828151811061197257611972611ade565b6001600160a01b03909216602092830291909101909101528061199481611b0a565b915050611914565b5090979650505050505050565b6000602082840312156119bb57600080fd5b5035919050565b80356001600160a01b03811681146105ad57600080fd5b6000602082840312156119eb57600080fd5b610a3b826119c2565b634e487b7160e01b600052602160045260246000fd5b6020810160038310611a2c57634e487b7160e01b600052602160045260246000fd5b91905290565b60008060408385031215611a4557600080fd5b611a4e836119c2565b9150611a5c602084016119c2565b90509250929050565b6020808252825182820181905260009190848201906040850190845b81811015611aa65783516001600160a01b031683529284019291840191600101611a81565b50909695505050505050565b600080600060608486031215611ac757600080fd5b505081359360208301359350604090920135919050565b634e487b7160e01b600052603260045260246000fd5b634e487b7160e01b600052601160045260246000fd5b6000600019821415611b1e57611b1e611af4565b5060010190565b600060208284031215611b3757600080fd5b81518015158114611b4757600080fd5b9392505050565b600082821015611b6057611b60611af4565b500390565b634e487b7160e01b600052601260045260246000fd5b600082611b8a57611b8a611b65565b500490565b60008219821115611ba257611ba2611af4565b500190565b634e487b7160e01b600052604160045260246000fd5b600063ffffffff80831681811415611bd757611bd7611af4565b6001019392505050565b6000825160005b81811015611c025760208186018101518583015201611be8565b81811115611c11576000828501525b509190910192915050565b60008083128015600160ff1b850184121615611c3a57611c3a611af4565b6001600160ff1b0384018313811615611c5557611c55611af4565b50500390565b600082611c6a57611c6a611b65565b600160ff1b821460001984141615611c8457611c84611af4565b500590565b60006001600160ff1b0381841382841380821686840486111615611caf57611caf611af4565b600160ff1b6000871282811687830589121615611cce57611cce611af4565b60008712925087820587128484161615611cea57611cea611af4565b87850587128184161615611d0057611d00611af4565b505050929093029392505050565b600080821280156001600160ff1b0384900385131615611d3057611d30611af4565b600160ff1b8390038412811615611d4957611d49611af4565b50500190565b60006001600160ff1b03821415611b1e57611b1e611af4565b6000600160ff1b821415611d7e57611d7e611af4565b50600019019056fea26469706673582212202a1e8f6f21999b15b83052a3f43e32fe4d51267f33e6112fca96f8cfa554c93364736f6c634300080c00336101006040523480156200001257600080fd5b5060405162001eb138038062001eb1833981016040819052620000359162000234565b3360805283516200004e9060029060208701906200013f565b506001600160a01b03831660a05260c082905260e081905260006200007560028462000335565b905060008160c05162000089919062000358565b9050816040516200009a90620001ce565b908152602001604051809103906000f080158015620000bd573d6000803e3d6000fd5b50600080546001600160a01b0319166001600160a01b03929092169190911790556040518190620000ee90620001dc565b908152602001604051809103906000f08015801562000111573d6000803e3d6000fd5b50600180546001600160a01b0319166001600160a01b039290921691909117905550620003bb945050505050565b8280546200014d906200037e565b90600052602060002090601f016020900481019282620001715760008555620001bc565b82601f106200018c57805160ff1916838001178555620001bc565b82800160010185558215620001bc579182015b82811115620001bc5782518255916020019190600101906200019f565b50620001ca929150620001ea565b5090565b61093d8062000c3783390190565b61093d806200157483390190565b5b80821115620001ca5760008155600101620001eb565b634e487b7160e01b600052604160045260246000fd5b80516001600160a01b03811681146200022f57600080fd5b919050565b600080600080608085870312156200024b57600080fd5b84516001600160401b03808211156200026357600080fd5b818701915087601f8301126200027857600080fd5b8151818111156200028d576200028d62000201565b604051601f8201601f19908116603f01168101908382118183101715620002b857620002b862000201565b81604052828152602093508a84848701011115620002d557600080fd5b600091505b82821015620002f95784820184015181830185015290830190620002da565b828211156200030b5760008484830101525b97506200031d91505087820162000217565b60408801516060909801519699909850945050505050565b6000826200035357634e487b7160e01b600052601260045260246000fd5b500490565b6000828210156200037957634e487b7160e01b600052601160045260246000fd5b500390565b600181811c908216806200039357607f821691505b60208210811415620003b557634e487b7160e01b600052602260045260246000fd5b50919050565b60805160a05160c05160e0516108266200041160003960006101390152600081816101c0015261033901526000818161025101526102cc01526000818161022a01528181610406015261054501526108266000f3fe608060405234801561001057600080fd5b50600436106100f55760003560e01c8063a96af0f411610097578063e10828ac11610066578063e10828ac14610205578063e1e726db14610212578063f77c479114610225578063fc0c546a1461024c57600080fd5b8063a96af0f4146101bb578063c1b075db146101e2578063d2170515146101ea578063d87aa643146101f257600080fd5b8063338ba300116100d3578063338ba30014610169578063582f0e16146101945780637284e4161461019c57806398cbc31f146101b157600080fd5b806301ffc9a7146100fa57806312d35941146101225780632c4e722e14610134575b600080fd5b61010d6101083660046106d2565b610273565b60405190151581526020015b60405180910390f35b60035461010d90610100900460ff1681565b61015b7f000000000000000000000000000000000000000000000000000000000000000081565b604051908152602001610119565b60005461017c906001600160a01b031681565b6040516001600160a01b039091168152602001610119565b61010d6102aa565b6101a4610360565b6040516101199190610703565b6101b96103ee565b005b61015b7f000000000000000000000000000000000000000000000000000000000000000081565b6101b961052d565b61010d610664565b6101b9610200366004610758565b610694565b60035461010d9060ff1681565b60015461017c906001600160a01b031681565b61017c7f000000000000000000000000000000000000000000000000000000000000000081565b61017c7f000000000000000000000000000000000000000000000000000000000000000081565b60006001600160e01b0319821663154777d960e11b14806102a457506301ffc9a760e01b6001600160e01b03198316145b92915050565b6040516370a0823160e01b815230600482015260009081906001600160a01b037f000000000000000000000000000000000000000000000000000000000000000016906370a0823190602401602060405180830381865afa158015610313573d6000803e3d6000fd5b505050506040513d601f19601f82011682018060405250810190610337919061077a565b7f0000000000000000000000000000000000000000000000000000000000000000111592915050565b6002805461036d90610793565b80601f016020809104026020016040519081016040528092919081815260200182805461039990610793565b80156103e65780601f106103bb576101008083540402835291602001916103e6565b820191906000526020600020905b8154815290600101906020018083116103c957829003601f168201915b505050505081565b6040516345b72bd960e11b81523360048201819052907f00000000000000000000000000000000000000000000000000000000000000006001600160a01b031690638b6e57b290602401602060405180830381865afa158015610455573d6000803e3d6000fd5b505050506040513d601f19601f8201168201806040525081019061047991906107ce565b6104ca5760405162461bcd60e51b815260206004820152601560248201527f6e6f7420612070726f6a656374206d616e61676572000000000000000000000060448201526064015b60405180910390fd5b60035460ff161561051d5760405162461bcd60e51b815260206004820152601b60248201527f616c726561647920617070726f766564206279206d616e61676572000000000060448201526064016104c1565b506003805460ff19166001179055565b604051636bfe90bb60e11b81523360048201819052907f00000000000000000000000000000000000000000000000000000000000000006001600160a01b03169063d7fd217690602401602060405180830381865afa158015610594573d6000803e3d6000fd5b505050506040513d601f19601f820116820180604052508101906105b891906107ce565b6105fa5760405162461bcd60e51b81526020600482015260136024820152723737ba1030903632b3b0b61036b0b730b3b2b960691b60448201526064016104c1565b600354610100900460ff16156106525760405162461bcd60e51b815260206004820152601960248201527f616c726561647920617070726f766564206279206c6567616c0000000000000060448201526064016104c1565b506003805461ff001916610100179055565b600061066e6102aa565b801561067c575060035460ff165b801561068f5750600354610100900460ff165b905090565b60405162461bcd60e51b81526020600482015260136024820152721b9bdd081e595d081a5b5c1b195b595b9d1959606a1b60448201526064016104c1565b6000602082840312156106e457600080fd5b81356001600160e01b0319811681146106fc57600080fd5b9392505050565b600060208083528351808285015260005b8181101561073057858101830151858201604001528201610714565b81811115610742576000604083870101525b50601f01601f1916929092016040019392505050565b6000806040838503121561076b57600080fd5b50508035926020909101359150565b60006020828403121561078c57600080fd5b5051919050565b600181811c908216806107a757607f821691505b602082108114156107c857634e487b7160e01b600052602260045260246000fd5b50919050565b6000602082840312156107e057600080fd5b815180151581146106fc57600080fdfea2646970667358221220a3a933861db1df748fd84b384f6ee84dd9415563674e2cb11ba5e4a8dd87052a64736f6c634300080c003360a060405234801561001057600080fd5b5060405161093d38038061093d83398101604081905261002f91610049565b600680546001600160a01b03191633179055608052610062565b60006020828403121561005b57600080fd5b5051919050565b6080516108b261008b600039600081816101c8015281816101f1015261061f01526108b26000f3fe608060405234801561001057600080fd5b506004361061012c5760003560e01c8063b9b8c246116100ad578063d0a24e4711610071578063d0a24e4714610213578063d7e64c0014610269578063e8448f0214610271578063ed7196bc146102a7578063fa89401a146102af57600080fd5b8063b9b8c24614610226578063c0cd9ce21461023b578063c487888314610243578063cbf2cc2b1461024c578063cd2b30261461025657600080fd5b8063711a9f35116100f4578063711a9f35146101ae5780637b8db586146101c6578063a96af0f4146101ec578063acde5d2814610213578063b81b86301461021357600080fd5b80630276650b1461013157806318dfcf7b1461014d5780631a15c6d7146101565780631c120bc11461017057806369d917c914610178575b600080fd5b61013a60055481565b6040519081526020015b60405180910390f35b61013a60075481565b6000546101639060ff1681565b6040516101449190610791565b600a5461013a565b61013a6101863660046107b9565b6000908152600960209081526040808320546001600160a01b03168352600890915290205490565b6101b66102c2565b6040519015158152602001610144565b7f000000000000000000000000000000000000000000000000000000000000000061013a565b61013a7f000000000000000000000000000000000000000000000000000000000000000081565b61013a6102213660046107ee565b6102e4565b610239610234366004610809565b61032a565b005b610239610424565b61013a600a5481565b61013a620186a081565b6102396102643660046107b9565b610591565b60075461013a565b6001546002546003546004546102879392919084565b604080519485526020850193909352918301526060820152608001610144565b6101b661059d565b6102396102bd3660046107ee565b6105a6565b600060025b60005460ff1660038111156102de576102de61077b565b14905090565b60405162461bcd60e51b81526020600482015260136024820152721b9bdd081e595d081a5b5c1b195b595b9d1959606a1b60448201526000906064015b60405180910390fd5b6006546001600160a01b031633146103725760405162461bcd60e51b815260206004820152600b60248201526a1b9bdd081c1c9bda9958dd60aa1b6044820152606401610321565b6001600160a01b0382166000908152600860205260409020546103da57600780546000908152600960205260408120805473ffffffffffffffffffffffffffffffffffffffff19166001600160a01b038616179055815491906103d483610849565b91905055505b6001600160a01b03821660009081526008602052604081208054839290610402908490610864565b9250508190555080600a600082825461041b9190610864565b90915550505050565b600160005460ff16600381111561043d5761043d61077b565b1461044757600080fd5b6040805160808101825260015481526002546020820152600354918101919091526004546060820152600061047b60075490565b6005549091505b8251821180156104945750620186a05a115b156105305782516000908152600960209081526040808320546001600160a01b0316835260089091529020546104ca81836105e4565b846020018181516104db9190610864565b9052506104f36104ec836001610864565b82906105e4565b846040018181516105049190610864565b905250606084015161051690826105fe565b6060850152508251839061052990610849565b9052610482565b8251600181905560208401516002556040840151600355606084015160045582141561058c576000610562828561060d565b9050801561057c576000805460ff1916600217905561058a565b6000805460ff191660031790555b505b505050565b61059a816106a9565b50565b600060016102c7565b60405162461bcd60e51b81526020600482015260136024820152721b9bdd081e595d081a5b5c1b195b595b9d1959606a1b6044820152606401610321565b60008183106105f357816105f5565b825b90505b92915050565b60008282106105f357816105f5565b600080610619600a5490565b905060007f00000000000000000000000000000000000000000000000000000000000000009050818460600151111561065157600080fd5b818460200151111561066257600080fd5b818460400151111561067357600080fd5b80821161068957505050606081015182146105f8565b8084604001511180156106a0575080846020015111155b925050506105f8565b6000805460ff1660038111156106c1576106c161077b565b14806106e35750600360005460ff1660038111156106e1576106e161077b565b145b61072f5760405162461bcd60e51b815260206004820152601a60248201527f616c726561647920736574206f7220696e2070726f67726573730000000000006044820152606401610321565b60058190556000805460ff19166001908117825560408051608081018252838152602081018490529081018390526060018290528190556002819055600381905560045561059a610424565b634e487b7160e01b600052602160045260246000fd5b60208101600483106107b357634e487b7160e01b600052602160045260246000fd5b91905290565b6000602082840312156107cb57600080fd5b5035919050565b80356001600160a01b03811681146107e957600080fd5b919050565b60006020828403121561080057600080fd5b6105f5826107d2565b6000806040838503121561081c57600080fd5b610825836107d2565b946020939093013593505050565b634e487b7160e01b600052601160045260246000fd5b600060001982141561085d5761085d610833565b5060010190565b6000821982111561087757610877610833565b50019056fea264697066735822122093a04c32e21278ae09d18ad433105f694b876008e7a5fdf746d48667c82ba69164736f6c634300080c003360a060405234801561001057600080fd5b5060405161093d38038061093d83398101604081905261002f91610049565b600680546001600160a01b03191633179055608052610062565b60006020828403121561005b57600080fd5b5051919050565b6080516108b261008b600039600081816101c8015281816101f1015261061f01526108b26000f3fe608060405234801561001057600080fd5b506004361061012c5760003560e01c8063b9b8c246116100ad578063d0a24e4711610071578063d0a24e4714610213578063d7e64c0014610269578063e8448f0214610271578063ed7196bc146102a7578063fa89401a146102af57600080fd5b8063b9b8c24614610226578063c0cd9ce21461023b578063c487888314610243578063cbf2cc2b1461024c578063cd2b30261461025657600080fd5b8063711a9f35116100f4578063711a9f35146101ae5780637b8db586146101c6578063a96af0f4146101ec578063acde5d2814610213578063b81b86301461021357600080fd5b80630276650b1461013157806318dfcf7b1461014d5780631a15c6d7146101565780631c120bc11461017057806369d917c914610178575b600080fd5b61013a60055481565b6040519081526020015b60405180910390f35b61013a60075481565b6000546101639060ff1681565b6040516101449190610791565b600a5461013a565b61013a6101863660046107b9565b6000908152600960209081526040808320546001600160a01b03168352600890915290205490565b6101b66102c2565b6040519015158152602001610144565b7f000000000000000000000000000000000000000000000000000000000000000061013a565b61013a7f000000000000000000000000000000000000000000000000000000000000000081565b61013a6102213660046107ee565b6102e4565b610239610234366004610809565b61032a565b005b610239610424565b61013a600a5481565b61013a620186a081565b6102396102643660046107b9565b610591565b60075461013a565b6001546002546003546004546102879392919084565b604080519485526020850193909352918301526060820152608001610144565b6101b661059d565b6102396102bd3660046107ee565b6105a6565b600060025b60005460ff1660038111156102de576102de61077b565b14905090565b60405162461bcd60e51b81526020600482015260136024820152721b9bdd081e595d081a5b5c1b195b595b9d1959606a1b60448201526000906064015b60405180910390fd5b6006546001600160a01b031633146103725760405162461bcd60e51b815260206004820152600b60248201526a1b9bdd081c1c9bda9958dd60aa1b6044820152606401610321565b6001600160a01b0382166000908152600860205260409020546103da57600780546000908152600960205260408120805473ffffffffffffffffffffffffffffffffffffffff19166001600160a01b038616179055815491906103d483610849565b91905055505b6001600160a01b03821660009081526008602052604081208054839290610402908490610864565b9250508190555080600a600082825461041b9190610864565b90915550505050565b600160005460ff16600381111561043d5761043d61077b565b1461044757600080fd5b6040805160808101825260015481526002546020820152600354918101919091526004546060820152600061047b60075490565b6005549091505b8251821180156104945750620186a05a115b156105305782516000908152600960209081526040808320546001600160a01b0316835260089091529020546104ca81836105e4565b846020018181516104db9190610864565b9052506104f36104ec836001610864565b82906105e4565b846040018181516105049190610864565b905250606084015161051690826105fe565b6060850152508251839061052990610849565b9052610482565b8251600181905560208401516002556040840151600355606084015160045582141561058c576000610562828561060d565b9050801561057c576000805460ff1916600217905561058a565b6000805460ff191660031790555b505b505050565b61059a816106a9565b50565b600060016102c7565b60405162461bcd60e51b81526020600482015260136024820152721b9bdd081e595d081a5b5c1b195b595b9d1959606a1b6044820152606401610321565b60008183106105f357816105f5565b825b90505b92915050565b60008282106105f357816105f5565b600080610619600a5490565b905060007f00000000000000000000000000000000000000000000000000000000000000009050818460600151111561065157600080fd5b818460200151111561066257600080fd5b818460400151111561067357600080fd5b80821161068957505050606081015182146105f8565b8084604001511180156106a0575080846020015111155b925050506105f8565b6000805460ff1660038111156106c1576106c161077b565b14806106e35750600360005460ff1660038111156106e1576106e161077b565b145b61072f5760405162461bcd60e51b815260206004820152601a60248201527f616c726561647920736574206f7220696e2070726f67726573730000000000006044820152606401610321565b60058190556000805460ff19166001908117825560408051608081018252838152602081018490529081018390526060018290528190556002819055600381905560045561059a610424565b634e487b7160e01b600052602160045260246000fd5b60208101600483106107b357634e487b7160e01b600052602160045260246000fd5b91905290565b6000602082840312156107cb57600080fd5b5035919050565b80356001600160a01b03811681146107e957600080fd5b919050565b60006020828403121561080057600080fd5b6105f5826107d2565b6000806040838503121561081c57600080fd5b610825836107d2565b946020939093013593505050565b634e487b7160e01b600052601160045260246000fd5b600060001982141561085d5761085d610833565b5060010190565b6000821982111561087757610877610833565b50019056fea2646970667358221220fc9f9c4b9336dc11f8a4af4e7b97161dfffc6e2b18d3d8513a076276e5c7cf8d64736f6c634300080c0033a264697066735822122088fc307626272db5357dda8efc310877360434b50cd6586c7e127b1d03d8995764736f6c634300080c0033",
  "devdoc": {
    "kind": "dev",
    "methods": {
      "createBatch(address[],uint256)": {
        "details": "Must guarantee projects are in a valid state (whitelisted & not already belonging to a batch)Batches are created in order, and with no overlap.   i.e.: when creating batch #3, its start date must be after the end date of batch #2"
      },
      "getBatchForProject(address)": {
        "params": {
          "_project": "address of the project"
        },
        "returns": {
          "_0": "Batch address"
        }
      },
      "getRoleAdmin(bytes32)": {
        "details": "Returns the admin role that controls `role`. See {grantRole} and {revokeRole}. To change a role's admin, use {_setRoleAdmin}."
      },
      "grantRole(bytes32,address)": {
        "details": "Grants `role` to `account`. If `account` had not been already granted `role`, emits a {RoleGranted} event. Requirements: - the caller must have ``role``'s admin role."
      },
      "hasLegalManagerRole(address)": {
        "params": {
          "_account": "Account to check"
        },
        "returns": {
          "_0": "true if account is a legal manager"
        }
      },
      "hasProjectManagerRole(address)": {
        "params": {
          "_account": "Account to check"
        },
        "returns": {
          "_0": "true if account is a project manager"
        }
      },
      "hasRole(bytes32,address)": {
        "details": "Returns `true` if `account` has been granted `role`."
      },
      "renounceRole(bytes32,address)": {
        "details": "Revokes `role` from the calling account. Roles are often managed via {grantRole} and {revokeRole}: this function's purpose is to provide a mechanism for accounts to lose their privileges if they are compromised (such as when a trusted device is misplaced). If the calling account had been revoked `role`, emits a {RoleRevoked} event. Requirements: - the caller must be `account`."
      },
      "revokeRole(bytes32,address)": {
        "details": "Revokes `role` from `account`. If `account` had been granted `role`, emits a {RoleRevoked} event. Requirements: - the caller must have ``role``'s admin role."
      },
      "supportsInterface(bytes4)": {
        "details": "See {IERC165-supportsInterface}."
      }
    },
    "version": 1
  },
  "userdoc": {
    "kind": "user",
    "methods": {
      "canInvestInPeoplesPool(address,address)": {
        "notice": "Checks if a user can invest in the people's pool of a project"
      },
      "canInvestInStakersPool(address)": {
        "notice": "Checks if a user can invest in the staker's pool of a project"
      },
      "canVote(address)": {
        "notice": "Checks if a user can vote"
      },
      "createBatch(address[],uint256)": {
        "notice": "Creates a new batch with"
      },
      "isProjectInBatch(address,address)": {
        "notice": "Checks if a project is included in the given batch"
      },
      "registerProject(string,address,uint256,uint256)": {
        "notice": "Registers a new Project"
      },
      "setBatchVotingPeriod(address,uint256,uint256,uint256)": {
        "notice": "Sets the voting period for a Batch"
      }
    },
    "version": 1
  },
  "storageLayout": {
    "storage": [
      {
        "astId": 24,
        "contract": "contracts/discovery/Controller.sol:Controller",
        "label": "_roles",
        "offset": 0,
        "slot": "0",
        "type": "t_mapping(t_bytes32,t_struct(RoleData)19_storage)"
      },
      {
        "astId": 3235,
        "contract": "contracts/discovery/Controller.sol:Controller",
        "label": "projects",
        "offset": 0,
        "slot": "1",
        "type": "t_mapping(t_address,t_bool)"
      },
      {
        "astId": 3239,
        "contract": "contracts/discovery/Controller.sol:Controller",
        "label": "projectsToBatches",
        "offset": 0,
        "slot": "2",
        "type": "t_mapping(t_address,t_address)"
      },
      {
        "astId": 3241,
        "contract": "contracts/discovery/Controller.sol:Controller",
        "label": "staking",
        "offset": 0,
        "slot": "3",
        "type": "t_address"
      },
      {
        "astId": 3243,
        "contract": "contracts/discovery/Controller.sol:Controller",
        "label": "registry",
        "offset": 0,
        "slot": "4",
        "type": "t_address"
      },
      {
        "astId": 3245,
        "contract": "contracts/discovery/Controller.sol:Controller",
        "label": "token",
        "offset": 0,
        "slot": "5",
        "type": "t_address"
      }
    ],
    "types": {
      "t_address": {
        "encoding": "inplace",
        "label": "address",
        "numberOfBytes": "20"
      },
      "t_bool": {
        "encoding": "inplace",
        "label": "bool",
        "numberOfBytes": "1"
      },
      "t_bytes32": {
        "encoding": "inplace",
        "label": "bytes32",
        "numberOfBytes": "32"
      },
      "t_mapping(t_address,t_address)": {
        "encoding": "mapping",
        "key": "t_address",
        "label": "mapping(address => address)",
        "numberOfBytes": "32",
        "value": "t_address"
      },
      "t_mapping(t_address,t_bool)": {
        "encoding": "mapping",
        "key": "t_address",
        "label": "mapping(address => bool)",
        "numberOfBytes": "32",
        "value": "t_bool"
      },
      "t_mapping(t_bytes32,t_struct(RoleData)19_storage)": {
        "encoding": "mapping",
        "key": "t_bytes32",
        "label": "mapping(bytes32 => struct AccessControl.RoleData)",
        "numberOfBytes": "32",
        "value": "t_struct(RoleData)19_storage"
      },
      "t_struct(RoleData)19_storage": {
        "encoding": "inplace",
        "label": "struct AccessControl.RoleData",
        "members": [
          {
            "astId": 16,
            "contract": "contracts/discovery/Controller.sol:Controller",
            "label": "members",
            "offset": 0,
            "slot": "0",
            "type": "t_mapping(t_address,t_bool)"
          },
          {
            "astId": 18,
            "contract": "contracts/discovery/Controller.sol:Controller",
            "label": "adminRole",
            "offset": 0,
            "slot": "1",
            "type": "t_bytes32"
          }
        ],
        "numberOfBytes": "64"
      }
    }
  }
}