{
  "address": "0xA73292e0CeD7F1150e9E7d0f09e82a3640C87aCc",
  "abi": [
    {
      "inputs": [
        {
          "internalType": "address",
          "name": "_token",
          "type": "address"
        }
      ],
      "stateMutability": "nonpayable",
      "type": "constructor"
    },
    {
      "anonymous": false,
      "inputs": [
        {
          "indexed": true,
          "internalType": "address",
          "name": "staker",
          "type": "address"
        },
        {
          "indexed": false,
          "internalType": "uint256",
          "name": "amount",
          "type": "uint256"
        }
      ],
      "name": "Rebond",
      "type": "event"
    },
    {
      "anonymous": false,
      "inputs": [
        {
          "indexed": true,
          "internalType": "address",
          "name": "staker",
          "type": "address"
        },
        {
          "indexed": false,
          "internalType": "uint256",
          "name": "amount",
          "type": "uint256"
        }
      ],
      "name": "StakeFunds",
      "type": "event"
    },
    {
      "anonymous": false,
      "inputs": [
        {
          "indexed": true,
          "internalType": "address",
          "name": "staker",
          "type": "address"
        },
        {
          "indexed": false,
          "internalType": "uint256",
          "name": "amount",
          "type": "uint256"
        }
      ],
      "name": "Unbond",
      "type": "event"
    },
    {
      "anonymous": false,
      "inputs": [
        {
          "indexed": true,
          "internalType": "address",
          "name": "staker",
          "type": "address"
        },
        {
          "indexed": false,
          "internalType": "uint256",
          "name": "amount",
          "type": "uint256"
        }
      ],
      "name": "Withdrawal",
      "type": "event"
    },
    {
      "inputs": [],
      "name": "UNBONDING_PERIOD",
      "outputs": [
        {
          "internalType": "uint256",
          "name": "",
          "type": "uint256"
        }
      ],
      "stateMutability": "view",
      "type": "function"
    },
    {
      "inputs": [
        {
          "internalType": "address",
          "name": "_account",
          "type": "address"
        }
      ],
      "name": "hasStaked",
      "outputs": [
        {
          "internalType": "bool",
          "name": "",
          "type": "bool"
        }
      ],
      "stateMutability": "view",
      "type": "function"
    },
    {
      "inputs": [
        {
          "internalType": "uint256",
          "name": "amount",
          "type": "uint256"
        }
      ],
      "name": "rebond",
      "outputs": [],
      "stateMutability": "nonpayable",
      "type": "function"
    },
    {
      "inputs": [
        {
          "internalType": "uint256",
          "name": "_amount",
          "type": "uint256"
        }
      ],
      "name": "stake",
      "outputs": [],
      "stateMutability": "nonpayable",
      "type": "function"
    },
    {
      "inputs": [
        {
          "internalType": "address",
          "name": "",
          "type": "address"
        }
      ],
      "name": "stakes",
      "outputs": [
        {
          "internalType": "uint256",
          "name": "total",
          "type": "uint256"
        },
        {
          "internalType": "uint256",
          "name": "bonded",
          "type": "uint256"
        }
      ],
      "stateMutability": "view",
      "type": "function"
    },
    {
      "inputs": [],
      "name": "token",
      "outputs": [
        {
          "internalType": "address",
          "name": "",
          "type": "address"
        }
      ],
      "stateMutability": "view",
      "type": "function"
    },
    {
      "inputs": [
        {
          "internalType": "uint256",
          "name": "amount",
          "type": "uint256"
        }
      ],
      "name": "unbond",
      "outputs": [],
      "stateMutability": "nonpayable",
      "type": "function"
    },
    {
      "inputs": [
        {
          "internalType": "address",
          "name": "",
          "type": "address"
        }
      ],
      "name": "unbondings",
      "outputs": [
        {
          "internalType": "uint128",
          "name": "first",
          "type": "uint128"
        },
        {
          "internalType": "uint128",
          "name": "next",
          "type": "uint128"
        }
      ],
      "stateMutability": "view",
      "type": "function"
    },
    {
      "inputs": [],
      "name": "withdraw",
      "outputs": [],
      "stateMutability": "nonpayable",
      "type": "function"
    },
    {
      "inputs": [
        {
          "internalType": "address",
          "name": "_account",
          "type": "address"
        }
      ],
      "name": "withdrawable",
      "outputs": [
        {
          "internalType": "uint256",
          "name": "",
          "type": "uint256"
        }
      ],
      "stateMutability": "view",
      "type": "function"
    }
  ],
  "transactionHash": "0x86e417c05995b73468d952d95c55ee153b2d71d337b951b046b38e5f55c9efed",
  "args": [
    "0x84879D9635B3f64fB4fc170A130524d708762808"
  ],
  "numDeployments": 1,
  "solcInputHash": "dfb224aae55ceb1d52b02ce7efbb10f7",
  "bytecode": "0x60a060405234801561001057600080fd5b50604051610e08380380610e0883398101604081905261002f9161008f565b6001600160a01b03811661007e5760405162461bcd60e51b815260206004820152601260248201527105f746f6b656e2063616e6e6f7420626520360741b604482015260640160405180910390fd5b6001600160a01b03166080526100bf565b6000602082840312156100a157600080fd5b81516001600160a01b03811681146100b857600080fd5b9392505050565b608051610d206100e8600039600081816101ed015281816104b9015261056b0152610d206000f3fe608060405234801561001057600080fd5b506004361061009e5760003560e01c8063c93c8f3411610066578063c93c8f341461016c578063ce513b6f146101aa578063d9a912ec146101cb578063eaffb3f9146101d5578063fc0c546a146101e857600080fd5b806316934fc4146100a357806327de9e32146100e45780633ccfd60b146100f9578063a694fc3a14610101578063abbb247f14610114575b600080fd5b6100ca6100b1366004610b22565b6000602081905290815260409020805460019091015482565b604080519283526020830191909152015b60405180910390f35b6100f76100f2366004610b4b565b610227565b005b6100f7610374565b6100f761010f366004610b4b565b610512565b61014c610122366004610b22565b600160208190526000918252604090912001546001600160801b0380821691600160801b90041682565b604080516001600160801b039384168152929091166020830152016100db565b61019a61017a366004610b22565b6001600160a01b0316600090815260208190526040902060010154151590565b60405190151581526020016100db565b6101bd6101b8366004610b22565b6105cb565b6040519081526020016100db565b6101bd6224ea0081565b6100f76101e3366004610b4b565b610665565b61020f7f000000000000000000000000000000000000000000000000000000000000000081565b6040516001600160a01b0390911681526020016100db565b3360009081526020818152604080832060019283905292209082015483111561028a5760405162461bcd60e51b815260206004820152601060248201526f6e6f7420656e6f7567682066756e647360801b60448201526064015b60405180910390fd5b600060405180604001604052808581526020016224ea00426102ac9190610b7a565b9052600180840180546001600160801b03600160801b91829004811660009081526020888152604090912086518155908601519401939093558154939450909204169060106102fa83610b92565b91906101000a8154816001600160801b0302191690836001600160801b0316021790555050838360010160008282546103339190610bb9565b909155505060405184815233907fb735793e7250527232d5f7e07e8691c383c85e0c77673ac750944e8bd40e71c8906020015b60405180910390a250505050565b33600090815260208181526040808320600192839052908320918201549092906001600160801b03600160801b8204811691165b8181101561044b57600081815260208590526040902060018101544210156103d0575061044b565b80546103dc9085610b7a565b60008381526020879052604081208181556001908101829055870180549296506001600160801b03909216919061041283610b92565b91906101000a8154816001600160801b0302191690836001600160801b031602179055505050808061044390610bd0565b9150506103a8565b50600082116104925760405162461bcd60e51b81526020600482015260136024820152726e6f7468696e6720746f20776974686472617760681b6044820152606401610281565b818460000160008282546104a69190610bb9565b909155506104e090506001600160a01b037f0000000000000000000000000000000000000000000000000000000000000000163384610827565b60405182815233907f7fcf532c15f0a6db0bd6d0e038bea71d30d808c7d98cb3bf7268a95bf5081b6590602001610366565b3360009081526020819052604081208054839290610531908490610b7a565b90915550503360009081526020819052604081206001018054839290610558908490610b7a565b9091555061059390506001600160a01b037f00000000000000000000000000000000000000000000000000000000000000001633308461088f565b60405181815233907f98edbb47e4ea313ba4379bcb77201a01b70c9ceb0211dd0508dbfd24a58f5aa99060200160405180910390a250565b6001600160a01b038116600090815260016020819052604082209081015482906001600160801b03600160801b8204811691165b8181101561065b576000818152602085905260409020600181015442101561062c57509195945050505050565b6000828152602086905260409020546106459085610b7a565b935050808061065390610bd0565b9150506105ff565b5090949350505050565b336000908152602081815260408083206001928390529220908201548254849161068e91610bb9565b10156106dc5760405162461bcd60e51b815260206004820152601a60248201527f6e6f7420656e6f75676820756e626f6e64696e672066756e64730000000000006044820152606401610281565b60018082015484916001600160801b0380831692600092610706929091600160801b900416610beb565b6001600160801b031690505b8181106107d15760008181526020859052604090208054841161074f57838160000160008282546107439190610bb9565b909155506107d1915050565b805461075b9085610bb9565b600083815260208790526040812081815560019081019190915586018054919550600160801b9091046001600160801b031690601061079983610c13565b91906101000a8154816001600160801b0302191690836001600160801b031602179055505050806107c981610c36565b915050610712565b50848460010160008282546107e69190610b7a565b909155505060405185815233907fbbf25f13a3a6b23be022d923bb6d81fee70ba64dee8c862779b22714d5da759b9060200160405180910390a25050505050565b6040516001600160a01b03831660248201526044810182905261088a90849063a9059cbb60e01b906064015b60408051601f198184030181529190526020810180516001600160e01b03166001600160e01b0319909316929092179091526108cd565b505050565b6040516001600160a01b03808516602483015283166044820152606481018290526108c79085906323b872dd60e01b90608401610853565b50505050565b6000610922826040518060400160405280602081526020017f5361666545524332303a206c6f772d6c6576656c2063616c6c206661696c6564815250856001600160a01b031661099f9092919063ffffffff16565b80519091501561088a57808060200190518101906109409190610c4d565b61088a5760405162461bcd60e51b815260206004820152602a60248201527f5361666545524332303a204552433230206f7065726174696f6e20646964206e6044820152691bdd081cdd58d8d9595960b21b6064820152608401610281565b60606109ae84846000856109b8565b90505b9392505050565b606082471015610a195760405162461bcd60e51b815260206004820152602660248201527f416464726573733a20696e73756666696369656e742062616c616e636520666f6044820152651c8818d85b1b60d21b6064820152608401610281565b6001600160a01b0385163b610a705760405162461bcd60e51b815260206004820152601d60248201527f416464726573733a2063616c6c20746f206e6f6e2d636f6e74726163740000006044820152606401610281565b600080866001600160a01b03168587604051610a8c9190610c9b565b60006040518083038185875af1925050503d8060008114610ac9576040519150601f19603f3d011682016040523d82523d6000602084013e610ace565b606091505b5091509150610ade828286610ae9565b979650505050505050565b60608315610af85750816109b1565b825115610b085782518084602001fd5b8160405162461bcd60e51b81526004016102819190610cb7565b600060208284031215610b3457600080fd5b81356001600160a01b03811681146109b157600080fd5b600060208284031215610b5d57600080fd5b5035919050565b634e487b7160e01b600052601160045260246000fd5b60008219821115610b8d57610b8d610b64565b500190565b60006001600160801b0380831681811415610baf57610baf610b64565b6001019392505050565b600082821015610bcb57610bcb610b64565b500390565b6000600019821415610be457610be4610b64565b5060010190565b60006001600160801b0383811690831681811015610c0b57610c0b610b64565b039392505050565b60006001600160801b03821680610c2c57610c2c610b64565b6000190192915050565b600081610c4557610c45610b64565b506000190190565b600060208284031215610c5f57600080fd5b815180151581146109b157600080fd5b60005b83811015610c8a578181015183820152602001610c72565b838111156108c75750506000910152565b60008251610cad818460208701610c6f565b9190910192915050565b6020815260008251806020840152610cd6816040850160208701610c6f565b601f01601f1916919091016040019291505056fea2646970667358221220a9e1f40059c520e9b9042f8ca601bed77e846df19bafc7906be417bf6cb45b7464736f6c634300080c0033",
  "devdoc": {
    "kind": "dev",
    "methods": {
      "rebond(uint256)": {
        "details": "Emits a `Rebond` event.",
        "params": {
          "amount": "The amount of tokens to rebond."
        }
      },
      "stake(uint256)": {
        "details": "Emits a `Stake` event.",
        "params": {
          "amount": "The amount of tokens to stake."
        }
      },
      "unbond(uint256)": {
        "details": "Emits a `Unbond` event.Uses a mapping to handle the different unbondings, but from the caller's side it's treated as a single pool.",
        "params": {
          "amount": "The amount of tokens to unbond."
        }
      },
      "withdraw()": {
        "details": "Emits a `Withdrawal` event."
      }
    },
    "version": 1
  },
  "userdoc": {
    "kind": "user",
    "methods": {
      "rebond(uint256)": {
        "notice": "Rebonds the given amount of tokens for `msg.sender`. It requires that there are enough funds that are still unbonding or that have been unbonded but not yet withdrawn."
      },
      "stake(uint256)": {
        "notice": "Stakes the given amount of tokens, using the `msg.sender` as the staker."
      },
      "stakes(address)": {
        "notice": "account => stakes"
      },
      "token()": {
        "notice": "The token to stake"
      },
      "unbond(uint256)": {
        "notice": "Unbonds the given amount of tokens, using the `msg.sender` as the staker. The staker must have already staked the given amount of tokens."
      },
      "unbondings(address)": {
        "notice": "account => unbondings"
      },
      "withdraw()": {
        "notice": "TODO add a gas meter to prevent this function from crashing if too many unbondings exist"
      },
      "withdrawable(address)": {
        "notice": "Computes how many tokens waiting for unbonding can already be withdrawn"
      }
    },
    "version": 1
  },
  "storageLayout": {
    "storage": [
      {
        "astId": 4890,
        "contract": "contracts/discovery/Staking.sol:Staking",
        "label": "stakes",
        "offset": 0,
        "slot": "0",
        "type": "t_mapping(t_address,t_struct(Stake)4839_storage)"
      },
      {
        "astId": 4896,
        "contract": "contracts/discovery/Staking.sol:Staking",
        "label": "unbondings",
        "offset": 0,
        "slot": "1",
        "type": "t_mapping(t_address,t_struct(UnbondingList)4849_storage)"
      }
    ],
    "types": {
      "t_address": {
        "encoding": "inplace",
        "label": "address",
        "numberOfBytes": "20"
      },
      "t_mapping(t_address,t_struct(Stake)4839_storage)": {
        "encoding": "mapping",
        "key": "t_address",
        "label": "mapping(address => struct Staking.Stake)",
        "numberOfBytes": "32",
        "value": "t_struct(Stake)4839_storage"
      },
      "t_mapping(t_address,t_struct(UnbondingList)4849_storage)": {
        "encoding": "mapping",
        "key": "t_address",
        "label": "mapping(address => struct Staking.UnbondingList)",
        "numberOfBytes": "32",
        "value": "t_struct(UnbondingList)4849_storage"
      },
      "t_mapping(t_uint256,t_struct(Unbonding)4854_storage)": {
        "encoding": "mapping",
        "key": "t_uint256",
        "label": "mapping(uint256 => struct Staking.Unbonding)",
        "numberOfBytes": "32",
        "value": "t_struct(Unbonding)4854_storage"
      },
      "t_struct(Stake)4839_storage": {
        "encoding": "inplace",
        "label": "struct Staking.Stake",
        "members": [
          {
            "astId": 4836,
            "contract": "contracts/discovery/Staking.sol:Staking",
            "label": "total",
            "offset": 0,
            "slot": "0",
            "type": "t_uint256"
          },
          {
            "astId": 4838,
            "contract": "contracts/discovery/Staking.sol:Staking",
            "label": "bonded",
            "offset": 0,
            "slot": "1",
            "type": "t_uint256"
          }
        ],
        "numberOfBytes": "64"
      },
      "t_struct(Unbonding)4854_storage": {
        "encoding": "inplace",
        "label": "struct Staking.Unbonding",
        "members": [
          {
            "astId": 4851,
            "contract": "contracts/discovery/Staking.sol:Staking",
            "label": "amount",
            "offset": 0,
            "slot": "0",
            "type": "t_uint256"
          },
          {
            "astId": 4853,
            "contract": "contracts/discovery/Staking.sol:Staking",
            "label": "time",
            "offset": 0,
            "slot": "1",
            "type": "t_uint256"
          }
        ],
        "numberOfBytes": "64"
      },
      "t_struct(UnbondingList)4849_storage": {
        "encoding": "inplace",
        "label": "struct Staking.UnbondingList",
        "members": [
          {
            "astId": 4844,
            "contract": "contracts/discovery/Staking.sol:Staking",
            "label": "list",
            "offset": 0,
            "slot": "0",
            "type": "t_mapping(t_uint256,t_struct(Unbonding)4854_storage)"
          },
          {
            "astId": 4846,
            "contract": "contracts/discovery/Staking.sol:Staking",
            "label": "first",
            "offset": 0,
            "slot": "1",
            "type": "t_uint128"
          },
          {
            "astId": 4848,
            "contract": "contracts/discovery/Staking.sol:Staking",
            "label": "next",
            "offset": 16,
            "slot": "1",
            "type": "t_uint128"
          }
        ],
        "numberOfBytes": "64"
      },
      "t_uint128": {
        "encoding": "inplace",
        "label": "uint128",
        "numberOfBytes": "16"
      },
      "t_uint256": {
        "encoding": "inplace",
        "label": "uint256",
        "numberOfBytes": "32"
      }
    }
  }
}